{"abi":[{"type":"function","name":"_acceptAdmin","inputs":[],"outputs":[{"name":"","type":"uint256","internalType":"uint256"}],"stateMutability":"nonpayable"},{"type":"function","name":"_addReserves","inputs":[{"name":"addAmount","type":"uint256","internalType":"uint256"}],"outputs":[{"name":"","type":"uint256","internalType":"uint256"}],"stateMutability":"nonpayable"},{"type":"function","name":"_reduceReserves","inputs":[{"name":"reduceAmount","type":"uint256","internalType":"uint256"}],"outputs":[{"name":"","type":"uint256","internalType":"uint256"}],"stateMutability":"nonpayable"},{"type":"function","name":"_setComptroller","inputs":[{"name":"newComptroller","type":"address","internalType":"contract ComptrollerInterface"}],"outputs":[{"name":"","type":"uint256","internalType":"uint256"}],"stateMutability":"nonpayable"},{"type":"function","name":"_setInterestRateModel","inputs":[{"name":"newInterestRateModel","type":"address","internalType":"contract InterestRateModel"}],"outputs":[{"name":"","type":"uint256","internalType":"uint256"}],"stateMutability":"nonpayable"},{"type":"function","name":"_setPendingAdmin","inputs":[{"name":"newPendingAdmin","type":"address","internalType":"address payable"}],"outputs":[{"name":"","type":"uint256","internalType":"uint256"}],"stateMutability":"nonpayable"},{"type":"function","name":"_setReserveFactor","inputs":[{"name":"newReserveFactorMantissa","type":"uint256","internalType":"uint256"}],"outputs":[{"name":"","type":"uint256","internalType":"uint256"}],"stateMutability":"nonpayable"},{"type":"function","name":"_setSoftVault","inputs":[{"name":"_softVault","type":"address","internalType":"address"}],"outputs":[{"name":"","type":"uint256","internalType":"uint256"}],"stateMutability":"nonpayable"},{"type":"function","name":"accrualBlockTimestamp","inputs":[],"outputs":[{"name":"","type":"uint256","internalType":"uint256"}],"stateMutability":"view"},{"type":"function","name":"accrueInterest","inputs":[],"outputs":[{"name":"","type":"uint256","internalType":"uint256"}],"stateMutability":"nonpayable"},{"type":"function","name":"admin","inputs":[],"outputs":[{"name":"","type":"address","internalType":"address payable"}],"stateMutability":"view"},{"type":"function","name":"allowance","inputs":[{"name":"owner","type":"address","internalType":"address"},{"name":"spender","type":"address","internalType":"address"}],"outputs":[{"name":"","type":"uint256","internalType":"uint256"}],"stateMutability":"view"},{"type":"function","name":"approve","inputs":[{"name":"spender","type":"address","internalType":"address"},{"name":"amount","type":"uint256","internalType":"uint256"}],"outputs":[{"name":"","type":"bool","internalType":"bool"}],"stateMutability":"nonpayable"},{"type":"function","name":"balanceOf","inputs":[{"name":"owner","type":"address","internalType":"address"}],"outputs":[{"name":"","type":"uint256","internalType":"uint256"}],"stateMutability":"view"},{"type":"function","name":"balanceOfUnderlying","inputs":[{"name":"owner","type":"address","internalType":"address"}],"outputs":[{"name":"","type":"uint256","internalType":"uint256"}],"stateMutability":"nonpayable"},{"type":"function","name":"borrow","inputs":[{"name":"borrowAmount","type":"uint256","internalType":"uint256"}],"outputs":[{"name":"","type":"uint256","internalType":"uint256"}],"stateMutability":"nonpayable"},{"type":"function","name":"borrowBalanceCurrent","inputs":[{"name":"account","type":"address","internalType":"address"}],"outputs":[{"name":"","type":"uint256","internalType":"uint256"}],"stateMutability":"nonpayable"},{"type":"function","name":"borrowBalanceStored","inputs":[{"name":"account","type":"address","internalType":"address"}],"outputs":[{"name":"","type":"uint256","internalType":"uint256"}],"stateMutability":"view"},{"type":"function","name":"borrowIndex","inputs":[],"outputs":[{"name":"","type":"uint256","internalType":"uint256"}],"stateMutability":"view"},{"type":"function","name":"borrowRatePerSecond","inputs":[],"outputs":[{"name":"","type":"uint256","internalType":"uint256"}],"stateMutability":"view"},{"type":"function","name":"comptroller","inputs":[],"outputs":[{"name":"","type":"address","internalType":"contract ComptrollerInterface"}],"stateMutability":"view"},{"type":"function","name":"decimals","inputs":[],"outputs":[{"name":"","type":"uint8","internalType":"uint8"}],"stateMutability":"view"},{"type":"function","name":"estimateBorrowRatePerSecondAfterChange","inputs":[{"name":"change","type":"uint256","internalType":"uint256"},{"name":"repay","type":"bool","internalType":"bool"}],"outputs":[{"name":"","type":"uint256","internalType":"uint256"}],"stateMutability":"view"},{"type":"function","name":"estimateSupplyRatePerSecondAfterChange","inputs":[{"name":"change","type":"uint256","internalType":"uint256"},{"name":"repay","type":"bool","internalType":"bool"}],"outputs":[{"name":"","type":"uint256","internalType":"uint256"}],"stateMutability":"view"},{"type":"function","name":"exchangeRateCurrent","inputs":[],"outputs":[{"name":"","type":"uint256","internalType":"uint256"}],"stateMutability":"nonpayable"},{"type":"function","name":"exchangeRateStored","inputs":[],"outputs":[{"name":"","type":"uint256","internalType":"uint256"}],"stateMutability":"view"},{"type":"function","name":"getAccountSnapshot","inputs":[{"name":"account","type":"address","internalType":"address"}],"outputs":[{"name":"","type":"uint256","internalType":"uint256"},{"name":"","type":"uint256","internalType":"uint256"},{"name":"","type":"uint256","internalType":"uint256"},{"name":"","type":"uint256","internalType":"uint256"}],"stateMutability":"view"},{"type":"function","name":"getCash","inputs":[],"outputs":[{"name":"","type":"uint256","internalType":"uint256"}],"stateMutability":"view"},{"type":"function","name":"implementation","inputs":[],"outputs":[{"name":"","type":"address","internalType":"address"}],"stateMutability":"view"},{"type":"function","name":"initialize","inputs":[{"name":"underlying_","type":"address","internalType":"address"},{"name":"comptroller_","type":"address","internalType":"contract ComptrollerInterface"},{"name":"interestRateModel_","type":"address","internalType":"contract InterestRateModel"},{"name":"initialExchangeRateMantissa_","type":"uint256","internalType":"uint256"},{"name":"name_","type":"string","internalType":"string"},{"name":"symbol_","type":"string","internalType":"string"},{"name":"decimals_","type":"uint8","internalType":"uint8"}],"outputs":[],"stateMutability":"nonpayable"},{"type":"function","name":"initialize","inputs":[{"name":"comptroller_","type":"address","internalType":"contract ComptrollerInterface"},{"name":"interestRateModel_","type":"address","internalType":"contract InterestRateModel"},{"name":"initialExchangeRateMantissa_","type":"uint256","internalType":"uint256"},{"name":"name_","type":"string","internalType":"string"},{"name":"symbol_","type":"string","internalType":"string"},{"name":"decimals_","type":"uint8","internalType":"uint8"}],"outputs":[],"stateMutability":"nonpayable"},{"type":"function","name":"interestRateModel","inputs":[],"outputs":[{"name":"","type":"address","internalType":"contract InterestRateModel"}],"stateMutability":"view"},{"type":"function","name":"isBToken","inputs":[],"outputs":[{"name":"","type":"bool","internalType":"bool"}],"stateMutability":"view"},{"type":"function","name":"liquidateBorrow","inputs":[{"name":"borrower","type":"address","internalType":"address"},{"name":"repayAmount","type":"uint256","internalType":"uint256"},{"name":"bTokenCollateral","type":"address","internalType":"contract BTokenInterface"}],"outputs":[{"name":"","type":"uint256","internalType":"uint256"}],"stateMutability":"nonpayable"},{"type":"function","name":"mint","inputs":[{"name":"mintAmount","type":"uint256","internalType":"uint256"}],"outputs":[{"name":"","type":"uint256","internalType":"uint256"}],"stateMutability":"nonpayable"},{"type":"function","name":"name","inputs":[],"outputs":[{"name":"","type":"string","internalType":"string"}],"stateMutability":"view"},{"type":"function","name":"pendingAdmin","inputs":[],"outputs":[{"name":"","type":"address","internalType":"address payable"}],"stateMutability":"view"},{"type":"function","name":"redeem","inputs":[{"name":"redeemTokens","type":"uint256","internalType":"uint256"}],"outputs":[{"name":"","type":"uint256","internalType":"uint256"}],"stateMutability":"nonpayable"},{"type":"function","name":"redeemUnderlying","inputs":[{"name":"redeemAmount","type":"uint256","internalType":"uint256"}],"outputs":[{"name":"","type":"uint256","internalType":"uint256"}],"stateMutability":"nonpayable"},{"type":"function","name":"repayBorrow","inputs":[{"name":"repayAmount","type":"uint256","internalType":"uint256"}],"outputs":[{"name":"","type":"uint256","internalType":"uint256"}],"stateMutability":"nonpayable"},{"type":"function","name":"repayBorrowBehalf","inputs":[{"name":"borrower","type":"address","internalType":"address"},{"name":"repayAmount","type":"uint256","internalType":"uint256"}],"outputs":[{"name":"","type":"uint256","internalType":"uint256"}],"stateMutability":"nonpayable"},{"type":"function","name":"reserveFactorMantissa","inputs":[],"outputs":[{"name":"","type":"uint256","internalType":"uint256"}],"stateMutability":"view"},{"type":"function","name":"seize","inputs":[{"name":"liquidator","type":"address","internalType":"address"},{"name":"borrower","type":"address","internalType":"address"},{"name":"seizeTokens","type":"uint256","internalType":"uint256"}],"outputs":[{"name":"","type":"uint256","internalType":"uint256"}],"stateMutability":"nonpayable"},{"type":"function","name":"softVault","inputs":[],"outputs":[{"name":"","type":"address","internalType":"address"}],"stateMutability":"view"},{"type":"function","name":"supplyRatePerSecond","inputs":[],"outputs":[{"name":"","type":"uint256","internalType":"uint256"}],"stateMutability":"view"},{"type":"function","name":"symbol","inputs":[],"outputs":[{"name":"","type":"string","internalType":"string"}],"stateMutability":"view"},{"type":"function","name":"totalBorrows","inputs":[],"outputs":[{"name":"","type":"uint256","internalType":"uint256"}],"stateMutability":"view"},{"type":"function","name":"totalBorrowsCurrent","inputs":[],"outputs":[{"name":"","type":"uint256","internalType":"uint256"}],"stateMutability":"nonpayable"},{"type":"function","name":"totalReserves","inputs":[],"outputs":[{"name":"","type":"uint256","internalType":"uint256"}],"stateMutability":"view"},{"type":"function","name":"totalSupply","inputs":[],"outputs":[{"name":"","type":"uint256","internalType":"uint256"}],"stateMutability":"view"},{"type":"function","name":"transfer","inputs":[{"name":"dst","type":"address","internalType":"address"},{"name":"amount","type":"uint256","internalType":"uint256"}],"outputs":[{"name":"","type":"bool","internalType":"bool"}],"stateMutability":"nonpayable"},{"type":"function","name":"transferFrom","inputs":[{"name":"src","type":"address","internalType":"address"},{"name":"dst","type":"address","internalType":"address"},{"name":"amount","type":"uint256","internalType":"uint256"}],"outputs":[{"name":"","type":"bool","internalType":"bool"}],"stateMutability":"nonpayable"},{"type":"function","name":"underlying","inputs":[],"outputs":[{"name":"","type":"address","internalType":"address"}],"stateMutability":"view"},{"type":"event","name":"AccrueInterest","inputs":[{"name":"cashPrior","type":"uint256","indexed":false,"internalType":"uint256"},{"name":"interestAccumulated","type":"uint256","indexed":false,"internalType":"uint256"},{"name":"borrowIndex","type":"uint256","indexed":false,"internalType":"uint256"},{"name":"totalBorrows","type":"uint256","indexed":false,"internalType":"uint256"}],"anonymous":false},{"type":"event","name":"Approval","inputs":[{"name":"owner","type":"address","indexed":true,"internalType":"address"},{"name":"spender","type":"address","indexed":true,"internalType":"address"},{"name":"amount","type":"uint256","indexed":false,"internalType":"uint256"}],"anonymous":false},{"type":"event","name":"Borrow","inputs":[{"name":"borrower","type":"address","indexed":false,"internalType":"address"},{"name":"borrowAmount","type":"uint256","indexed":false,"internalType":"uint256"},{"name":"accountBorrows","type":"uint256","indexed":false,"internalType":"uint256"},{"name":"totalBorrows","type":"uint256","indexed":false,"internalType":"uint256"}],"anonymous":false},{"type":"event","name":"Failure","inputs":[{"name":"error","type":"uint256","indexed":false,"internalType":"uint256"},{"name":"info","type":"uint256","indexed":false,"internalType":"uint256"},{"name":"detail","type":"uint256","indexed":false,"internalType":"uint256"}],"anonymous":false},{"type":"event","name":"LiquidateBorrow","inputs":[{"name":"liquidator","type":"address","indexed":false,"internalType":"address"},{"name":"borrower","type":"address","indexed":false,"internalType":"address"},{"name":"repayAmount","type":"uint256","indexed":false,"internalType":"uint256"},{"name":"bTokenCollateral","type":"address","indexed":false,"internalType":"address"},{"name":"seizeTokens","type":"uint256","indexed":false,"internalType":"uint256"}],"anonymous":false},{"type":"event","name":"Mint","inputs":[{"name":"minter","type":"address","indexed":false,"internalType":"address"},{"name":"mintAmount","type":"uint256","indexed":false,"internalType":"uint256"},{"name":"mintTokens","type":"uint256","indexed":false,"internalType":"uint256"}],"anonymous":false},{"type":"event","name":"NewAdmin","inputs":[{"name":"oldAdmin","type":"address","indexed":false,"internalType":"address"},{"name":"newAdmin","type":"address","indexed":false,"internalType":"address"}],"anonymous":false},{"type":"event","name":"NewComptroller","inputs":[{"name":"oldComptroller","type":"address","indexed":false,"internalType":"contract ComptrollerInterface"},{"name":"newComptroller","type":"address","indexed":false,"internalType":"contract ComptrollerInterface"}],"anonymous":false},{"type":"event","name":"NewMarketInterestRateModel","inputs":[{"name":"oldInterestRateModel","type":"address","indexed":false,"internalType":"contract InterestRateModel"},{"name":"newInterestRateModel","type":"address","indexed":false,"internalType":"contract InterestRateModel"}],"anonymous":false},{"type":"event","name":"NewPendingAdmin","inputs":[{"name":"oldPendingAdmin","type":"address","indexed":false,"internalType":"address"},{"name":"newPendingAdmin","type":"address","indexed":false,"internalType":"address"}],"anonymous":false},{"type":"event","name":"NewReserveFactor","inputs":[{"name":"oldReserveFactorMantissa","type":"uint256","indexed":false,"internalType":"uint256"},{"name":"newReserveFactorMantissa","type":"uint256","indexed":false,"internalType":"uint256"}],"anonymous":false},{"type":"event","name":"Redeem","inputs":[{"name":"redeemer","type":"address","indexed":false,"internalType":"address"},{"name":"redeemAmount","type":"uint256","indexed":false,"internalType":"uint256"},{"name":"redeemTokens","type":"uint256","indexed":false,"internalType":"uint256"}],"anonymous":false},{"type":"event","name":"RepayBorrow","inputs":[{"name":"payer","type":"address","indexed":false,"internalType":"address"},{"name":"borrower","type":"address","indexed":false,"internalType":"address"},{"name":"repayAmount","type":"uint256","indexed":false,"internalType":"uint256"},{"name":"accountBorrows","type":"uint256","indexed":false,"internalType":"uint256"},{"name":"totalBorrows","type":"uint256","indexed":false,"internalType":"uint256"}],"anonymous":false},{"type":"event","name":"ReservesAdded","inputs":[{"name":"benefactor","type":"address","indexed":false,"internalType":"address"},{"name":"addAmount","type":"uint256","indexed":false,"internalType":"uint256"},{"name":"newTotalReserves","type":"uint256","indexed":false,"internalType":"uint256"}],"anonymous":false},{"type":"event","name":"ReservesReduced","inputs":[{"name":"admin","type":"address","indexed":false,"internalType":"address"},{"name":"reduceAmount","type":"uint256","indexed":false,"internalType":"uint256"},{"name":"newTotalReserves","type":"uint256","indexed":false,"internalType":"uint256"}],"anonymous":false},{"type":"event","name":"Transfer","inputs":[{"name":"from","type":"address","indexed":true,"internalType":"address"},{"name":"to","type":"address","indexed":true,"internalType":"address"},{"name":"amount","type":"uint256","indexed":false,"internalType":"uint256"}],"anonymous":false}],"bytecode":{"object":"0x60806040523480156200001157600080fd5b506184dc80620000226000396000f3fe608060405234801561001057600080fd5b50600436106103275760003560e01c806373acee98116101b8578063b71d1a0c11610104578063e9c714f2116100a2578063f5e3c4621161007c578063f5e3c4621461136d578063f851a440146113ef578063fbb6233714611439578063fca7820b1461145b57610327565b8063e9c714f2146112ad578063f2b3abbd146112cb578063f3fdb15a1461132357610327565b8063c5ebeaec116100de578063c5ebeaec14611193578063cfa99201146111d5578063db006a75146111f3578063dd62ed3e1461123557610327565b8063b71d1a0c146110b0578063bd6d894d14611108578063c37f68e21461112657610327565b8063a0712d6811610171578063aa5af0fd1161014b578063aa5af0fd14610fa8578063b1d3897414610fc6578063b2a02ff114610fe4578063b51863451461106657610327565b8063a0712d6814610ee2578063a6afed9514610f24578063a9059cbb14610f4257610327565b806373acee9814610be0578063852a12e314610bfe5780638f840ddd14610c4057806395d89b4114610c5e57806395dd919314610ce157806399d8c1b414610d3957610327565b8063313ce5671161027757806350f6e082116102305780635fe3b5671161020a5780635fe3b56714610ab2578063601a0bf114610afc5780636f307dc314610b3e57806370a0823114610b8857610327565b806350f6e082146109fc5780635260975014610a4a5780635c60da1b14610a6857610327565b8063313ce567146108aa5780633af9e669146108ce5780633b1d21a2146109265780633e941010146109445780634576b5db1461098657806347bd3718146109de57610327565b806317bfdfbc116102e45780631a31d465116102be5780631a31d465146105af57806323b872dd146107785780632608f818146107fe578063267822471461086057610327565b806317bfdfbc1461051b57806318160ddd14610573578063182df0f51461059157610327565b806305860d581461032c57806306fdde0314610384578063095ea7b3146104075780630e7527021461046d5780630f3e4e11146104af578063173b9904146104fd575b600080fd5b61036e6004803603602081101561034257600080fd5b81019080803573ffffffffffffffffffffffffffffffffffffffff16906020019092919050505061149d565b6040518082815260200191505060405180910390f35b61038c61155d565b6040518080602001828103825283818151815260200191508051906020019080838360005b838110156103cc5780820151818401526020810190506103b1565b50505050905090810190601f1680156103f95780820380516001836020036101000a031916815260200191505b509250505060405180910390f35b6104536004803603604081101561041d57600080fd5b81019080803573ffffffffffffffffffffffffffffffffffffffff169060200190929190803590602001909291905050506115fb565b604051808215151515815260200191505060405180910390f35b6104996004803603602081101561048357600080fd5b81019080803590602001909291905050506116f2565b6040518082815260200191505060405180910390f35b6104e7600480360360408110156104c557600080fd5b810190808035906020019092919080351515906020019092919050505061177f565b6040518082815260200191505060405180910390f35b61050561189c565b6040518082815260200191505060405180910390f35b61055d6004803603602081101561053157600080fd5b81019080803573ffffffffffffffffffffffffffffffffffffffff1690602001909291905050506118a2565b6040518082815260200191505060405180910390f35b61057b611972565b6040518082815260200191505060405180910390f35b610599611978565b6040518082815260200191505060405180910390f35b610776600480360360e08110156105c557600080fd5b81019080803573ffffffffffffffffffffffffffffffffffffffff169060200190929190803573ffffffffffffffffffffffffffffffffffffffff169060200190929190803573ffffffffffffffffffffffffffffffffffffffff169060200190929190803590602001909291908035906020019064010000000081111561064c57600080fd5b82018360208201111561065e57600080fd5b8035906020019184600183028401116401000000008311171561068057600080fd5b91908080601f016020809104026020016040519081016040528093929190818152602001838380828437600081840152601f19601f820116905080830192505050505050509192919290803590602001906401000000008111156106e357600080fd5b8201836020820111156106f557600080fd5b8035906020019184600183028401116401000000008311171561071757600080fd5b91908080601f016020809104026020016040519081016040528093929190818152602001838380828437600081840152601f19601f820116905080830192505050505050509192919290803560ff169060200190929190505050611987565b005b6107e46004803603606081101561078e57600080fd5b81019080803573ffffffffffffffffffffffffffffffffffffffff169060200190929190803573ffffffffffffffffffffffffffffffffffffffff16906020019092919080359060200190929190505050611a83565b604051808215151515815260200191505060405180910390f35b61084a6004803603604081101561081457600080fd5b81019080803573ffffffffffffffffffffffffffffffffffffffff16906020019092919080359060200190929190505050611b5d565b6040518082815260200191505060405180910390f35b610868611bec565b604051808273ffffffffffffffffffffffffffffffffffffffff1673ffffffffffffffffffffffffffffffffffffffff16815260200191505060405180910390f35b6108b2611c12565b604051808260ff1660ff16815260200191505060405180910390f35b610910600480360360208110156108e457600080fd5b81019080803573ffffffffffffffffffffffffffffffffffffffff169060200190929190505050611c25565b6040518082815260200191505060405180910390f35b61092e611c98565b6040518082815260200191505060405180910390f35b6109706004803603602081101561095a57600080fd5b8101908080359060200190929190505050611ca7565b6040518082815260200191505060405180910390f35b6109c86004803603602081101561099c57600080fd5b81019080803573ffffffffffffffffffffffffffffffffffffffff169060200190929190505050611d2d565b6040518082815260200191505060405180910390f35b6109e6611f9e565b6040518082815260200191505060405180910390f35b610a3460048036036040811015610a1257600080fd5b8101908080359060200190929190803515159060200190929190505050611fa4565b6040518082815260200191505060405180910390f35b610a526120cb565b6040518082815260200191505060405180910390f35b610a7061219b565b604051808273ffffffffffffffffffffffffffffffffffffffff1673ffffffffffffffffffffffffffffffffffffffff16815260200191505060405180910390f35b610aba6121c1565b604051808273ffffffffffffffffffffffffffffffffffffffff1673ffffffffffffffffffffffffffffffffffffffff16815260200191505060405180910390f35b610b2860048036036020811015610b1257600080fd5b81019080803590602001909291905050506121e7565b6040518082815260200191505060405180910390f35b610b466122b7565b604051808273ffffffffffffffffffffffffffffffffffffffff1673ffffffffffffffffffffffffffffffffffffffff16815260200191505060405180910390f35b610bca60048036036020811015610b9e57600080fd5b81019080803573ffffffffffffffffffffffffffffffffffffffff1690602001909291905050506122dd565b6040518082815260200191505060405180910390f35b610be8612326565b6040518082815260200191505060405180910390f35b610c2a60048036036020811015610c1457600080fd5b81019080803590602001909291905050506123ee565b6040518082815260200191505060405180910390f35b610c48612474565b6040518082815260200191505060405180910390f35b610c6661247a565b6040518080602001828103825283818151815260200191508051906020019080838360005b83811015610ca6578082015181840152602081019050610c8b565b50505050905090810190601f168015610cd35780820380516001836020036101000a031916815260200191505b509250505060405180910390f35b610d2360048036036020811015610cf757600080fd5b81019080803573ffffffffffffffffffffffffffffffffffffffff169060200190929190505050612518565b6040518082815260200191505060405180910390f35b610ee0600480360360c0811015610d4f57600080fd5b81019080803573ffffffffffffffffffffffffffffffffffffffff169060200190929190803573ffffffffffffffffffffffffffffffffffffffff1690602001909291908035906020019092919080359060200190640100000000811115610db657600080fd5b820183602082011115610dc857600080fd5b80359060200191846001830284011164010000000083111715610dea57600080fd5b91908080601f016020809104026020016040519081016040528093929190818152602001838380828437600081840152601f19601f82011690508083019250505050505050919291929080359060200190640100000000811115610e4d57600080fd5b820183602082011115610e5f57600080fd5b80359060200191846001830284011164010000000083111715610e8157600080fd5b91908080601f016020809104026020016040519081016040528093929190818152602001838380828437600081840152601f19601f820116905080830192505050505050509192919290803560ff16906020019092919050505061252a565b005b610f0e60048036036020811015610ef857600080fd5b8101908080359060200190929190505050612895565b6040518082815260200191505060405180910390f35b610f2c6129e6565b6040518082815260200191505060405180910390f35b610f8e60048036036040811015610f5857600080fd5b81019080803573ffffffffffffffffffffffffffffffffffffffff16906020019092919080359060200190929190505050612c7c565b604051808215151515815260200191505060405180910390f35b610fb0612d55565b6040518082815260200191505060405180910390f35b610fce612d5b565b6040518082815260200191505060405180910390f35b61105060048036036060811015610ffa57600080fd5b81019080803573ffffffffffffffffffffffffffffffffffffffff169060200190929190803573ffffffffffffffffffffffffffffffffffffffff16906020019092919080359060200190929190505050612e35565b6040518082815260200191505060405180910390f35b61106e612f01565b604051808273ffffffffffffffffffffffffffffffffffffffff1673ffffffffffffffffffffffffffffffffffffffff16815260200191505060405180910390f35b6110f2600480360360208110156110c657600080fd5b81019080803573ffffffffffffffffffffffffffffffffffffffff169060200190929190505050612f27565b6040518082815260200191505060405180910390f35b6111106130a6565b6040518082815260200191505060405180910390f35b6111686004803603602081101561113c57600080fd5b81019080803573ffffffffffffffffffffffffffffffffffffffff169060200190929190505050613173565b6040518085815260200184815260200183815260200182815260200194505050505060405180910390f35b6111bf600480360360208110156111a957600080fd5b81019080803590602001909291905050506131c1565b6040518082815260200191505060405180910390f35b6111dd613247565b6040518082815260200191505060405180910390f35b61121f6004803603602081101561120957600080fd5b810190808035906020019092919050505061324d565b6040518082815260200191505060405180910390f35b6112976004803603604081101561124b57600080fd5b81019080803573ffffffffffffffffffffffffffffffffffffffff169060200190929190803573ffffffffffffffffffffffffffffffffffffffff1690602001909291905050506132d3565b6040518082815260200191505060405180910390f35b6112b561335a565b6040518082815260200191505060405180910390f35b61130d600480360360208110156112e157600080fd5b81019080803573ffffffffffffffffffffffffffffffffffffffff169060200190929190505050613677565b6040518082815260200191505060405180910390f35b61132b613692565b604051808273ffffffffffffffffffffffffffffffffffffffff1673ffffffffffffffffffffffffffffffffffffffff16815260200191505060405180910390f35b6113d96004803603606081101561138357600080fd5b81019080803573ffffffffffffffffffffffffffffffffffffffff16906020019092919080359060200190929190803573ffffffffffffffffffffffffffffffffffffffff1690602001909291905050506136b8565b6040518082815260200191505060405180910390f35b6113f7613749565b604051808273ffffffffffffffffffffffffffffffffffffffff1673ffffffffffffffffffffffffffffffffffffffff16815260200191505060405180910390f35b61144161376f565b604051808215151515815260200191505060405180910390f35b6114876004803603602081101561147157600080fd5b8101908080359060200190929190505050613774565b6040518082815260200191505060405180910390f35b6000600360019054906101000a900473ffffffffffffffffffffffffffffffffffffffff1673ffffffffffffffffffffffffffffffffffffffff163373ffffffffffffffffffffffffffffffffffffffff1614611507576115006001602e613844565b9050611558565b81601160006101000a81548173ffffffffffffffffffffffffffffffffffffffff021916908373ffffffffffffffffffffffffffffffffffffffff1602179055506000601081111561155557fe5b90505b919050565b60018054600181600116156101000203166002900480601f0160208091040260200160405190810160405280929190818152602001828054600181600116156101000203166002900480156115f35780601f106115c8576101008083540402835291602001916115f3565b820191906000526020600020905b8154815290600101906020018083116115d657829003601f168201915b505050505081565b60008033905082600f60008373ffffffffffffffffffffffffffffffffffffffff1673ffffffffffffffffffffffffffffffffffffffff16815260200190815260200160002060008673ffffffffffffffffffffffffffffffffffffffff1673ffffffffffffffffffffffffffffffffffffffff168152602001908152602001600020819055508373ffffffffffffffffffffffffffffffffffffffff168173ffffffffffffffffffffffffffffffffffffffff167f8c5be1e5ebec7d5bd14f71427d1e84f3dd0314c0f7b2291e5b200ac8c7c3b925856040518082815260200191505060405180910390a3600191505092915050565b6000806117008360006138b8565b50905060008114611779576040517f08c379a000000000000000000000000000000000000000000000000000000000815260040180806020018281038252600c8152602001807f7265706179206661696c6564000000000000000000000000000000000000000081525060200191505060405180910390fd5b50919050565b600080600083156117b05761179b611795613990565b86613a76565b91506117a9600b5486613ac0565b90506117d2565b6117c16117bb613990565b86613ac0565b91506117cf600b5486613a76565b90505b600660009054906101000a900473ffffffffffffffffffffffffffffffffffffffff1673ffffffffffffffffffffffffffffffffffffffff166315f240538383600c546040518463ffffffff1660e01b815260040180848152602001838152602001828152602001935050505060206040518083038186803b15801561185757600080fd5b505afa15801561186b573d6000803e3d6000fd5b505050506040513d602081101561188157600080fd5b81019080805190602001909291905050509250505092915050565b60085481565b60008060009054906101000a900460ff16611925576040517f08c379a000000000000000000000000000000000000000000000000000000000815260040180806020018281038252600a8152602001807f72652d656e74657265640000000000000000000000000000000000000000000081525060200191505060405180910390fd5b60008060006101000a81548160ff0219169083151502179055506119476129e6565b5061195182612518565b905060016000806101000a81548160ff021916908315150217905550919050565b600d5481565b6000611982613b0a565b905090565b61199586868686868661252a565b86601260006101000a81548173ffffffffffffffffffffffffffffffffffffffff021916908373ffffffffffffffffffffffffffffffffffffffff160217905550601260009054906101000a900473ffffffffffffffffffffffffffffffffffffffff1673ffffffffffffffffffffffffffffffffffffffff166318160ddd6040518163ffffffff1660e01b815260040160206040518083038186803b158015611a3e57600080fd5b505afa158015611a52573d6000803e3d6000fd5b505050506040513d6020811015611a6857600080fd5b81019080805190602001909291905050505050505050505050565b60008060009054906101000a900460ff16611b06576040517f08c379a000000000000000000000000000000000000000000000000000000000815260040180806020018281038252600a8152602001807f72652d656e74657265640000000000000000000000000000000000000000000081525060200191505060405180910390fd5b60008060006101000a81548160ff02191690831515021790555060006010811115611b2d57fe5b611b3933868686613b74565b14905060016000806101000a81548160ff0219169083151502179055509392505050565b600080611b6c84846000614229565b50905060008114611be5576040517f08c379a00000000000000000000000000000000000000000000000000000000081526004018080602001828103825260138152602001807f726570617920626568616c66206661696c65640000000000000000000000000081525060200191505060405180910390fd5b5092915050565b600460009054906101000a900473ffffffffffffffffffffffffffffffffffffffff1681565b600360009054906101000a900460ff1681565b6000611c2f6182e9565b6040518060200160405280611c426130a6565b8152509050611c9081600e60008673ffffffffffffffffffffffffffffffffffffffff1673ffffffffffffffffffffffffffffffffffffffff16815260200190815260200160002054614302565b915050919050565b6000611ca2613990565b905090565b600080611cb583600061432a565b14611d28576040517f08c379a00000000000000000000000000000000000000000000000000000000081526004018080602001828103825260138152602001807f616464207265736572766573206661696c65640000000000000000000000000081525060200191505060405180910390fd5b919050565b6000600360019054906101000a900473ffffffffffffffffffffffffffffffffffffffff1673ffffffffffffffffffffffffffffffffffffffff163373ffffffffffffffffffffffffffffffffffffffff1614611d9757611d9060016029613844565b9050611f99565b6000600560009054906101000a900473ffffffffffffffffffffffffffffffffffffffff1690508273ffffffffffffffffffffffffffffffffffffffff16627e3dd26040518163ffffffff1660e01b815260040160206040518083038186803b158015611e0357600080fd5b505afa158015611e17573d6000803e3d6000fd5b505050506040513d6020811015611e2d57600080fd5b8101908080519060200190929190505050611eb0576040517f08c379a000000000000000000000000000000000000000000000000000000000815260040180806020018281038252600f8152602001807f6e6f7420636f6d7074726f6c6c6572000000000000000000000000000000000081525060200191505060405180910390fd5b82600560006101000a81548173ffffffffffffffffffffffffffffffffffffffff021916908373ffffffffffffffffffffffffffffffffffffffff1602179055507f7ac369dbd14fa5ea3f473ed67cc9d598964a77501540ba6751eb0b3decf5870d8184604051808373ffffffffffffffffffffffffffffffffffffffff1673ffffffffffffffffffffffffffffffffffffffff1681526020018273ffffffffffffffffffffffffffffffffffffffff1673ffffffffffffffffffffffffffffffffffffffff1681526020019250505060405180910390a160006010811115611f9557fe5b9150505b919050565b600b5481565b60008060008315611fd557611fc0611fba613990565b86613a76565b9150611fce600b5486613ac0565b9050611ff7565b611fe6611fe0613990565b86613ac0565b9150611ff4600b5486613a76565b90505b600660009054906101000a900473ffffffffffffffffffffffffffffffffffffffff1673ffffffffffffffffffffffffffffffffffffffff1663b81688168383600c546008546040518563ffffffff1660e01b81526004018085815260200184815260200183815260200182815260200194505050505060206040518083038186803b15801561208657600080fd5b505afa15801561209a573d6000803e3d6000fd5b505050506040513d60208110156120b057600080fd5b81019080805190602001909291905050509250505092915050565b6000600660009054906101000a900473ffffffffffffffffffffffffffffffffffffffff1673ffffffffffffffffffffffffffffffffffffffff166315f24053612113613990565b600b54600c546040518463ffffffff1660e01b815260040180848152602001838152602001828152602001935050505060206040518083038186803b15801561215b57600080fd5b505afa15801561216f573d6000803e3d6000fd5b505050506040513d602081101561218557600080fd5b8101908080519060200190929190505050905090565b601360009054906101000a900473ffffffffffffffffffffffffffffffffffffffff1681565b600560009054906101000a900473ffffffffffffffffffffffffffffffffffffffff1681565b60008060009054906101000a900460ff1661226a576040517f08c379a000000000000000000000000000000000000000000000000000000000815260040180806020018281038252600a8152602001807f72652d656e74657265640000000000000000000000000000000000000000000081525060200191505060405180910390fd5b60008060006101000a81548160ff02191690831515021790555061228c6129e6565b5061229682614403565b905060016000806101000a81548160ff021916908315150217905550919050565b601260009054906101000a900473ffffffffffffffffffffffffffffffffffffffff1681565b6000600e60008373ffffffffffffffffffffffffffffffffffffffff1673ffffffffffffffffffffffffffffffffffffffff168152602001908152602001600020549050919050565b60008060009054906101000a900460ff166123a9576040517f08c379a000000000000000000000000000000000000000000000000000000000815260040180806020018281038252600a8152602001807f72652d656e74657265640000000000000000000000000000000000000000000081525060200191505060405180910390fd5b60008060006101000a81548160ff0219169083151502179055506123cb6129e6565b50600b54905060016000806101000a81548160ff02191690831515021790555090565b6000806123fc8360006145c2565b1461246f576040517f08c379a00000000000000000000000000000000000000000000000000000000081526004018080602001828103825260188152602001807f72656465656d20756e6465726c79696e67206661696c6564000000000000000081525060200191505060405180910390fd5b919050565b600c5481565b60028054600181600116156101000203166002900480601f0160208091040260200160405190810160405280929190818152602001828054600181600116156101000203166002900480156125105780601f106124e557610100808354040283529160200191612510565b820191906000526020600020905b8154815290600101906020018083116124f357829003601f168201915b505050505081565b600061252382614697565b9050919050565b600360019054906101000a900473ffffffffffffffffffffffffffffffffffffffff1673ffffffffffffffffffffffffffffffffffffffff163373ffffffffffffffffffffffffffffffffffffffff16146125ed576040517f08c379a000000000000000000000000000000000000000000000000000000000815260040180806020018281038252600a8152602001807f61646d696e206f6e6c790000000000000000000000000000000000000000000081525060200191505060405180910390fd5b600060095414801561260157506000600a54145b612673576040517f08c379a000000000000000000000000000000000000000000000000000000000815260040180806020018281038252600b8152602001807f696e697469616c697a656400000000000000000000000000000000000000000081525060200191505060405180910390fd5b836007819055506000600754116126f2576040517f08c379a00000000000000000000000000000000000000000000000000000000081526004018080602001828103825260158152602001807f696e76616c69642065786368616e67652072617465000000000000000000000081525060200191505060405180910390fd5b60006126fd87611d2d565b90506000601081111561270c57fe5b8114612780576040517f08c379a00000000000000000000000000000000000000000000000000000000081526004018080602001828103825260168152602001807f73657420636f6d7074726f6c6c6572206661696c65640000000000000000000081525060200191505060405180910390fd5b612788614724565b600981905550670de0b6b3a7640000600a819055506127a68661472c565b9050600060108111156127b557fe5b8114612829576040517f08c379a000000000000000000000000000000000000000000000000000000000815260040180806020018281038252600e8152602001807f7365742049524d206661696c656400000000000000000000000000000000000081525060200191505060405180910390fd5b836001908051906020019061283f9291906182fc565b5082600290805190602001906128569291906182fc565b5081600360006101000a81548160ff021916908360ff16021790555060016000806101000a81548160ff02191690831515021790555050505050505050565b6000601160009054906101000a900473ffffffffffffffffffffffffffffffffffffffff1673ffffffffffffffffffffffffffffffffffffffff163373ffffffffffffffffffffffffffffffffffffffff161461295a576040517f08c379a000000000000000000000000000000000000000000000000000000000815260040180806020018281038252601a8152602001807f63616c6c65722073686f756c6420626520736f66747661756c7400000000000081525060200191505060405180910390fd5b60006129678360006149c2565b509050600081146129e0576040517f08c379a000000000000000000000000000000000000000000000000000000000815260040180806020018281038252600b8152602001807f6d696e74206661696c656400000000000000000000000000000000000000000081525060200191505060405180910390fd5b50919050565b6000806129f1614724565b90506000600954905081811415612a185760006010811115612a0f57fe5b92505050612c79565b6000612a22613990565b90506000600b5490506000600c5490506000600a5490506000600660009054906101000a900473ffffffffffffffffffffffffffffffffffffffff1673ffffffffffffffffffffffffffffffffffffffff166315f240538686866040518463ffffffff1660e01b815260040180848152602001838152602001828152602001935050505060206040518083038186803b158015612abe57600080fd5b505afa158015612ad2573d6000803e3d6000fd5b505050506040513d6020811015612ae857600080fd5b8101908080519060200190929190505050905065048c27395000811115612b77576040517f08c379a00000000000000000000000000000000000000000000000000000000081526004018080602001828103825260148152602001807f626f72726f77207261746520746f6f206869676800000000000000000000000081525060200191505060405180910390fd5b6000612b838888613ac0565b9050612b8d6182e9565b612ba560405180602001604052808581525083614a99565b90506000612bb38288614302565b90506000612bc18289613a76565b90506000612be06040518060200160405280600854815250848a614ac5565b90506000612bef85898a614ac5565b90508c60098190555080600a8190555082600b8190555081600c819055507f4dec04e750ca11537cabcd8a9eab06494de08da3735bc8871cd41250e190bc048b8583866040518085815260200184815260200183815260200182815260200194505050505060405180910390a160006010811115612c6957fe5b9d50505050505050505050505050505b90565b60008060009054906101000a900460ff16612cff576040517f08c379a000000000000000000000000000000000000000000000000000000000815260040180806020018281038252600a8152602001807f72652d656e74657265640000000000000000000000000000000000000000000081525060200191505060405180910390fd5b60008060006101000a81548160ff02191690831515021790555060006010811115612d2657fe5b612d3233338686613b74565b14905060016000806101000a81548160ff02191690831515021790555092915050565b600a5481565b6000600660009054906101000a900473ffffffffffffffffffffffffffffffffffffffff1673ffffffffffffffffffffffffffffffffffffffff1663b8168816612da3613990565b600b54600c546008546040518563ffffffff1660e01b81526004018085815260200184815260200183815260200182815260200194505050505060206040518083038186803b158015612df557600080fd5b505afa158015612e09573d6000803e3d6000fd5b505050506040513d6020811015612e1f57600080fd5b8101908080519060200190929190505050905090565b60008060009054906101000a900460ff16612eb8576040517f08c379a000000000000000000000000000000000000000000000000000000000815260040180806020018281038252600a8152602001807f72652d656e74657265640000000000000000000000000000000000000000000081525060200191505060405180910390fd5b60008060006101000a81548160ff021916908315150217905550612ede33858585614af7565b905060016000806101000a81548160ff0219169083151502179055509392505050565b601160009054906101000a900473ffffffffffffffffffffffffffffffffffffffff1681565b6000600360019054906101000a900473ffffffffffffffffffffffffffffffffffffffff1673ffffffffffffffffffffffffffffffffffffffff163373ffffffffffffffffffffffffffffffffffffffff1614612f9157612f8a60016030613844565b90506130a1565b6000600460009054906101000a900473ffffffffffffffffffffffffffffffffffffffff16905082600460006101000a81548173ffffffffffffffffffffffffffffffffffffffff021916908373ffffffffffffffffffffffffffffffffffffffff1602179055507fca4f2f25d0898edd99413412fb94012f9e54ec8142f9b093e7720646a95b16a98184604051808373ffffffffffffffffffffffffffffffffffffffff1673ffffffffffffffffffffffffffffffffffffffff1681526020018273ffffffffffffffffffffffffffffffffffffffff1673ffffffffffffffffffffffffffffffffffffffff1681526020019250505060405180910390a16000601081111561309d57fe5b9150505b919050565b60008060009054906101000a900460ff16613129576040517f08c379a000000000000000000000000000000000000000000000000000000000815260040180806020018281038252600a8152602001807f72652d656e74657265640000000000000000000000000000000000000000000081525060200191505060405180910390fd5b60008060006101000a81548160ff02191690831515021790555061314b6129e6565b50613154611978565b905060016000806101000a81548160ff02191690831515021790555090565b60008060008060006131848661509e565b9050600061319187614697565b9050600061319d613b0a565b9050600060108111156131ac57fe5b83838396509650965096505050509193509193565b6000806131cf8360006150e7565b14613242576040517f08c379a000000000000000000000000000000000000000000000000000000000815260040180806020018281038252600d8152602001807f626f72726f77206661696c65640000000000000000000000000000000000000081525060200191505060405180910390fd5b919050565b60095481565b60008061325b8360006151ba565b146132ce576040517f08c379a000000000000000000000000000000000000000000000000000000000815260040180806020018281038252600d8152602001807f72656465656d206661696c65640000000000000000000000000000000000000081525060200191505060405180910390fd5b919050565b6000600f60008473ffffffffffffffffffffffffffffffffffffffff1673ffffffffffffffffffffffffffffffffffffffff16815260200190815260200160002060008373ffffffffffffffffffffffffffffffffffffffff1673ffffffffffffffffffffffffffffffffffffffff16815260200190815260200160002054905092915050565b6000600460009054906101000a900473ffffffffffffffffffffffffffffffffffffffff1673ffffffffffffffffffffffffffffffffffffffff163373ffffffffffffffffffffffffffffffffffffffff161415806133e55750600073ffffffffffffffffffffffffffffffffffffffff163373ffffffffffffffffffffffffffffffffffffffff16145b156133fd576133f660016000613844565b9050613674565b6000600360019054906101000a900473ffffffffffffffffffffffffffffffffffffffff1690506000600460009054906101000a900473ffffffffffffffffffffffffffffffffffffffff169050600460009054906101000a900473ffffffffffffffffffffffffffffffffffffffff16600360016101000a81548173ffffffffffffffffffffffffffffffffffffffff021916908373ffffffffffffffffffffffffffffffffffffffff1602179055506000600460006101000a81548173ffffffffffffffffffffffffffffffffffffffff021916908373ffffffffffffffffffffffffffffffffffffffff1602179055507ff9ffabca9c8276e99321725bcb43fb076a6c66a54b7f21c4e8146d8519b417dc82600360019054906101000a900473ffffffffffffffffffffffffffffffffffffffff16604051808373ffffffffffffffffffffffffffffffffffffffff1673ffffffffffffffffffffffffffffffffffffffff1681526020018273ffffffffffffffffffffffffffffffffffffffff1673ffffffffffffffffffffffffffffffffffffffff1681526020019250505060405180910390a17fca4f2f25d0898edd99413412fb94012f9e54ec8142f9b093e7720646a95b16a981600460009054906101000a900473ffffffffffffffffffffffffffffffffffffffff16604051808373ffffffffffffffffffffffffffffffffffffffff1673ffffffffffffffffffffffffffffffffffffffff1681526020018273ffffffffffffffffffffffffffffffffffffffff1673ffffffffffffffffffffffffffffffffffffffff1681526020019250505060405180910390a16000601081111561366f57fe5b925050505b90565b60006136816129e6565b5061368b8261472c565b9050919050565b600660009054906101000a900473ffffffffffffffffffffffffffffffffffffffff1681565b6000806136c8858585600061528f565b50905060008114613741576040517f08c379a00000000000000000000000000000000000000000000000000000000081526004018080602001828103825260178152602001807f6c697175696461746520626f72726f77206661696c656400000000000000000081525060200191505060405180910390fd5b509392505050565b600360019054906101000a900473ffffffffffffffffffffffffffffffffffffffff1681565b600181565b60008060009054906101000a900460ff166137f7576040517f08c379a000000000000000000000000000000000000000000000000000000000815260040180806020018281038252600a8152602001807f72652d656e74657265640000000000000000000000000000000000000000000081525060200191505060405180910390fd5b60008060006101000a81548160ff0219169083151502179055506138196129e6565b506138238261546d565b905060016000806101000a81548160ff021916908315150217905550919050565b60007f45b96fe442630264581b197e84bbada861235052c5a1aadfff9ea4e40a969aa083601081111561387357fe5b83603981111561387f57fe5b600060405180848152602001838152602001828152602001935050505060405180910390a18260108111156138b057fe5b905092915050565b6000806000809054906101000a900460ff1661393c576040517f08c379a000000000000000000000000000000000000000000000000000000000815260040180806020018281038252600a8152602001807f72652d656e74657265640000000000000000000000000000000000000000000081525060200191505060405180910390fd5b60008060006101000a81548160ff02191690831515021790555061395e6129e6565b5061396b33338686615580565b9150915060016000806101000a81548160ff0219169083151502179055509250929050565b600080601260009054906101000a900473ffffffffffffffffffffffffffffffffffffffff1690508073ffffffffffffffffffffffffffffffffffffffff166370a08231306040518263ffffffff1660e01b8152600401808273ffffffffffffffffffffffffffffffffffffffff1673ffffffffffffffffffffffffffffffffffffffff16815260200191505060206040518083038186803b158015613a3557600080fd5b505afa158015613a49573d6000803e3d6000fd5b505050506040513d6020811015613a5f57600080fd5b810190808051906020019092919050505091505090565b6000613ab883836040518060400160405280601181526020017f6164646974696f6e206f766572666c6f77000000000000000000000000000000815250615b6d565b905092915050565b6000613b0283836040518060400160405280601581526020017f7375627472616374696f6e20756e646572666c6f770000000000000000000000815250615c2c565b905092915050565b600080600d5490506000811415613b2657600754915050613b71565b6000613b30613990565b90506000613b4b613b4383600b54613a76565b600c54613ac0565b90506000613b6782604051806020016040528087815250615ce6565b9050809450505050505b90565b600080600560009054906101000a900473ffffffffffffffffffffffffffffffffffffffff1673ffffffffffffffffffffffffffffffffffffffff1663bdcdc258308787876040518563ffffffff1660e01b8152600401808573ffffffffffffffffffffffffffffffffffffffff1673ffffffffffffffffffffffffffffffffffffffff1681526020018473ffffffffffffffffffffffffffffffffffffffff1673ffffffffffffffffffffffffffffffffffffffff1681526020018373ffffffffffffffffffffffffffffffffffffffff1673ffffffffffffffffffffffffffffffffffffffff168152602001828152602001945050505050602060405180830381600087803b158015613c8857600080fd5b505af1158015613c9c573d6000803e3d6000fd5b505050506040513d6020811015613cb257600080fd5b810190808051906020019092919050505014613d36576040517f08c379a00000000000000000000000000000000000000000000000000000000081526004018080602001828103825260088152602001807f72656a656374656400000000000000000000000000000000000000000000000081525060200191505060405180910390fd5b8273ffffffffffffffffffffffffffffffffffffffff168473ffffffffffffffffffffffffffffffffffffffff161415613dd8576040517f08c379a00000000000000000000000000000000000000000000000000000000081526004018080602001828103825260098152602001807f62616420696e707574000000000000000000000000000000000000000000000081525060200191505060405180910390fd5b60008090508473ffffffffffffffffffffffffffffffffffffffff168673ffffffffffffffffffffffffffffffffffffffff161415613e39577fffffffffffffffffffffffffffffffffffffffffffffffffffffffffffffffff9050613eb9565b600f60008673ffffffffffffffffffffffffffffffffffffffff1673ffffffffffffffffffffffffffffffffffffffff16815260200190815260200160002060008773ffffffffffffffffffffffffffffffffffffffff1673ffffffffffffffffffffffffffffffffffffffff1681526020019081526020016000205490505b613f02600e60008773ffffffffffffffffffffffffffffffffffffffff1673ffffffffffffffffffffffffffffffffffffffff1681526020019081526020016000205484613ac0565b600e60008773ffffffffffffffffffffffffffffffffffffffff1673ffffffffffffffffffffffffffffffffffffffff16815260200190815260200160002081905550613f8e600e60008673ffffffffffffffffffffffffffffffffffffffff1673ffffffffffffffffffffffffffffffffffffffff1681526020019081526020016000205484613a76565b600e60008673ffffffffffffffffffffffffffffffffffffffff1673ffffffffffffffffffffffffffffffffffffffff168152602001908152602001600020819055507fffffffffffffffffffffffffffffffffffffffffffffffffffffffffffffffff8114614083576140028184613ac0565b600f60008773ffffffffffffffffffffffffffffffffffffffff1673ffffffffffffffffffffffffffffffffffffffff16815260200190815260200160002060008873ffffffffffffffffffffffffffffffffffffffff1673ffffffffffffffffffffffffffffffffffffffff168152602001908152602001600020819055505b8373ffffffffffffffffffffffffffffffffffffffff168573ffffffffffffffffffffffffffffffffffffffff167fddf252ad1be2c89b69c2b068fc378daa952ba7f163c4a11628f55a4df523b3ef856040518082815260200191505060405180910390a3600560009054906101000a900473ffffffffffffffffffffffffffffffffffffffff1673ffffffffffffffffffffffffffffffffffffffff16636a56947e308787876040518563ffffffff1660e01b8152600401808573ffffffffffffffffffffffffffffffffffffffff1673ffffffffffffffffffffffffffffffffffffffff1681526020018473ffffffffffffffffffffffffffffffffffffffff1673ffffffffffffffffffffffffffffffffffffffff1681526020018373ffffffffffffffffffffffffffffffffffffffff1673ffffffffffffffffffffffffffffffffffffffff168152602001828152602001945050505050600060405180830381600087803b1580156141f957600080fd5b505af115801561420d573d6000803e3d6000fd5b505050506000601081111561421e57fe5b915050949350505050565b6000806000809054906101000a900460ff166142ad576040517f08c379a000000000000000000000000000000000000000000000000000000000815260040180806020018281038252600a8152602001807f72652d656e74657265640000000000000000000000000000000000000000000081525060200191505060405180910390fd5b60008060006101000a81548160ff0219169083151502179055506142cf6129e6565b506142dc33868686615580565b9150915060016000806101000a81548160ff021916908315150217905550935093915050565b600061430c6182e9565b6143168484614a99565b905061432181615d0f565b91505092915050565b60008060009054906101000a900460ff166143ad576040517f08c379a000000000000000000000000000000000000000000000000000000000815260040180806020018281038252600a8152602001807f72652d656e74657265640000000000000000000000000000000000000000000081525060200191505060405180910390fd5b60008060006101000a81548160ff0219169083151502179055506143cf6129e6565b5060006143dc8484615d2e565b5090508091505060016000806101000a81548160ff02191690831515021790555092915050565b600080600360019054906101000a900473ffffffffffffffffffffffffffffffffffffffff1673ffffffffffffffffffffffffffffffffffffffff163373ffffffffffffffffffffffffffffffffffffffff161461446f576144676001601e613844565b9150506145bd565b614477614724565b600954146144935761448b600a6020613844565b9150506145bd565b8261449c613990565b10156144b6576144ae600e601f613844565b9150506145bd565b600c548311156144d4576144cc60026021613844565b9150506145bd565b6144e0600c5484613ac0565b905080600c81905550614517600360019054906101000a900473ffffffffffffffffffffffffffffffffffffffff16846000615e0d565b7f3bad0c59cf2f06e7314077049f48a93578cd16f5ef92329f1dab1420a99c177e600360019054906101000a900473ffffffffffffffffffffffffffffffffffffffff168483604051808473ffffffffffffffffffffffffffffffffffffffff1673ffffffffffffffffffffffffffffffffffffffff168152602001838152602001828152602001935050505060405180910390a1600060108111156145b957fe5b9150505b919050565b60008060009054906101000a900460ff16614645576040517f08c379a000000000000000000000000000000000000000000000000000000000815260040180806020018281038252600a8152602001807f72652d656e74657265640000000000000000000000000000000000000000000081525060200191505060405180910390fd5b60008060006101000a81548160ff0219169083151502179055506146676129e6565b506146753360008585615f7c565b905060016000806101000a81548160ff02191690831515021790555092915050565b600080601060008473ffffffffffffffffffffffffffffffffffffffff1673ffffffffffffffffffffffffffffffffffffffff16815260200190815260200160002090506000816000015414156146f257600091505061471f565b60006147048260000154600a54616611565b9050600061471682846001015461665b565b90508093505050505b919050565b600042905090565b600080600360019054906101000a900473ffffffffffffffffffffffffffffffffffffffff1673ffffffffffffffffffffffffffffffffffffffff163373ffffffffffffffffffffffffffffffffffffffff1614614798576147906001602c613844565b9150506149bd565b6147a0614724565b600954146147bc576147b4600a602b613844565b9150506149bd565b600660009054906101000a900473ffffffffffffffffffffffffffffffffffffffff1690508273ffffffffffffffffffffffffffffffffffffffff16632191f92a6040518163ffffffff1660e01b815260040160206040518083038186803b15801561482757600080fd5b505afa15801561483b573d6000803e3d6000fd5b505050506040513d602081101561485157600080fd5b81019080805190602001909291905050506148d4576040517f08c379a000000000000000000000000000000000000000000000000000000000815260040180806020018281038252600b8152602001807f696e76616c69642049524d00000000000000000000000000000000000000000081525060200191505060405180910390fd5b82600660006101000a81548173ffffffffffffffffffffffffffffffffffffffff021916908373ffffffffffffffffffffffffffffffffffffffff1602179055507fedffc32e068c7c95dfd4bdfd5c4d939a084d6b11c4199eac8436ed234d72f9268184604051808373ffffffffffffffffffffffffffffffffffffffff1673ffffffffffffffffffffffffffffffffffffffff1681526020018273ffffffffffffffffffffffffffffffffffffffff1673ffffffffffffffffffffffffffffffffffffffff1681526020019250505060405180910390a1600060108111156149b957fe5b9150505b919050565b6000806000809054906101000a900460ff16614a46576040517f08c379a000000000000000000000000000000000000000000000000000000000815260040180806020018281038252600a8152602001807f72652d656e74657265640000000000000000000000000000000000000000000081525060200191505060405180910390fd5b60008060006101000a81548160ff021916908315150217905550614a686129e6565b50614a743385856166a5565b9150915060016000806101000a81548160ff0219169083151502179055509250929050565b614aa16182e9565b6040518060200160405280614aba856000015185616611565b815250905092915050565b6000614acf6182e9565b614ad98585614a99565b9050614aed614ae782615d0f565b84613a76565b9150509392505050565b600080600560009054906101000a900473ffffffffffffffffffffffffffffffffffffffff1673ffffffffffffffffffffffffffffffffffffffff1663d02f735130888888886040518663ffffffff1660e01b8152600401808673ffffffffffffffffffffffffffffffffffffffff1673ffffffffffffffffffffffffffffffffffffffff1681526020018573ffffffffffffffffffffffffffffffffffffffff1673ffffffffffffffffffffffffffffffffffffffff1681526020018473ffffffffffffffffffffffffffffffffffffffff1673ffffffffffffffffffffffffffffffffffffffff1681526020018373ffffffffffffffffffffffffffffffffffffffff1673ffffffffffffffffffffffffffffffffffffffff16815260200182815260200195505050505050602060405180830381600087803b158015614c3f57600080fd5b505af1158015614c53573d6000803e3d6000fd5b505050506040513d6020811015614c6957600080fd5b810190808051906020019092919050505014614ced576040517f08c379a00000000000000000000000000000000000000000000000000000000081526004018080602001828103825260088152602001807f72656a656374656400000000000000000000000000000000000000000000000081525060200191505060405180910390fd5b6000821415614d0a5760006010811115614d0357fe5b9050615096565b8373ffffffffffffffffffffffffffffffffffffffff168373ffffffffffffffffffffffffffffffffffffffff161415614dac576040517f08c379a00000000000000000000000000000000000000000000000000000000081526004018080602001828103825260148152602001807f696e76616c6964206163636f756e74207061697200000000000000000000000081525060200191505060405180910390fd5b614df5600e60008573ffffffffffffffffffffffffffffffffffffffff1673ffffffffffffffffffffffffffffffffffffffff1681526020019081526020016000205483613ac0565b600e60008573ffffffffffffffffffffffffffffffffffffffff1673ffffffffffffffffffffffffffffffffffffffff16815260200190815260200160002081905550614e81600e60008673ffffffffffffffffffffffffffffffffffffffff1673ffffffffffffffffffffffffffffffffffffffff1681526020019081526020016000205483613a76565b600e60008673ffffffffffffffffffffffffffffffffffffffff1673ffffffffffffffffffffffffffffffffffffffff168152602001908152602001600020819055508373ffffffffffffffffffffffffffffffffffffffff168373ffffffffffffffffffffffffffffffffffffffff167fddf252ad1be2c89b69c2b068fc378daa952ba7f163c4a11628f55a4df523b3ef846040518082815260200191505060405180910390a3600560009054906101000a900473ffffffffffffffffffffffffffffffffffffffff1673ffffffffffffffffffffffffffffffffffffffff16636d35bf9130878787876040518663ffffffff1660e01b8152600401808673ffffffffffffffffffffffffffffffffffffffff1673ffffffffffffffffffffffffffffffffffffffff1681526020018573ffffffffffffffffffffffffffffffffffffffff1673ffffffffffffffffffffffffffffffffffffffff1681526020018473ffffffffffffffffffffffffffffffffffffffff1673ffffffffffffffffffffffffffffffffffffffff1681526020018373ffffffffffffffffffffffffffffffffffffffff1673ffffffffffffffffffffffffffffffffffffffff16815260200182815260200195505050505050600060405180830381600087803b15801561506e57600080fd5b505af1158015615082573d6000803e3d6000fd5b505050506000601081111561509357fe5b90505b949350505050565b6000600e60008373ffffffffffffffffffffffffffffffffffffffff1673ffffffffffffffffffffffffffffffffffffffff168152602001908152602001600020549050919050565b60008060009054906101000a900460ff1661516a576040517f08c379a000000000000000000000000000000000000000000000000000000000815260040180806020018281038252600a8152602001807f72652d656e74657265640000000000000000000000000000000000000000000081525060200191505060405180910390fd5b60008060006101000a81548160ff02191690831515021790555061518c6129e6565b50615198338484616bdc565b905060016000806101000a81548160ff02191690831515021790555092915050565b60008060009054906101000a900460ff1661523d576040517f08c379a000000000000000000000000000000000000000000000000000000000815260040180806020018281038252600a8152602001807f72652d656e74657265640000000000000000000000000000000000000000000081525060200191505060405180910390fd5b60008060006101000a81548160ff02191690831515021790555061525f6129e6565b5061526d3384600085615f7c565b905060016000806101000a81548160ff02191690831515021790555092915050565b6000806000809054906101000a900460ff16615313576040517f08c379a000000000000000000000000000000000000000000000000000000000815260040180806020018281038252600a8152602001807f72652d656e74657265640000000000000000000000000000000000000000000081525060200191505060405180910390fd5b60008060006101000a81548160ff0219169083151502179055506153356129e6565b506000601081111561534357fe5b8473ffffffffffffffffffffffffffffffffffffffff1663a6afed956040518163ffffffff1660e01b8152600401602060405180830381600087803b15801561538b57600080fd5b505af115801561539f573d6000803e3d6000fd5b505050506040513d60208110156153b557600080fd5b810190808051906020019092919050505014615439576040517f08c379a00000000000000000000000000000000000000000000000000000000081526004018080602001828103825260168152602001807f61636372756520696e746572657374206661696c65640000000000000000000081525060200191505060405180910390fd5b61544633878787876170e4565b9150915060016000806101000a81548160ff02191690831515021790555094509492505050565b6000600360019054906101000a900473ffffffffffffffffffffffffffffffffffffffff1673ffffffffffffffffffffffffffffffffffffffff163373ffffffffffffffffffffffffffffffffffffffff16146154d7576154d060016032613844565b905061557b565b6154df614724565b600954146154fa576154f3600a6033613844565b905061557b565b670de0b6b3a764000082111561551d5761551660026034613844565b905061557b565b60006008549050826008819055507faaa68312e2ea9d50e16af5068410ab56e1a1fd06037b1a35664812c30f8214608184604051808381526020018281526020019250505060405180910390a16000601081111561557757fe5b9150505b919050565b6000806000600560009054906101000a900473ffffffffffffffffffffffffffffffffffffffff1673ffffffffffffffffffffffffffffffffffffffff166324008a62308989896040518563ffffffff1660e01b8152600401808573ffffffffffffffffffffffffffffffffffffffff1673ffffffffffffffffffffffffffffffffffffffff1681526020018473ffffffffffffffffffffffffffffffffffffffff1673ffffffffffffffffffffffffffffffffffffffff1681526020018373ffffffffffffffffffffffffffffffffffffffff1673ffffffffffffffffffffffffffffffffffffffff168152602001828152602001945050505050602060405180830381600087803b15801561569657600080fd5b505af11580156156aa573d6000803e3d6000fd5b505050506040513d60208110156156c057600080fd5b810190808051906020019092919050505014615744576040517f08c379a00000000000000000000000000000000000000000000000000000000081526004018080602001828103825260088152602001807f72656a656374656400000000000000000000000000000000000000000000000081525060200191505060405180910390fd5b61574c614724565b600954146157c2576040517f08c379a000000000000000000000000000000000000000000000000000000000815260040180806020018281038252600f8152602001807f6d61726b6574206973207374616c65000000000000000000000000000000000081525060200191505060405180910390fd5b6157ca61837c565b601060008773ffffffffffffffffffffffffffffffffffffffff1673ffffffffffffffffffffffffffffffffffffffff1681526020019081526020016000206001015481606001818152505061581f86614697565b8160800181815250507fffffffffffffffffffffffffffffffffffffffffffffffffffffffffffffffff85141561586357806080015181604001818152505061586e565b848160400181815250505b61587d87826040015186617d6d565b8160e001818152505061589881608001518260e00151613ac0565b8160a00181815250506158b1600b548260e00151613ac0565b8160c00181815250508060a00151601060008873ffffffffffffffffffffffffffffffffffffffff1673ffffffffffffffffffffffffffffffffffffffff16815260200190815260200160002060000181905550600a54601060008873ffffffffffffffffffffffffffffffffffffffff1673ffffffffffffffffffffffffffffffffffffffff168152602001908152602001600020600101819055508060c00151600b819055507f1a2a22cb034d26d1854bdc6666a5b91fe25efbbb5dcad3b0355478d6f5c362a187878360e001518460a001518560c00151604051808673ffffffffffffffffffffffffffffffffffffffff1673ffffffffffffffffffffffffffffffffffffffff1681526020018573ffffffffffffffffffffffffffffffffffffffff1673ffffffffffffffffffffffffffffffffffffffff1681526020018481526020018381526020018281526020019550505050505060405180910390a1600560009054906101000a900473ffffffffffffffffffffffffffffffffffffffff1673ffffffffffffffffffffffffffffffffffffffff16631ededc913089898560e0015186606001516040518663ffffffff1660e01b8152600401808673ffffffffffffffffffffffffffffffffffffffff1673ffffffffffffffffffffffffffffffffffffffff1681526020018573ffffffffffffffffffffffffffffffffffffffff1673ffffffffffffffffffffffffffffffffffffffff1681526020018473ffffffffffffffffffffffffffffffffffffffff1673ffffffffffffffffffffffffffffffffffffffff16815260200183815260200182815260200195505050505050600060405180830381600087803b158015615b3557600080fd5b505af1158015615b49573d6000803e3d6000fd5b5050505060006010811115615b5a57fe5b8160e00151925092505094509492505050565b6000808385019050848110158390615c20576040517f08c379a00000000000000000000000000000000000000000000000000000000081526004018080602001828103825283818151815260200191508051906020019080838360005b83811015615be5578082015181840152602081019050615bca565b50505050905090810190601f168015615c125780820380516001836020036101000a031916815260200191505b509250505060405180910390fd5b50809150509392505050565b6000838311158290615cd9576040517f08c379a00000000000000000000000000000000000000000000000000000000081526004018080602001828103825283818151815260200191508051906020019080838360005b83811015615c9e578082015181840152602081019050615c83565b50505050905090810190601f168015615ccb5780820380516001836020036101000a031916815260200191505b509250505060405180910390fd5b5082840390509392505050565b6000615d07615cfd84670de0b6b3a7640000616611565b836000015161665b565b905092915050565b6000670de0b6b3a7640000826000015181615d2657fe5b049050919050565b600080600080615d3c614724565b60095414615d5c57615d50600a6038613844565b81935093505050615e06565b615d67338787617d6d565b9050615d75600c5482613a76565b915081600c819055507fa91e67c5ea634cd43a12c5a482724b03de01e85ca68702a53d0c2f45cb7c1dc5338284604051808473ffffffffffffffffffffffffffffffffffffffff1673ffffffffffffffffffffffffffffffffffffffff168152602001838152602001828152602001935050505060405180910390a160006010811115615dfe57fe5b819350935050505b9250929050565b6000601260009054906101000a900473ffffffffffffffffffffffffffffffffffffffff1690508073ffffffffffffffffffffffffffffffffffffffff1663a9059cbb85856040518363ffffffff1660e01b8152600401808373ffffffffffffffffffffffffffffffffffffffff1673ffffffffffffffffffffffffffffffffffffffff16815260200182815260200192505050600060405180830381600087803b158015615ebb57600080fd5b505af1158015615ecf573d6000803e3d6000fd5b5050505060003d60008114615eeb5760208114615ef557600080fd5b6000199150615f01565b60206000803e60005191505b5080615f75576040517f08c379a000000000000000000000000000000000000000000000000000000000815260040180806020018281038252600f8152602001807f7472616e73666572206661696c6564000000000000000000000000000000000081525060200191505060405180910390fd5b5050505050565b600080841480615f8c5750600083145b615ffe576040517f08c379a00000000000000000000000000000000000000000000000000000000081526004018080602001828103825260098152602001807f62616420696e707574000000000000000000000000000000000000000000000081525060200191505060405180910390fd5b6160066183d7565b61600e613b0a565b816000018181525050600085111561605457848160200181815250506160466040518060200160405280836000015181525086614302565b816040018181525050616084565b61607084604051806020016040528084600001518152506180dd565b816020018181525050838160400181815250505b6000600560009054906101000a900473ffffffffffffffffffffffffffffffffffffffff1673ffffffffffffffffffffffffffffffffffffffff1663eabe7d91308985602001516040518463ffffffff1660e01b8152600401808473ffffffffffffffffffffffffffffffffffffffff1673ffffffffffffffffffffffffffffffffffffffff1681526020018373ffffffffffffffffffffffffffffffffffffffff1673ffffffffffffffffffffffffffffffffffffffff1681526020018281526020019350505050602060405180830381600087803b15801561616757600080fd5b505af115801561617b573d6000803e3d6000fd5b505050506040513d602081101561619157600080fd5b810190808051906020019092919050505014616215576040517f08c379a00000000000000000000000000000000000000000000000000000000081526004018080602001828103825260088152602001807f72656a656374656400000000000000000000000000000000000000000000000081525060200191505060405180910390fd5b6000851480156162255750600084145b1561623f576000601081111561623757fe5b915050616609565b616247614724565b600954146162bd576040517f08c379a000000000000000000000000000000000000000000000000000000000815260040180806020018281038252600f8152602001807f6d61726b6574206973207374616c65000000000000000000000000000000000081525060200191505060405180910390fd5b6162cd600d548260200151613ac0565b816060018181525050616323600e60008873ffffffffffffffffffffffffffffffffffffffff1673ffffffffffffffffffffffffffffffffffffffff168152602001908152602001600020548260200151613ac0565b8160800181815250508060400151616339613990565b10156163ad576040517f08c379a00000000000000000000000000000000000000000000000000000000081526004018080602001828103825260118152602001807f696e73756666696369656e74206361736800000000000000000000000000000081525060200191505060405180910390fd5b8060600151600d819055508060800151600e60008873ffffffffffffffffffffffffffffffffffffffff1673ffffffffffffffffffffffffffffffffffffffff1681526020019081526020016000208190555061640f86826040015185615e0d565b3073ffffffffffffffffffffffffffffffffffffffff168673ffffffffffffffffffffffffffffffffffffffff167fddf252ad1be2c89b69c2b068fc378daa952ba7f163c4a11628f55a4df523b3ef83602001516040518082815260200191505060405180910390a37fe5b754fb1abb7f01b499791d0b820ae3b6af3424ac1c59768edb53f4ec31a9298682604001518360200151604051808473ffffffffffffffffffffffffffffffffffffffff1673ffffffffffffffffffffffffffffffffffffffff168152602001838152602001828152602001935050505060405180910390a1600560009054906101000a900473ffffffffffffffffffffffffffffffffffffffff1673ffffffffffffffffffffffffffffffffffffffff166351dff9893088846040015185602001516040518563ffffffff1660e01b8152600401808573ffffffffffffffffffffffffffffffffffffffff1673ffffffffffffffffffffffffffffffffffffffff1681526020018473ffffffffffffffffffffffffffffffffffffffff1673ffffffffffffffffffffffffffffffffffffffff168152602001838152602001828152602001945050505050600060405180830381600087803b1580156165e057600080fd5b505af11580156165f4573d6000803e3d6000fd5b505050506000601081111561660557fe5b9150505b949350505050565b600061665383836040518060400160405280601781526020017f6d756c7469706c69636174696f6e206f766572666c6f77000000000000000000815250618105565b905092915050565b600061669d83836040518060400160405280600e81526020017f646976696465206279207a65726f0000000000000000000000000000000000008152506181ea565b905092915050565b6000806000600560009054906101000a900473ffffffffffffffffffffffffffffffffffffffff1673ffffffffffffffffffffffffffffffffffffffff16634ef4c3e13088886040518463ffffffff1660e01b8152600401808473ffffffffffffffffffffffffffffffffffffffff1673ffffffffffffffffffffffffffffffffffffffff1681526020018373ffffffffffffffffffffffffffffffffffffffff1673ffffffffffffffffffffffffffffffffffffffff1681526020018281526020019350505050602060405180830381600087803b15801561678757600080fd5b505af115801561679b573d6000803e3d6000fd5b505050506040513d60208110156167b157600080fd5b810190808051906020019092919050505014616835576040517f08c379a00000000000000000000000000000000000000000000000000000000081526004018080602001828103825260088152602001807f72656a656374656400000000000000000000000000000000000000000000000081525060200191505060405180910390fd5b6000841415616859576000601081111561684b57fe5b600080905091509150616bd4565b616861614724565b600954146168d7576040517f08c379a000000000000000000000000000000000000000000000000000000000815260040180806020018281038252600f8152602001807f6d61726b6574206973207374616c65000000000000000000000000000000000081525060200191505060405180910390fd5b6168df618406565b6168e7613b0a565b8160000181815250506168fb868686617d6d565b8160400181815250506169248160400151604051806020016040528084600001518152506180dd565b81602001818152505061693d600d548260200151613a76565b600d81905550616990600e60008873ffffffffffffffffffffffffffffffffffffffff1673ffffffffffffffffffffffffffffffffffffffff168152602001908152602001600020548260200151613a76565b600e60008873ffffffffffffffffffffffffffffffffffffffff1673ffffffffffffffffffffffffffffffffffffffff168152602001908152602001600020819055507f4c209b5fc8ad50758f13e2e1088ba56a560dff690a1c6fef26394f4c03821c4f8682604001518360200151604051808473ffffffffffffffffffffffffffffffffffffffff1673ffffffffffffffffffffffffffffffffffffffff168152602001838152602001828152602001935050505060405180910390a18573ffffffffffffffffffffffffffffffffffffffff163073ffffffffffffffffffffffffffffffffffffffff167fddf252ad1be2c89b69c2b068fc378daa952ba7f163c4a11628f55a4df523b3ef83602001516040518082815260200191505060405180910390a3600560009054906101000a900473ffffffffffffffffffffffffffffffffffffffff1673ffffffffffffffffffffffffffffffffffffffff166341c728b93088846040015185602001516040518563ffffffff1660e01b8152600401808573ffffffffffffffffffffffffffffffffffffffff1673ffffffffffffffffffffffffffffffffffffffff1681526020018473ffffffffffffffffffffffffffffffffffffffff1673ffffffffffffffffffffffffffffffffffffffff168152602001838152602001828152602001945050505050600060405180830381600087803b158015616ba457600080fd5b505af1158015616bb8573d6000803e3d6000fd5b5050505060006010811115616bc957fe5b816040015192509250505b935093915050565b600080600560009054906101000a900473ffffffffffffffffffffffffffffffffffffffff1673ffffffffffffffffffffffffffffffffffffffff1663da3d454c3087876040518463ffffffff1660e01b8152600401808473ffffffffffffffffffffffffffffffffffffffff1673ffffffffffffffffffffffffffffffffffffffff1681526020018373ffffffffffffffffffffffffffffffffffffffff1673ffffffffffffffffffffffffffffffffffffffff1681526020018281526020019350505050602060405180830381600087803b158015616cbc57600080fd5b505af1158015616cd0573d6000803e3d6000fd5b505050506040513d6020811015616ce657600080fd5b810190808051906020019092919050505014616d6a576040517f08c379a00000000000000000000000000000000000000000000000000000000081526004018080602001828103825260088152602001807f72656a656374656400000000000000000000000000000000000000000000000081525060200191505060405180910390fd5b616d72614724565b60095414616de8576040517f08c379a000000000000000000000000000000000000000000000000000000000815260040180806020018281038252600f8152602001807f6d61726b6574206973207374616c65000000000000000000000000000000000081525060200191505060405180910390fd5b82616df1613990565b1015616e65576040517f08c379a00000000000000000000000000000000000000000000000000000000081526004018080602001828103825260118152602001807f696e73756666696369656e74206361736800000000000000000000000000000081525060200191505060405180910390fd5b616e6d618427565b616e7685614697565b816020018181525050616e8d816020015185613a76565b816040018181525050616ea2600b5485613a76565b8160600181815250508060400151601060008773ffffffffffffffffffffffffffffffffffffffff1673ffffffffffffffffffffffffffffffffffffffff16815260200190815260200160002060000181905550600a54601060008773ffffffffffffffffffffffffffffffffffffffff1673ffffffffffffffffffffffffffffffffffffffff168152602001908152602001600020600101819055508060600151600b81905550616f55858585615e0d565b7f13ed6866d4e1ee6da46f845c46d7e54120883d75c5ea9a2dacc1c4ca8984ab80858583604001518460600151604051808573ffffffffffffffffffffffffffffffffffffffff1673ffffffffffffffffffffffffffffffffffffffff16815260200184815260200183815260200182815260200194505050505060405180910390a1600560009054906101000a900473ffffffffffffffffffffffffffffffffffffffff1673ffffffffffffffffffffffffffffffffffffffff16635c7786053087876040518463ffffffff1660e01b8152600401808473ffffffffffffffffffffffffffffffffffffffff1673ffffffffffffffffffffffffffffffffffffffff1681526020018373ffffffffffffffffffffffffffffffffffffffff1673ffffffffffffffffffffffffffffffffffffffff1681526020018281526020019350505050600060405180830381600087803b1580156170b557600080fd5b505af11580156170c9573d6000803e3d6000fd5b50505050600060108111156170da57fe5b9150509392505050565b6000806000600560009054906101000a900473ffffffffffffffffffffffffffffffffffffffff1673ffffffffffffffffffffffffffffffffffffffff16635fc7e71e30878b8b8b6040518663ffffffff1660e01b8152600401808673ffffffffffffffffffffffffffffffffffffffff1673ffffffffffffffffffffffffffffffffffffffff1681526020018573ffffffffffffffffffffffffffffffffffffffff1673ffffffffffffffffffffffffffffffffffffffff1681526020018473ffffffffffffffffffffffffffffffffffffffff1673ffffffffffffffffffffffffffffffffffffffff1681526020018373ffffffffffffffffffffffffffffffffffffffff1673ffffffffffffffffffffffffffffffffffffffff16815260200182815260200195505050505050602060405180830381600087803b15801561722e57600080fd5b505af1158015617242573d6000803e3d6000fd5b505050506040513d602081101561725857600080fd5b8101908080519060200190929190505050146172dc576040517f08c379a00000000000000000000000000000000000000000000000000000000081526004018080602001828103825260088152602001807f72656a656374656400000000000000000000000000000000000000000000000081525060200191505060405180910390fd5b6172e4614724565b6009541461735a576040517f08c379a000000000000000000000000000000000000000000000000000000000815260040180806020018281038252600f8152602001807f6d61726b6574206973207374616c65000000000000000000000000000000000081525060200191505060405180910390fd5b617362614724565b8473ffffffffffffffffffffffffffffffffffffffff1663cfa992016040518163ffffffff1660e01b815260040160206040518083038186803b1580156173a857600080fd5b505afa1580156173bc573d6000803e3d6000fd5b505050506040513d60208110156173d257600080fd5b810190808051906020019092919050505014617456576040517f08c379a000000000000000000000000000000000000000000000000000000000815260040180806020018281038252600f8152602001807f6d61726b6574206973207374616c65000000000000000000000000000000000081525060200191505060405180910390fd5b8673ffffffffffffffffffffffffffffffffffffffff168673ffffffffffffffffffffffffffffffffffffffff1614156174f8576040517f08c379a00000000000000000000000000000000000000000000000000000000081526004018080602001828103825260148152602001807f696e76616c6964206163636f756e74207061697200000000000000000000000081525060200191505060405180910390fd5b60008511801561752857507fffffffffffffffffffffffffffffffffffffffffffffffffffffffffffffffff8514155b61759a576040517f08c379a000000000000000000000000000000000000000000000000000000000815260040180806020018281038252600e8152602001807f696e76616c696420616d6f756e7400000000000000000000000000000000000081525060200191505060405180910390fd5b6175a261845a565b6175ae88888887615580565b826000018360200182815250828152505050600060108111156175cd57fe5b816000015114617645576040517f08c379a00000000000000000000000000000000000000000000000000000000081526004018080602001828103825260138152602001807f726570617920626f72726f77206661696c65640000000000000000000000000081525060200191505060405180910390fd5b600560009054906101000a900473ffffffffffffffffffffffffffffffffffffffff1673ffffffffffffffffffffffffffffffffffffffff1663c488847b308784602001516040518463ffffffff1660e01b8152600401808473ffffffffffffffffffffffffffffffffffffffff1673ffffffffffffffffffffffffffffffffffffffff1681526020018373ffffffffffffffffffffffffffffffffffffffff1673ffffffffffffffffffffffffffffffffffffffff1681526020018281526020019350505050604080518083038186803b15801561772357600080fd5b505afa158015617737573d6000803e3d6000fd5b505050506040513d604081101561774d57600080fd5b8101908080519060200190929190805190602001909291905050508260400183606001828152508281525050506000601081111561778757fe5b8160400151146177ff576040517f08c379a000000000000000000000000000000000000000000000000000000000815260040180806020018281038252601d8152602001807f63616c63756c617465207365697a6520616d6f756e74206661696c656400000081525060200191505060405180910390fd5b80606001518573ffffffffffffffffffffffffffffffffffffffff166370a08231896040518263ffffffff1660e01b8152600401808273ffffffffffffffffffffffffffffffffffffffff1673ffffffffffffffffffffffffffffffffffffffff16815260200191505060206040518083038186803b15801561788157600080fd5b505afa158015617895573d6000803e3d6000fd5b505050506040513d60208110156178ab57600080fd5b81019080805190602001909291905050501015617930576040517f08c379a000000000000000000000000000000000000000000000000000000000815260040180806020018281038252600e8152602001807f7365697a6520746f6f206d75636800000000000000000000000000000000000081525060200191505060405180910390fd5b60003073ffffffffffffffffffffffffffffffffffffffff168673ffffffffffffffffffffffffffffffffffffffff16141561797d57617976308a8a8560600151614af7565b9050617a7a565b8573ffffffffffffffffffffffffffffffffffffffff1663b2a02ff18a8a85606001516040518463ffffffff1660e01b8152600401808473ffffffffffffffffffffffffffffffffffffffff1673ffffffffffffffffffffffffffffffffffffffff1681526020018373ffffffffffffffffffffffffffffffffffffffff1673ffffffffffffffffffffffffffffffffffffffff1681526020018281526020019350505050602060405180830381600087803b158015617a3c57600080fd5b505af1158015617a50573d6000803e3d6000fd5b505050506040513d6020811015617a6657600080fd5b810190808051906020019092919050505090505b60006010811115617a8757fe5b8114617afb576040517f08c379a00000000000000000000000000000000000000000000000000000000081526004018080602001828103825260148152602001807f746f6b656e207365697a757265206661696c656400000000000000000000000081525060200191505060405180910390fd5b7f298637f684da70674f26509b10f07ec2fbc77a335ab1e7d6215a4b2484d8bb5289898460200151898660600151604051808673ffffffffffffffffffffffffffffffffffffffff1673ffffffffffffffffffffffffffffffffffffffff1681526020018573ffffffffffffffffffffffffffffffffffffffff1673ffffffffffffffffffffffffffffffffffffffff1681526020018481526020018373ffffffffffffffffffffffffffffffffffffffff1673ffffffffffffffffffffffffffffffffffffffff1681526020018281526020019550505050505060405180910390a1600560009054906101000a900473ffffffffffffffffffffffffffffffffffffffff1673ffffffffffffffffffffffffffffffffffffffff166347ef3b3b30888c8c876020015188606001516040518763ffffffff1660e01b8152600401808773ffffffffffffffffffffffffffffffffffffffff1673ffffffffffffffffffffffffffffffffffffffff1681526020018673ffffffffffffffffffffffffffffffffffffffff1673ffffffffffffffffffffffffffffffffffffffff1681526020018573ffffffffffffffffffffffffffffffffffffffff1673ffffffffffffffffffffffffffffffffffffffff1681526020018473ffffffffffffffffffffffffffffffffffffffff1673ffffffffffffffffffffffffffffffffffffffff1681526020018381526020018281526020019650505050505050600060405180830381600087803b158015617d3357600080fd5b505af1158015617d47573d6000803e3d6000fd5b5050505060006010811115617d5857fe5b82602001519350935050509550959350505050565b600080601260009054906101000a900473ffffffffffffffffffffffffffffffffffffffff1690506000601260009054906101000a900473ffffffffffffffffffffffffffffffffffffffff1673ffffffffffffffffffffffffffffffffffffffff166370a08231306040518263ffffffff1660e01b8152600401808273ffffffffffffffffffffffffffffffffffffffff1673ffffffffffffffffffffffffffffffffffffffff16815260200191505060206040518083038186803b158015617e3657600080fd5b505afa158015617e4a573d6000803e3d6000fd5b505050506040513d6020811015617e6057600080fd5b810190808051906020019092919050505090508173ffffffffffffffffffffffffffffffffffffffff166323b872dd8730886040518463ffffffff1660e01b8152600401808473ffffffffffffffffffffffffffffffffffffffff1673ffffffffffffffffffffffffffffffffffffffff1681526020018373ffffffffffffffffffffffffffffffffffffffff1673ffffffffffffffffffffffffffffffffffffffff1681526020018281526020019350505050600060405180830381600087803b158015617f2e57600080fd5b505af1158015617f42573d6000803e3d6000fd5b5050505060003d60008114617f5e5760208114617f6857600080fd5b6000199150617f74565b60206000803e60005191505b5080617fe8576040517f08c379a000000000000000000000000000000000000000000000000000000000815260040180806020018281038252600f8152602001807f7472616e73666572206661696c6564000000000000000000000000000000000081525060200191505060405180910390fd5b6000601260009054906101000a900473ffffffffffffffffffffffffffffffffffffffff1673ffffffffffffffffffffffffffffffffffffffff166370a08231306040518263ffffffff1660e01b8152600401808273ffffffffffffffffffffffffffffffffffffffff1673ffffffffffffffffffffffffffffffffffffffff16815260200191505060206040518083038186803b15801561808957600080fd5b505afa15801561809d573d6000803e3d6000fd5b505050506040513d60208110156180b357600080fd5b810190808051906020019092919050505090506180d08184613ac0565b9450505050509392505050565b60006180e76182e9565b6180f184846182aa565b90506180fc81615d0f565b91505092915050565b6000808414806181155750600083145b1561812357600090506181e3565b600083850290508385828161813457fe5b041483906181dd576040517f08c379a00000000000000000000000000000000000000000000000000000000081526004018080602001828103825283818151815260200191508051906020019080838360005b838110156181a2578082015181840152602081019050618187565b50505050905090810190601f1680156181cf5780820380516001836020036101000a031916815260200191505b509250505060405180910390fd5b50809150505b9392505050565b60008083118290618296576040517f08c379a00000000000000000000000000000000000000000000000000000000081526004018080602001828103825283818151815260200191508051906020019080838360005b8381101561825b578082015181840152602081019050618240565b50505050905090810190601f1680156182885780820380516001836020036101000a031916815260200191505b509250505060405180910390fd5b508284816182a057fe5b0490509392505050565b6182b26182e9565b60006182c6670de0b6b3a764000085616611565b905060405180602001604052806182dd8386615ce6565b81525091505092915050565b6040518060200160405280600081525090565b828054600181600116156101000203166002900490600052602060002090601f016020900481019282601f1061833d57805160ff191683800117855561836b565b8280016001018555821561836b579182015b8281111561836a57825182559160200191906001019061834f565b5b5090506183789190618482565b5090565b6040518061010001604052806000601081111561839557fe5b8152602001600060038111156183a757fe5b81526020016000815260200160008152602001600081526020016000815260200160008152602001600081525090565b6040518060a0016040528060008152602001600081526020016000815260200160008152602001600081525090565b60405180606001604052806000815260200160008152602001600081525090565b60405180608001604052806000600381111561843f57fe5b81526020016000815260200160008152602001600081525090565b6040518060800160405280600081526020016000815260200160008152602001600081525090565b6184a491905b808211156184a0576000816000905550600101618488565b5090565b9056fea265627a7a72315820d5fe9214843eb07ce7a7491245ede6d469933ca66308af309d1eb0df488d44bc64736f6c63430005100032","linkReferences":{}},"methodIdentifiers":{"_acceptAdmin()":"e9c714f2","_addReserves(uint256)":"3e941010","_reduceReserves(uint256)":"601a0bf1","_setComptroller(address)":"4576b5db","_setInterestRateModel(address)":"f2b3abbd","_setPendingAdmin(address)":"b71d1a0c","_setReserveFactor(uint256)":"fca7820b","_setSoftVault(address)":"05860d58","accrualBlockTimestamp()":"cfa99201","accrueInterest()":"a6afed95","admin()":"f851a440","allowance(address,address)":"dd62ed3e","approve(address,uint256)":"095ea7b3","balanceOf(address)":"70a08231","balanceOfUnderlying(address)":"3af9e669","borrow(uint256)":"c5ebeaec","borrowBalanceCurrent(address)":"17bfdfbc","borrowBalanceStored(address)":"95dd9193","borrowIndex()":"aa5af0fd","borrowRatePerSecond()":"52609750","comptroller()":"5fe3b567","decimals()":"313ce567","estimateBorrowRatePerSecondAfterChange(uint256,bool)":"0f3e4e11","estimateSupplyRatePerSecondAfterChange(uint256,bool)":"50f6e082","exchangeRateCurrent()":"bd6d894d","exchangeRateStored()":"182df0f5","getAccountSnapshot(address)":"c37f68e2","getCash()":"3b1d21a2","implementation()":"5c60da1b","initialize(address,address,address,uint256,string,string,uint8)":"1a31d465","initialize(address,address,uint256,string,string,uint8)":"99d8c1b4","interestRateModel()":"f3fdb15a","isBToken()":"fbb62337","liquidateBorrow(address,uint256,address)":"f5e3c462","mint(uint256)":"a0712d68","name()":"06fdde03","pendingAdmin()":"26782247","redeem(uint256)":"db006a75","redeemUnderlying(uint256)":"852a12e3","repayBorrow(uint256)":"0e752702","repayBorrowBehalf(address,uint256)":"2608f818","reserveFactorMantissa()":"173b9904","seize(address,address,uint256)":"b2a02ff1","softVault()":"b5186345","supplyRatePerSecond()":"b1d38974","symbol()":"95d89b41","totalBorrows()":"47bd3718","totalBorrowsCurrent()":"73acee98","totalReserves()":"8f840ddd","totalSupply()":"18160ddd","transfer(address,uint256)":"a9059cbb","transferFrom(address,address,uint256)":"23b872dd","underlying()":"6f307dc3"},"id":0}