{"abi":[{"type":"function","name":"accountCollateralTokens","inputs":[{"name":"","type":"address","internalType":"address"}],"outputs":[{"name":"","type":"uint256","internalType":"uint256"}],"stateMutability":"view"},{"type":"function","name":"collateralCap","inputs":[],"outputs":[{"name":"","type":"uint256","internalType":"uint256"}],"stateMutability":"view"},{"type":"function","name":"isCollateralTokenInit","inputs":[{"name":"","type":"address","internalType":"address"}],"outputs":[{"name":"","type":"bool","internalType":"bool"}],"stateMutability":"view"},{"type":"function","name":"totalCollateralTokens","inputs":[],"outputs":[{"name":"","type":"uint256","internalType":"uint256"}],"stateMutability":"view"}],"bytecode":{"object":"0x608060405234801561001057600080fd5b506101ba806100206000396000f3fe608060405234801561001057600080fd5b506004361061004c5760003560e01c806319a4dd3c1461005157806385d8a2e61461006f578063d240d64a146100cb578063d2bb18e914610123575b600080fd5b610059610141565b6040518082815260200191505060405180910390f35b6100b16004803603602081101561008557600080fd5b81019080803573ffffffffffffffffffffffffffffffffffffffff169060200190929190505050610147565b604051808215151515815260200191505060405180910390f35b61010d600480360360208110156100e157600080fd5b81019080803573ffffffffffffffffffffffffffffffffffffffff169060200190929190505050610167565b6040518082815260200191505060405180910390f35b61012b61017f565b6040518082815260200191505060405180910390f35b60005481565b60026020528060005260406000206000915054906101000a900460ff1681565b60016020528060005260406000206000915090505481565b6003548156fea265627a7a72315820729be83b575a42c313b90fdf2c975e09e63029bf5e9d2299c1f37d29bcadac6e64736f6c63430005100032","linkReferences":{}},"methodIdentifiers":{"accountCollateralTokens(address)":"d240d64a","collateralCap()":"d2bb18e9","isCollateralTokenInit(address)":"85d8a2e6","totalCollateralTokens()":"19a4dd3c"},"id":2}