{"abi":[{"type":"constructor","inputs":[],"stateMutability":"nonpayable"},{"type":"function","name":"_become","inputs":[{"name":"unitroller","type":"address","internalType":"contract Unitroller"}],"outputs":[],"stateMutability":"nonpayable"},{"type":"function","name":"_borrowGuardianPaused","inputs":[],"outputs":[{"name":"","type":"bool","internalType":"bool"}],"stateMutability":"view"},{"type":"function","name":"_delistMarket","inputs":[{"name":"bToken","type":"address","internalType":"contract BToken"},{"name":"force","type":"bool","internalType":"bool"}],"outputs":[],"stateMutability":"nonpayable"},{"type":"function","name":"_mintGuardianPaused","inputs":[],"outputs":[{"name":"","type":"bool","internalType":"bool"}],"stateMutability":"view"},{"type":"function","name":"_pauseCreditLimit","inputs":[{"name":"protocol","type":"address","internalType":"address"},{"name":"market","type":"address","internalType":"address"}],"outputs":[],"stateMutability":"nonpayable"},{"type":"function","name":"_setBorrowPaused","inputs":[{"name":"bToken","type":"address","internalType":"contract BToken"},{"name":"state","type":"bool","internalType":"bool"}],"outputs":[{"name":"","type":"bool","internalType":"bool"}],"stateMutability":"nonpayable"},{"type":"function","name":"_setCloseFactor","inputs":[{"name":"newCloseFactorMantissa","type":"uint256","internalType":"uint256"}],"outputs":[{"name":"","type":"uint256","internalType":"uint256"}],"stateMutability":"nonpayable"},{"type":"function","name":"_setCollateralFactor","inputs":[{"name":"bToken","type":"address","internalType":"contract BToken"},{"name":"newCollateralFactorMantissa","type":"uint256","internalType":"uint256"}],"outputs":[{"name":"","type":"uint256","internalType":"uint256"}],"stateMutability":"nonpayable"},{"type":"function","name":"_setCreditLimit","inputs":[{"name":"protocol","type":"address","internalType":"address"},{"name":"market","type":"address","internalType":"address"},{"name":"creditLimit","type":"uint256","internalType":"uint256"}],"outputs":[],"stateMutability":"nonpayable"},{"type":"function","name":"_setCreditLimitManager","inputs":[{"name":"newCreditLimitManager","type":"address","internalType":"address"}],"outputs":[],"stateMutability":"nonpayable"},{"type":"function","name":"_setFlashloanPaused","inputs":[{"name":"bToken","type":"address","internalType":"contract BToken"},{"name":"state","type":"bool","internalType":"bool"}],"outputs":[{"name":"","type":"bool","internalType":"bool"}],"stateMutability":"nonpayable"},{"type":"function","name":"_setGuardian","inputs":[{"name":"newGuardian","type":"address","internalType":"address"}],"outputs":[{"name":"","type":"uint256","internalType":"uint256"}],"stateMutability":"nonpayable"},{"type":"function","name":"_setLiquidationIncentive","inputs":[{"name":"newLiquidationIncentiveMantissa","type":"uint256","internalType":"uint256"}],"outputs":[{"name":"","type":"uint256","internalType":"uint256"}],"stateMutability":"nonpayable"},{"type":"function","name":"_setLiquidityMining","inputs":[{"name":"newLiquidityMining","type":"address","internalType":"address"}],"outputs":[],"stateMutability":"nonpayable"},{"type":"function","name":"_setMarketBorrowCaps","inputs":[{"name":"bTokens","type":"address[]","internalType":"contract BToken[]"},{"name":"newBorrowCaps","type":"uint256[]","internalType":"uint256[]"}],"outputs":[],"stateMutability":"nonpayable"},{"type":"function","name":"_setMarketSupplyCaps","inputs":[{"name":"bTokens","type":"address[]","internalType":"contract BToken[]"},{"name":"newSupplyCaps","type":"uint256[]","internalType":"uint256[]"}],"outputs":[],"stateMutability":"nonpayable"},{"type":"function","name":"_setMintPaused","inputs":[{"name":"bToken","type":"address","internalType":"contract BToken"},{"name":"state","type":"bool","internalType":"bool"}],"outputs":[{"name":"","type":"bool","internalType":"bool"}],"stateMutability":"nonpayable"},{"type":"function","name":"_setPriceOracle","inputs":[{"name":"newOracle","type":"address","internalType":"contract PriceOracle"}],"outputs":[{"name":"","type":"uint256","internalType":"uint256"}],"stateMutability":"nonpayable"},{"type":"function","name":"_setSeizePaused","inputs":[{"name":"state","type":"bool","internalType":"bool"}],"outputs":[{"name":"","type":"bool","internalType":"bool"}],"stateMutability":"nonpayable"},{"type":"function","name":"_setTransferPaused","inputs":[{"name":"state","type":"bool","internalType":"bool"}],"outputs":[{"name":"","type":"bool","internalType":"bool"}],"stateMutability":"nonpayable"},{"type":"function","name":"_supportMarket","inputs":[{"name":"bToken","type":"address","internalType":"contract BToken"},{"name":"version","type":"uint8","internalType":"enum ComptrollerV1Storage.Version"}],"outputs":[{"name":"","type":"uint256","internalType":"uint256"}],"stateMutability":"nonpayable"},{"type":"function","name":"accountAssets","inputs":[{"name":"","type":"address","internalType":"address"},{"name":"","type":"uint256","internalType":"uint256"}],"outputs":[{"name":"","type":"address","internalType":"contract BToken"}],"stateMutability":"view"},{"type":"function","name":"admin","inputs":[],"outputs":[{"name":"","type":"address","internalType":"address"}],"stateMutability":"view"},{"type":"function","name":"allMarkets","inputs":[{"name":"","type":"uint256","internalType":"uint256"}],"outputs":[{"name":"","type":"address","internalType":"contract BToken"}],"stateMutability":"view"},{"type":"function","name":"borrowAllowed","inputs":[{"name":"bToken","type":"address","internalType":"address"},{"name":"borrower","type":"address","internalType":"address"},{"name":"borrowAmount","type":"uint256","internalType":"uint256"}],"outputs":[{"name":"","type":"uint256","internalType":"uint256"}],"stateMutability":"nonpayable"},{"type":"function","name":"borrowCapGuardian","inputs":[],"outputs":[{"name":"","type":"address","internalType":"address"}],"stateMutability":"view"},{"type":"function","name":"borrowCaps","inputs":[{"name":"","type":"address","internalType":"address"}],"outputs":[{"name":"","type":"uint256","internalType":"uint256"}],"stateMutability":"view"},{"type":"function","name":"borrowGuardianPaused","inputs":[{"name":"","type":"address","internalType":"address"}],"outputs":[{"name":"","type":"bool","internalType":"bool"}],"stateMutability":"view"},{"type":"function","name":"borrowVerify","inputs":[{"name":"bToken","type":"address","internalType":"address"},{"name":"borrower","type":"address","internalType":"address"},{"name":"borrowAmount","type":"uint256","internalType":"uint256"}],"outputs":[],"stateMutability":"nonpayable"},{"type":"function","name":"checkMembership","inputs":[{"name":"account","type":"address","internalType":"address"},{"name":"bToken","type":"address","internalType":"contract BToken"}],"outputs":[{"name":"","type":"bool","internalType":"bool"}],"stateMutability":"view"},{"type":"function","name":"closeFactorMantissa","inputs":[],"outputs":[{"name":"","type":"uint256","internalType":"uint256"}],"stateMutability":"view"},{"type":"function","name":"compAccrued","inputs":[{"name":"","type":"address","internalType":"address"}],"outputs":[{"name":"","type":"uint256","internalType":"uint256"}],"stateMutability":"view"},{"type":"function","name":"compBorrowState","inputs":[{"name":"","type":"address","internalType":"address"}],"outputs":[{"name":"index","type":"uint224","internalType":"uint224"},{"name":"block","type":"uint32","internalType":"uint32"}],"stateMutability":"view"},{"type":"function","name":"compBorrowerIndex","inputs":[{"name":"","type":"address","internalType":"address"},{"name":"","type":"address","internalType":"address"}],"outputs":[{"name":"","type":"uint256","internalType":"uint256"}],"stateMutability":"view"},{"type":"function","name":"compSpeeds","inputs":[{"name":"","type":"address","internalType":"address"}],"outputs":[{"name":"","type":"uint256","internalType":"uint256"}],"stateMutability":"view"},{"type":"function","name":"compSupplierIndex","inputs":[{"name":"","type":"address","internalType":"address"},{"name":"","type":"address","internalType":"address"}],"outputs":[{"name":"","type":"uint256","internalType":"uint256"}],"stateMutability":"view"},{"type":"function","name":"compSupplyState","inputs":[{"name":"","type":"address","internalType":"address"}],"outputs":[{"name":"index","type":"uint224","internalType":"uint224"},{"name":"block","type":"uint32","internalType":"uint32"}],"stateMutability":"view"},{"type":"function","name":"comptrollerImplementation","inputs":[],"outputs":[{"name":"","type":"address","internalType":"address"}],"stateMutability":"view"},{"type":"function","name":"creditLimitManager","inputs":[],"outputs":[{"name":"","type":"address","internalType":"address"}],"stateMutability":"view"},{"type":"function","name":"creditLimits","inputs":[{"name":"protocol","type":"address","internalType":"address"},{"name":"market","type":"address","internalType":"address"}],"outputs":[{"name":"","type":"uint256","internalType":"uint256"}],"stateMutability":"view"},{"type":"function","name":"creditLimits","inputs":[{"name":"protocol","type":"address","internalType":"address"}],"outputs":[{"name":"","type":"uint256","internalType":"uint256"}],"stateMutability":"view"},{"type":"function","name":"enterMarkets","inputs":[{"name":"bTokens","type":"address[]","internalType":"address[]"}],"outputs":[{"name":"","type":"uint256[]","internalType":"uint256[]"}],"stateMutability":"nonpayable"},{"type":"function","name":"exitMarket","inputs":[{"name":"bTokenAddress","type":"address","internalType":"address"}],"outputs":[{"name":"","type":"uint256","internalType":"uint256"}],"stateMutability":"nonpayable"},{"type":"function","name":"flashloanAllowed","inputs":[{"name":"bToken","type":"address","internalType":"address"},{"name":"receiver","type":"address","internalType":"address"},{"name":"amount","type":"uint256","internalType":"uint256"},{"name":"params","type":"bytes","internalType":"bytes"}],"outputs":[{"name":"","type":"bool","internalType":"bool"}],"stateMutability":"view"},{"type":"function","name":"flashloanGuardianPaused","inputs":[{"name":"","type":"address","internalType":"address"}],"outputs":[{"name":"","type":"bool","internalType":"bool"}],"stateMutability":"view"},{"type":"function","name":"getAccountLiquidity","inputs":[{"name":"account","type":"address","internalType":"address"}],"outputs":[{"name":"","type":"uint256","internalType":"uint256"},{"name":"","type":"uint256","internalType":"uint256"},{"name":"","type":"uint256","internalType":"uint256"}],"stateMutability":"view"},{"type":"function","name":"getAllMarkets","inputs":[],"outputs":[{"name":"","type":"address[]","internalType":"contract BToken[]"}],"stateMutability":"view"},{"type":"function","name":"getAssetsIn","inputs":[{"name":"account","type":"address","internalType":"address"}],"outputs":[{"name":"","type":"address[]","internalType":"contract BToken[]"}],"stateMutability":"view"},{"type":"function","name":"getBlockTimestamp","inputs":[],"outputs":[{"name":"","type":"uint256","internalType":"uint256"}],"stateMutability":"view"},{"type":"function","name":"getHypotheticalAccountLiquidity","inputs":[{"name":"account","type":"address","internalType":"address"},{"name":"bTokenModify","type":"address","internalType":"address"},{"name":"redeemTokens","type":"uint256","internalType":"uint256"},{"name":"borrowAmount","type":"uint256","internalType":"uint256"}],"outputs":[{"name":"","type":"uint256","internalType":"uint256"},{"name":"","type":"uint256","internalType":"uint256"},{"name":"","type":"uint256","internalType":"uint256"}],"stateMutability":"view"},{"type":"function","name":"guardian","inputs":[],"outputs":[{"name":"","type":"address","internalType":"address"}],"stateMutability":"view"},{"type":"function","name":"isComptroller","inputs":[],"outputs":[{"name":"","type":"bool","internalType":"bool"}],"stateMutability":"view"},{"type":"function","name":"isCreditAccount","inputs":[{"name":"account","type":"address","internalType":"address"},{"name":"bToken","type":"address","internalType":"address"}],"outputs":[{"name":"","type":"bool","internalType":"bool"}],"stateMutability":"view"},{"type":"function","name":"isMarketDelisted","inputs":[{"name":"","type":"address","internalType":"address"}],"outputs":[{"name":"","type":"bool","internalType":"bool"}],"stateMutability":"view"},{"type":"function","name":"isMarketListed","inputs":[{"name":"bTokenAddress","type":"address","internalType":"address"}],"outputs":[{"name":"","type":"bool","internalType":"bool"}],"stateMutability":"view"},{"type":"function","name":"isMarketListedOrDelisted","inputs":[{"name":"bTokenAddress","type":"address","internalType":"address"}],"outputs":[{"name":"","type":"bool","internalType":"bool"}],"stateMutability":"view"},{"type":"function","name":"liquidateBorrowAllowed","inputs":[{"name":"bTokenBorrowed","type":"address","internalType":"address"},{"name":"bTokenCollateral","type":"address","internalType":"address"},{"name":"liquidator","type":"address","internalType":"address"},{"name":"borrower","type":"address","internalType":"address"},{"name":"repayAmount","type":"uint256","internalType":"uint256"}],"outputs":[{"name":"","type":"uint256","internalType":"uint256"}],"stateMutability":"nonpayable"},{"type":"function","name":"liquidateBorrowVerify","inputs":[{"name":"bTokenBorrowed","type":"address","internalType":"address"},{"name":"bTokenCollateral","type":"address","internalType":"address"},{"name":"liquidator","type":"address","internalType":"address"},{"name":"borrower","type":"address","internalType":"address"},{"name":"actualRepayAmount","type":"uint256","internalType":"uint256"},{"name":"seizeTokens","type":"uint256","internalType":"uint256"}],"outputs":[],"stateMutability":"nonpayable"},{"type":"function","name":"liquidateCalculateSeizeTokens","inputs":[{"name":"bTokenBorrowed","type":"address","internalType":"address"},{"name":"bTokenCollateral","type":"address","internalType":"address"},{"name":"actualRepayAmount","type":"uint256","internalType":"uint256"}],"outputs":[{"name":"","type":"uint256","internalType":"uint256"},{"name":"","type":"uint256","internalType":"uint256"}],"stateMutability":"view"},{"type":"function","name":"liquidationIncentiveMantissa","inputs":[],"outputs":[{"name":"","type":"uint256","internalType":"uint256"}],"stateMutability":"view"},{"type":"function","name":"liquidityMining","inputs":[],"outputs":[{"name":"","type":"address","internalType":"address"}],"stateMutability":"view"},{"type":"function","name":"markets","inputs":[{"name":"","type":"address","internalType":"address"}],"outputs":[{"name":"isListed","type":"bool","internalType":"bool"},{"name":"collateralFactorMantissa","type":"uint256","internalType":"uint256"},{"name":"version","type":"uint8","internalType":"enum ComptrollerV1Storage.Version"}],"stateMutability":"view"},{"type":"function","name":"mintAllowed","inputs":[{"name":"bToken","type":"address","internalType":"address"},{"name":"minter","type":"address","internalType":"address"},{"name":"mintAmount","type":"uint256","internalType":"uint256"}],"outputs":[{"name":"","type":"uint256","internalType":"uint256"}],"stateMutability":"nonpayable"},{"type":"function","name":"mintGuardianPaused","inputs":[{"name":"","type":"address","internalType":"address"}],"outputs":[{"name":"","type":"bool","internalType":"bool"}],"stateMutability":"view"},{"type":"function","name":"mintVerify","inputs":[{"name":"bToken","type":"address","internalType":"address"},{"name":"minter","type":"address","internalType":"address"},{"name":"actualMintAmount","type":"uint256","internalType":"uint256"},{"name":"mintTokens","type":"uint256","internalType":"uint256"}],"outputs":[],"stateMutability":"nonpayable"},{"type":"function","name":"oracle","inputs":[],"outputs":[{"name":"","type":"address","internalType":"contract PriceOracle"}],"stateMutability":"view"},{"type":"function","name":"pendingAdmin","inputs":[],"outputs":[{"name":"","type":"address","internalType":"address"}],"stateMutability":"view"},{"type":"function","name":"pendingComptrollerImplementation","inputs":[],"outputs":[{"name":"","type":"address","internalType":"address"}],"stateMutability":"view"},{"type":"function","name":"redeemAllowed","inputs":[{"name":"bToken","type":"address","internalType":"address"},{"name":"redeemer","type":"address","internalType":"address"},{"name":"redeemTokens","type":"uint256","internalType":"uint256"}],"outputs":[{"name":"","type":"uint256","internalType":"uint256"}],"stateMutability":"nonpayable"},{"type":"function","name":"redeemVerify","inputs":[{"name":"bToken","type":"address","internalType":"address"},{"name":"redeemer","type":"address","internalType":"address"},{"name":"redeemAmount","type":"uint256","internalType":"uint256"},{"name":"redeemTokens","type":"uint256","internalType":"uint256"}],"outputs":[],"stateMutability":"nonpayable"},{"type":"function","name":"repayBorrowAllowed","inputs":[{"name":"bToken","type":"address","internalType":"address"},{"name":"payer","type":"address","internalType":"address"},{"name":"borrower","type":"address","internalType":"address"},{"name":"repayAmount","type":"uint256","internalType":"uint256"}],"outputs":[{"name":"","type":"uint256","internalType":"uint256"}],"stateMutability":"nonpayable"},{"type":"function","name":"repayBorrowVerify","inputs":[{"name":"bToken","type":"address","internalType":"address"},{"name":"payer","type":"address","internalType":"address"},{"name":"borrower","type":"address","internalType":"address"},{"name":"actualRepayAmount","type":"uint256","internalType":"uint256"},{"name":"borrowerIndex","type":"uint256","internalType":"uint256"}],"outputs":[],"stateMutability":"nonpayable"},{"type":"function","name":"seizeAllowed","inputs":[{"name":"bTokenCollateral","type":"address","internalType":"address"},{"name":"bTokenBorrowed","type":"address","internalType":"address"},{"name":"liquidator","type":"address","internalType":"address"},{"name":"borrower","type":"address","internalType":"address"},{"name":"seizeTokens","type":"uint256","internalType":"uint256"}],"outputs":[{"name":"","type":"uint256","internalType":"uint256"}],"stateMutability":"nonpayable"},{"type":"function","name":"seizeGuardianPaused","inputs":[],"outputs":[{"name":"","type":"bool","internalType":"bool"}],"stateMutability":"view"},{"type":"function","name":"seizeVerify","inputs":[{"name":"bTokenCollateral","type":"address","internalType":"address"},{"name":"bTokenBorrowed","type":"address","internalType":"address"},{"name":"liquidator","type":"address","internalType":"address"},{"name":"borrower","type":"address","internalType":"address"},{"name":"seizeTokens","type":"uint256","internalType":"uint256"}],"outputs":[],"stateMutability":"nonpayable"},{"type":"function","name":"supplyCapGuardian","inputs":[],"outputs":[{"name":"","type":"address","internalType":"address"}],"stateMutability":"view"},{"type":"function","name":"supplyCaps","inputs":[{"name":"","type":"address","internalType":"address"}],"outputs":[{"name":"","type":"uint256","internalType":"uint256"}],"stateMutability":"view"},{"type":"function","name":"transferAllowed","inputs":[{"name":"bToken","type":"address","internalType":"address"},{"name":"src","type":"address","internalType":"address"},{"name":"dst","type":"address","internalType":"address"},{"name":"transferTokens","type":"uint256","internalType":"uint256"}],"outputs":[{"name":"","type":"uint256","internalType":"uint256"}],"stateMutability":"nonpayable"},{"type":"function","name":"transferGuardianPaused","inputs":[],"outputs":[{"name":"","type":"bool","internalType":"bool"}],"stateMutability":"view"},{"type":"function","name":"transferVerify","inputs":[{"name":"bToken","type":"address","internalType":"address"},{"name":"src","type":"address","internalType":"address"},{"name":"dst","type":"address","internalType":"address"},{"name":"transferTokens","type":"uint256","internalType":"uint256"}],"outputs":[],"stateMutability":"nonpayable"},{"type":"function","name":"updateBTokenVersion","inputs":[{"name":"bToken","type":"address","internalType":"address"},{"name":"newVersion","type":"uint8","internalType":"enum ComptrollerV1Storage.Version"}],"outputs":[],"stateMutability":"nonpayable"},{"type":"event","name":"ActionPaused","inputs":[{"name":"action","type":"string","indexed":false,"internalType":"string"},{"name":"pauseState","type":"bool","indexed":false,"internalType":"bool"}],"anonymous":false},{"type":"event","name":"ActionPaused","inputs":[{"name":"bToken","type":"address","indexed":false,"internalType":"contract BToken"},{"name":"action","type":"string","indexed":false,"internalType":"string"},{"name":"pauseState","type":"bool","indexed":false,"internalType":"bool"}],"anonymous":false},{"type":"event","name":"CreditLimitChanged","inputs":[{"name":"protocol","type":"address","indexed":false,"internalType":"address"},{"name":"market","type":"address","indexed":false,"internalType":"address"},{"name":"creditLimit","type":"uint256","indexed":false,"internalType":"uint256"}],"anonymous":false},{"type":"event","name":"Failure","inputs":[{"name":"error","type":"uint256","indexed":false,"internalType":"uint256"},{"name":"info","type":"uint256","indexed":false,"internalType":"uint256"},{"name":"detail","type":"uint256","indexed":false,"internalType":"uint256"}],"anonymous":false},{"type":"event","name":"MarketDelisted","inputs":[{"name":"bToken","type":"address","indexed":false,"internalType":"contract BToken"},{"name":"force","type":"bool","indexed":false,"internalType":"bool"}],"anonymous":false},{"type":"event","name":"MarketEntered","inputs":[{"name":"bToken","type":"address","indexed":false,"internalType":"contract BToken"},{"name":"account","type":"address","indexed":false,"internalType":"address"}],"anonymous":false},{"type":"event","name":"MarketExited","inputs":[{"name":"bToken","type":"address","indexed":false,"internalType":"contract BToken"},{"name":"account","type":"address","indexed":false,"internalType":"address"}],"anonymous":false},{"type":"event","name":"MarketListed","inputs":[{"name":"bToken","type":"address","indexed":false,"internalType":"contract BToken"}],"anonymous":false},{"type":"event","name":"NewBTokenVersion","inputs":[{"name":"bToken","type":"address","indexed":false,"internalType":"contract BToken"},{"name":"oldVersion","type":"uint8","indexed":false,"internalType":"enum ComptrollerV1Storage.Version"},{"name":"newVersion","type":"uint8","indexed":false,"internalType":"enum ComptrollerV1Storage.Version"}],"anonymous":false},{"type":"event","name":"NewBorrowCap","inputs":[{"name":"bToken","type":"address","indexed":true,"internalType":"contract BToken"},{"name":"newBorrowCap","type":"uint256","indexed":false,"internalType":"uint256"}],"anonymous":false},{"type":"event","name":"NewCloseFactor","inputs":[{"name":"oldCloseFactorMantissa","type":"uint256","indexed":false,"internalType":"uint256"},{"name":"newCloseFactorMantissa","type":"uint256","indexed":false,"internalType":"uint256"}],"anonymous":false},{"type":"event","name":"NewCollateralFactor","inputs":[{"name":"bToken","type":"address","indexed":false,"internalType":"contract BToken"},{"name":"oldCollateralFactorMantissa","type":"uint256","indexed":false,"internalType":"uint256"},{"name":"newCollateralFactorMantissa","type":"uint256","indexed":false,"internalType":"uint256"}],"anonymous":false},{"type":"event","name":"NewCreditLimitManager","inputs":[{"name":"oldCreditLimitManager","type":"address","indexed":false,"internalType":"address"},{"name":"newCreditLimitManager","type":"address","indexed":false,"internalType":"address"}],"anonymous":false},{"type":"event","name":"NewGuardian","inputs":[{"name":"oldGuardian","type":"address","indexed":false,"internalType":"address"},{"name":"newGuardian","type":"address","indexed":false,"internalType":"address"}],"anonymous":false},{"type":"event","name":"NewLiquidationIncentive","inputs":[{"name":"oldLiquidationIncentiveMantissa","type":"uint256","indexed":false,"internalType":"uint256"},{"name":"newLiquidationIncentiveMantissa","type":"uint256","indexed":false,"internalType":"uint256"}],"anonymous":false},{"type":"event","name":"NewLiquidityMining","inputs":[{"name":"oldLiquidityMining","type":"address","indexed":false,"internalType":"address"},{"name":"newLiquidityMining","type":"address","indexed":false,"internalType":"address"}],"anonymous":false},{"type":"event","name":"NewPriceOracle","inputs":[{"name":"oldPriceOracle","type":"address","indexed":false,"internalType":"contract PriceOracle"},{"name":"newPriceOracle","type":"address","indexed":false,"internalType":"contract PriceOracle"}],"anonymous":false},{"type":"event","name":"NewSupplyCap","inputs":[{"name":"bToken","type":"address","indexed":true,"internalType":"contract BToken"},{"name":"newSupplyCap","type":"uint256","indexed":false,"internalType":"uint256"}],"anonymous":false}],"bytecode":{"object":"0x60806040523480156200001157600080fd5b50336000806101000a81548173ffffffffffffffffffffffffffffffffffffffff021916908373ffffffffffffffffffffffffffffffffffffffff160217905550619bb880620000626000396000f3fe608060405234801561001057600080fd5b506004361061048a5760003560e01c80636b79c38d11610262578063bb82aa5e11610151578063da3d454c116100ce578063e6653f3d11610092578063e6653f3d14612468578063e87554461461248a578063ea5d0104146124a8578063eabe7d91146124ec578063ede4edd01461256e578063f851a440146125c65761048a565b8063da3d454c14612254578063dce15449146122d6578063dcfbc0c714612364578063e38e8c0f146123ae578063e4028eee146124065761048a565b8063cc7ebdc411610115578063cc7ebdc414612014578063d02f73511461206c578063d13911491461212e578063d672d3e21461218a578063d84f6aeb146121e65761048a565b8063bb82aa5e14611d1a578063bdcdc25814611d64578063c299823814611e06578063c488847b14611f13578063ca0af04314611f9c5761048a565b80638ebf6364116101df578063ac0b0bb7116101a3578063ac0b0bb714611ade578063b0772d0b14611b00578063b1ab78e614611b5f578063b1e1af2414611c3a578063b21be7fd14611ca25761048a565b80638ebf6364146118df578063929fe9a11461192757806399bc1873146119a3578063a979f0c5146119fb578063abfceffc14611a455761048a565b80637dc0d1d0116102265780637dc0d1d01461170a57806385b2d5351461175457806387f763031461179e5780638c57804e146117c05780638e8f294b146118675761048a565b80636b79c38d146114df5780636d154ea5146115865780636d35bf91146115e2578063731f0c2b14611690578063796b89b9146116ec5761048a565b80633d98a1e51161037e57806351a485e4116102fb5780635e2e9a44116102bf5780635e2e9a44146112175780635ec88c791461125b5780635fc7e71e146112c1578063607ef6c1146113835780636a56947e146114515761048a565b806351a485e414610f9d57806351dff9891461106b57806352d84d1e146110e357806355ee1fe1146111515780635c778605146111a95761048a565b80634ada90af116103425780634ada90af14610dbd5780634e79238f14610ddb5780634ef4c3e114610e755780634fd42e1714610ef757806350f6c85a14610f395761048a565b80633d98a1e514610b8f57806341c728b914610beb578063452a932014610c6357806347ef3b3b14610cad5780634a58443214610d655761048a565b806321af45691161040c57806336bdd087116103d057806336bdd087146109d457806339e47ad214610a395780633b3af25714610a895780633bcf7ec114610b055780633c94786f14610b6d5761048a565b806321af45691461081457806324008a621461085e57806326782247146109005780632d70db781461094a578063317b0b77146109925761048a565b8063188f848311610453578063188f84831461061c57806318c882a5146106785780631d504dc6146106e05780631d7b33d7146107245780631ededc911461077c5761048a565b80627e3dd21461048f57806302c3bcbb146104b15780630445254d146105095780630aa5747714610581578063178de7eb146105d2575b600080fd5b610497612610565b604051808215151515815260200191505060405180910390f35b6104f3600480360360208110156104c757600080fd5b81019080803573ffffffffffffffffffffffffffffffffffffffff169060200190929190505050612615565b6040518082815260200191505060405180910390f35b61056b6004803603604081101561051f57600080fd5b81019080803573ffffffffffffffffffffffffffffffffffffffff169060200190929190803573ffffffffffffffffffffffffffffffffffffffff16906020019092919050505061262d565b6040518082815260200191505060405180910390f35b6105d06004803603604081101561059757600080fd5b81019080803573ffffffffffffffffffffffffffffffffffffffff169060200190929190803560ff1690602001909291905050506126b4565b005b6105da6128af565b604051808273ffffffffffffffffffffffffffffffffffffffff1673ffffffffffffffffffffffffffffffffffffffff16815260200191505060405180910390f35b61065e6004803603602081101561063257600080fd5b81019080803573ffffffffffffffffffffffffffffffffffffffff1690602001909291905050506128d5565b604051808215151515815260200191505060405180910390f35b6106c66004803603604081101561068e57600080fd5b81019080803573ffffffffffffffffffffffffffffffffffffffff169060200190929190803515159060200190929190505050612982565b604051808215151515815260200191505060405180910390f35b610722600480360360208110156106f657600080fd5b81019080803573ffffffffffffffffffffffffffffffffffffffff169060200190929190505050612cf2565b005b6107666004803603602081101561073a57600080fd5b81019080803573ffffffffffffffffffffffffffffffffffffffff169060200190929190505050612f0e565b6040518082815260200191505060405180910390f35b610812600480360360a081101561079257600080fd5b81019080803573ffffffffffffffffffffffffffffffffffffffff169060200190929190803573ffffffffffffffffffffffffffffffffffffffff169060200190929190803573ffffffffffffffffffffffffffffffffffffffff1690602001909291908035906020019092919080359060200190929190505050612f26565b005b61081c612f3e565b604051808273ffffffffffffffffffffffffffffffffffffffff1673ffffffffffffffffffffffffffffffffffffffff16815260200191505060405180910390f35b6108ea6004803603608081101561087457600080fd5b81019080803573ffffffffffffffffffffffffffffffffffffffff169060200190929190803573ffffffffffffffffffffffffffffffffffffffff169060200190929190803573ffffffffffffffffffffffffffffffffffffffff16906020019092919080359060200190929190505050612f64565b6040518082815260200191505060405180910390f35b61090861308c565b604051808273ffffffffffffffffffffffffffffffffffffffff1673ffffffffffffffffffffffffffffffffffffffff16815260200191505060405180910390f35b6109786004803603602081101561096057600080fd5b810190808035151590602001909291905050506130b2565b604051808215151515815260200191505060405180910390f35b6109be600480360360208110156109a857600080fd5b8101908080359060200190929190505050613335565b6040518082815260200191505060405180910390f35b610a23600480360360408110156109ea57600080fd5b81019080803573ffffffffffffffffffffffffffffffffffffffff169060200190929190803560ff169060200190929190505050613403565b6040518082815260200191505060405180910390f35b610a8760048036036040811015610a4f57600080fd5b81019080803573ffffffffffffffffffffffffffffffffffffffff1690602001909291908035151590602001909291905050506136e8565b005b610aeb60048036036040811015610a9f57600080fd5b81019080803573ffffffffffffffffffffffffffffffffffffffff169060200190929190803573ffffffffffffffffffffffffffffffffffffffff169060200190929190505050613d68565b604051808215151515815260200191505060405180910390f35b610b5360048036036040811015610b1b57600080fd5b81019080803573ffffffffffffffffffffffffffffffffffffffff169060200190929190803515159060200190929190505050613df1565b604051808215151515815260200191505060405180910390f35b610b75614161565b604051808215151515815260200191505060405180910390f35b610bd160048036036020811015610ba557600080fd5b81019080803573ffffffffffffffffffffffffffffffffffffffff169060200190929190505050614174565b604051808215151515815260200191505060405180910390f35b610c6160048036036080811015610c0157600080fd5b81019080803573ffffffffffffffffffffffffffffffffffffffff169060200190929190803573ffffffffffffffffffffffffffffffffffffffff16906020019092919080359060200190929190803590602001909291905050506141cd565b005b610c6b6141e4565b604051808273ffffffffffffffffffffffffffffffffffffffff1673ffffffffffffffffffffffffffffffffffffffff16815260200191505060405180910390f35b610d63600480360360c0811015610cc357600080fd5b81019080803573ffffffffffffffffffffffffffffffffffffffff169060200190929190803573ffffffffffffffffffffffffffffffffffffffff169060200190929190803573ffffffffffffffffffffffffffffffffffffffff169060200190929190803573ffffffffffffffffffffffffffffffffffffffff169060200190929190803590602001909291908035906020019092919050505061420a565b005b610da760048036036020811015610d7b57600080fd5b81019080803573ffffffffffffffffffffffffffffffffffffffff169060200190929190505050614223565b6040518082815260200191505060405180910390f35b610dc561423b565b6040518082815260200191505060405180910390f35b610e5160048036036080811015610df157600080fd5b81019080803573ffffffffffffffffffffffffffffffffffffffff169060200190929190803573ffffffffffffffffffffffffffffffffffffffff1690602001909291908035906020019092919080359060200190929190505050614241565b60405180848152602001838152602001828152602001935050505060405180910390f35b610ee160048036036060811015610e8b57600080fd5b81019080803573ffffffffffffffffffffffffffffffffffffffff169060200190929190803573ffffffffffffffffffffffffffffffffffffffff1690602001909291908035906020019092919050505061427d565b6040518082815260200191505060405180910390f35b610f2360048036036020811015610f0d57600080fd5b8101908080359060200190929190505050614751565b6040518082815260200191505060405180910390f35b610f9b60048036036040811015610f4f57600080fd5b81019080803573ffffffffffffffffffffffffffffffffffffffff169060200190929190803573ffffffffffffffffffffffffffffffffffffffff16906020019092919050505061481d565b005b61106960048036036040811015610fb357600080fd5b8101908080359060200190640100000000811115610fd057600080fd5b820183602082011115610fe257600080fd5b8035906020019184602083028401116401000000008311171561100457600080fd5b90919293919293908035906020019064010000000081111561102557600080fd5b82018360208201111561103757600080fd5b8035906020019184602083028401116401000000008311171561105957600080fd5b90919293919293905050506148f0565b005b6110e16004803603608081101561108157600080fd5b81019080803573ffffffffffffffffffffffffffffffffffffffff169060200190929190803573ffffffffffffffffffffffffffffffffffffffff1690602001909291908035906020019092919080359060200190929190505050614bc4565b005b61110f600480360360208110156110f957600080fd5b8101908080359060200190929190505050614c4d565b604051808273ffffffffffffffffffffffffffffffffffffffff1673ffffffffffffffffffffffffffffffffffffffff16815260200191505060405180910390f35b6111936004803603602081101561116757600080fd5b81019080803573ffffffffffffffffffffffffffffffffffffffff169060200190929190505050614c89565b6040518082815260200191505060405180910390f35b611215600480360360608110156111bf57600080fd5b81019080803573ffffffffffffffffffffffffffffffffffffffff169060200190929190803573ffffffffffffffffffffffffffffffffffffffff16906020019092919080359060200190929190505050614e07565b005b6112596004803603602081101561122d57600080fd5b81019080803573ffffffffffffffffffffffffffffffffffffffff169060200190929190505050614e1d565b005b61129d6004803603602081101561127157600080fd5b81019080803573ffffffffffffffffffffffffffffffffffffffff169060200190929190505050615004565b60405180848152602001838152602001828152602001935050505060405180910390f35b61136d600480360360a08110156112d757600080fd5b81019080803573ffffffffffffffffffffffffffffffffffffffff169060200190929190803573ffffffffffffffffffffffffffffffffffffffff169060200190929190803573ffffffffffffffffffffffffffffffffffffffff169060200190929190803573ffffffffffffffffffffffffffffffffffffffff1690602001909291908035906020019092919050505061503f565b6040518082815260200191505060405180910390f35b61144f6004803603604081101561139957600080fd5b81019080803590602001906401000000008111156113b657600080fd5b8201836020820111156113c857600080fd5b803590602001918460208302840111640100000000831117156113ea57600080fd5b90919293919293908035906020019064010000000081111561140b57600080fd5b82018360208201111561141d57600080fd5b8035906020019184602083028401116401000000008311171561143f57600080fd5b9091929391929390505050615373565b005b6114dd6004803603608081101561146757600080fd5b81019080803573ffffffffffffffffffffffffffffffffffffffff169060200190929190803573ffffffffffffffffffffffffffffffffffffffff169060200190929190803573ffffffffffffffffffffffffffffffffffffffff16906020019092919080359060200190929190505050615647565b005b611521600480360360208110156114f557600080fd5b81019080803573ffffffffffffffffffffffffffffffffffffffff16906020019092919050505061565e565b60405180837bffffffffffffffffffffffffffffffffffffffffffffffffffffffff167bffffffffffffffffffffffffffffffffffffffffffffffffffffffff1681526020018263ffffffff1663ffffffff1681526020019250505060405180910390f35b6115c86004803603602081101561159c57600080fd5b81019080803573ffffffffffffffffffffffffffffffffffffffff1690602001909291905050506156ba565b604051808215151515815260200191505060405180910390f35b61168e600480360360a08110156115f857600080fd5b81019080803573ffffffffffffffffffffffffffffffffffffffff169060200190929190803573ffffffffffffffffffffffffffffffffffffffff169060200190929190803573ffffffffffffffffffffffffffffffffffffffff169060200190929190803573ffffffffffffffffffffffffffffffffffffffff169060200190929190803590602001909291905050506156da565b005b6116d2600480360360208110156116a657600080fd5b81019080803573ffffffffffffffffffffffffffffffffffffffff1690602001909291905050506156f2565b604051808215151515815260200191505060405180910390f35b6116f4615712565b6040518082815260200191505060405180910390f35b61171261571a565b604051808273ffffffffffffffffffffffffffffffffffffffff1673ffffffffffffffffffffffffffffffffffffffff16815260200191505060405180910390f35b61175c615740565b604051808273ffffffffffffffffffffffffffffffffffffffff1673ffffffffffffffffffffffffffffffffffffffff16815260200191505060405180910390f35b6117a6615766565b604051808215151515815260200191505060405180910390f35b611802600480360360208110156117d657600080fd5b81019080803573ffffffffffffffffffffffffffffffffffffffff169060200190929190505050615779565b60405180837bffffffffffffffffffffffffffffffffffffffffffffffffffffffff167bffffffffffffffffffffffffffffffffffffffffffffffffffffffff1681526020018263ffffffff1663ffffffff1681526020019250505060405180910390f35b6118a96004803603602081101561187d57600080fd5b81019080803573ffffffffffffffffffffffffffffffffffffffff1690602001909291905050506157d5565b60405180841515151581526020018381526020018260028111156118c957fe5b60ff168152602001935050505060405180910390f35b61190d600480360360208110156118f557600080fd5b81019080803515159060200190929190505050615819565b604051808215151515815260200191505060405180910390f35b6119896004803603604081101561193d57600080fd5b81019080803573ffffffffffffffffffffffffffffffffffffffff169060200190929190803573ffffffffffffffffffffffffffffffffffffffff169060200190929190505050615a9c565b604051808215151515815260200191505060405180910390f35b6119e5600480360360208110156119b957600080fd5b81019080803573ffffffffffffffffffffffffffffffffffffffff169060200190929190505050615b33565b6040518082815260200191505060405180910390f35b611a03615b3d565b604051808273ffffffffffffffffffffffffffffffffffffffff1673ffffffffffffffffffffffffffffffffffffffff16815260200191505060405180910390f35b611a8760048036036020811015611a5b57600080fd5b81019080803573ffffffffffffffffffffffffffffffffffffffff169060200190929190505050615b63565b6040518080602001828103825283818151815260200191508051906020019060200280838360005b83811015611aca578082015181840152602081019050611aaf565b505050509050019250505060405180910390f35b611ae6615c35565b604051808215151515815260200191505060405180910390f35b611b08615c48565b6040518080602001828103825283818151815260200191508051906020019060200280838360005b83811015611b4b578082015181840152602081019050611b30565b505050509050019250505060405180910390f35b611c2060048036036080811015611b7557600080fd5b81019080803573ffffffffffffffffffffffffffffffffffffffff169060200190929190803573ffffffffffffffffffffffffffffffffffffffff1690602001909291908035906020019092919080359060200190640100000000811115611bdc57600080fd5b820183602082011115611bee57600080fd5b80359060200191846001830284011164010000000083111715611c1057600080fd5b9091929391929390505050615cd6565b604051808215151515815260200191505060405180910390f35b611c8860048036036040811015611c5057600080fd5b81019080803573ffffffffffffffffffffffffffffffffffffffff169060200190929190803515159060200190929190505050615d31565b604051808215151515815260200191505060405180910390f35b611d0460048036036040811015611cb857600080fd5b81019080803573ffffffffffffffffffffffffffffffffffffffff169060200190929190803573ffffffffffffffffffffffffffffffffffffffff1690602001909291905050506160a1565b6040518082815260200191505060405180910390f35b611d226160c6565b604051808273ffffffffffffffffffffffffffffffffffffffff1673ffffffffffffffffffffffffffffffffffffffff16815260200191505060405180910390f35b611df060048036036080811015611d7a57600080fd5b81019080803573ffffffffffffffffffffffffffffffffffffffff169060200190929190803573ffffffffffffffffffffffffffffffffffffffff169060200190929190803573ffffffffffffffffffffffffffffffffffffffff169060200190929190803590602001909291905050506160ec565b6040518082815260200191505060405180910390f35b611ebc60048036036020811015611e1c57600080fd5b8101908080359060200190640100000000811115611e3957600080fd5b820183602082011115611e4b57600080fd5b80359060200191846020830284011164010000000083111715611e6d57600080fd5b919080806020026020016040519081016040528093929190818152602001838360200280828437600081840152601f19601f8201169050808301925050505050505091929192905050506161e6565b6040518080602001828103825283818151815260200191508051906020019060200280838360005b83811015611eff578082015181840152602081019050611ee4565b505050509050019250505060405180910390f35b611f7f60048036036060811015611f2957600080fd5b81019080803573ffffffffffffffffffffffffffffffffffffffff169060200190929190803573ffffffffffffffffffffffffffffffffffffffff1690602001909291908035906020019092919050505061628c565b604051808381526020018281526020019250505060405180910390f35b611ffe60048036036040811015611fb257600080fd5b81019080803573ffffffffffffffffffffffffffffffffffffffff169060200190929190803573ffffffffffffffffffffffffffffffffffffffff1690602001909291905050506165f7565b6040518082815260200191505060405180910390f35b6120566004803603602081101561202a57600080fd5b81019080803573ffffffffffffffffffffffffffffffffffffffff16906020019092919050505061661c565b6040518082815260200191505060405180910390f35b612118600480360360a081101561208257600080fd5b81019080803573ffffffffffffffffffffffffffffffffffffffff169060200190929190803573ffffffffffffffffffffffffffffffffffffffff169060200190929190803573ffffffffffffffffffffffffffffffffffffffff169060200190929190803573ffffffffffffffffffffffffffffffffffffffff16906020019092919080359060200190929190505050616634565b6040518082815260200191505060405180910390f35b6121706004803603602081101561214457600080fd5b81019080803573ffffffffffffffffffffffffffffffffffffffff16906020019092919050505061697b565b604051808215151515815260200191505060405180910390f35b6121cc600480360360208110156121a057600080fd5b81019080803573ffffffffffffffffffffffffffffffffffffffff16906020019092919050505061699b565b604051808215151515815260200191505060405180910390f35b612252600480360360608110156121fc57600080fd5b81019080803573ffffffffffffffffffffffffffffffffffffffff169060200190929190803573ffffffffffffffffffffffffffffffffffffffff169060200190929190803590602001909291905050506169bb565b005b6122c06004803603606081101561226a57600080fd5b81019080803573ffffffffffffffffffffffffffffffffffffffff169060200190929190803573ffffffffffffffffffffffffffffffffffffffff16906020019092919080359060200190929190505050616ac8565b6040518082815260200191505060405180910390f35b612322600480360360408110156122ec57600080fd5b81019080803573ffffffffffffffffffffffffffffffffffffffff16906020019092919080359060200190929190505050617513565b604051808273ffffffffffffffffffffffffffffffffffffffff1673ffffffffffffffffffffffffffffffffffffffff16815260200191505060405180910390f35b61236c61755e565b604051808273ffffffffffffffffffffffffffffffffffffffff1673ffffffffffffffffffffffffffffffffffffffff16815260200191505060405180910390f35b6123f0600480360360208110156123c457600080fd5b81019080803573ffffffffffffffffffffffffffffffffffffffff169060200190929190505050617584565b6040518082815260200191505060405180910390f35b6124526004803603604081101561241c57600080fd5b81019080803573ffffffffffffffffffffffffffffffffffffffff16906020019092919080359060200190929190505050617724565b6040518082815260200191505060405180910390f35b6124706179fd565b604051808215151515815260200191505060405180910390f35b612492617a10565b6040518082815260200191505060405180910390f35b6124ea600480360360208110156124be57600080fd5b81019080803573ffffffffffffffffffffffffffffffffffffffff169060200190929190505050617a16565b005b6125586004803603606081101561250257600080fd5b81019080803573ffffffffffffffffffffffffffffffffffffffff169060200190929190803573ffffffffffffffffffffffffffffffffffffffff16906020019092919080359060200190929190505050617d1e565b6040518082815260200191505060405180910390f35b6125b06004803603602081101561258457600080fd5b81019080803573ffffffffffffffffffffffffffffffffffffffff169060200190929190505050617d34565b6040518082815260200191505060405180910390f35b6125ce618426565b604051808273ffffffffffffffffffffffffffffffffffffffff1673ffffffffffffffffffffffffffffffffffffffff16815260200191505060405180910390f35b600181565b60166020528060005260406000206000915090505481565b6000601a60008473ffffffffffffffffffffffffffffffffffffffff1673ffffffffffffffffffffffffffffffffffffffff16815260200190815260200160002060008373ffffffffffffffffffffffffffffffffffffffff1673ffffffffffffffffffffffffffffffffffffffff16815260200190815260200160002054905092915050565b8173ffffffffffffffffffffffffffffffffffffffff163373ffffffffffffffffffffffffffffffffffffffff1614612755576040517f08c379a000000000000000000000000000000000000000000000000000000000815260040180806020018281038252600b8152602001807f62546f6b656e206f6e6c7900000000000000000000000000000000000000000081525060200191505060405180910390fd5b61275e82614174565b156128ab576000600860008473ffffffffffffffffffffffffffffffffffffffff1673ffffffffffffffffffffffffffffffffffffffff16815260200190815260200160002060030160009054906101000a900460ff16905081600860008573ffffffffffffffffffffffffffffffffffffffff1673ffffffffffffffffffffffffffffffffffffffff16815260200190815260200160002060030160006101000a81548160ff0219169083600281111561281557fe5b02179055507f94d8c3b3b1c3ffd041fd0875027844944165fdf4c35639c43eed07a99583084f838284604051808473ffffffffffffffffffffffffffffffffffffffff1673ffffffffffffffffffffffffffffffffffffffff16815260200183600281111561288057fe5b60ff16815260200182600281111561289457fe5b60ff168152602001935050505060405180910390a1505b5050565b601c60009054906101000a900473ffffffffffffffffffffffffffffffffffffffff1681565b6000600860008373ffffffffffffffffffffffffffffffffffffffff1673ffffffffffffffffffffffffffffffffffffffff16815260200190815260200160002060000160009054906101000a900460ff168061297b5750601b60008373ffffffffffffffffffffffffffffffffffffffff1673ffffffffffffffffffffffffffffffffffffffff16815260200190815260200160002060009054906101000a900460ff165b9050919050565b600061298d83614174565b6129ff576040517f08c379a00000000000000000000000000000000000000000000000000000000081526004018080602001828103825260118152602001807f6d61726b6574206e6f74206c697374656400000000000000000000000000000081525060200191505060405180910390fd5b600960009054906101000a900473ffffffffffffffffffffffffffffffffffffffff1673ffffffffffffffffffffffffffffffffffffffff163373ffffffffffffffffffffffffffffffffffffffff161480612aa757506000809054906101000a900473ffffffffffffffffffffffffffffffffffffffff1673ffffffffffffffffffffffffffffffffffffffff163373ffffffffffffffffffffffffffffffffffffffff16145b612b19576040517f08c379a00000000000000000000000000000000000000000000000000000000081526004018080602001828103825260168152602001807f677561726469616e206f722061646d696e206f6e6c790000000000000000000081525060200191505060405180910390fd5b6000809054906101000a900473ffffffffffffffffffffffffffffffffffffffff1673ffffffffffffffffffffffffffffffffffffffff163373ffffffffffffffffffffffffffffffffffffffff161480612b78575060011515821515145b612bea576040517f08c379a000000000000000000000000000000000000000000000000000000000815260040180806020018281038252600a8152602001807f61646d696e206f6e6c790000000000000000000000000000000000000000000081525060200191505060405180910390fd5b81600b60008573ffffffffffffffffffffffffffffffffffffffff1673ffffffffffffffffffffffffffffffffffffffff16815260200190815260200160002060006101000a81548160ff0219169083151502179055507f71aec636243f9709bb0007ae15e9afb8150ab01716d75fd7573be5cc096e03b08383604051808373ffffffffffffffffffffffffffffffffffffffff1673ffffffffffffffffffffffffffffffffffffffff1681526020018060200183151515158152602001828103825260068152602001807f426f72726f770000000000000000000000000000000000000000000000000000815250602001935050505060405180910390a181905092915050565b8073ffffffffffffffffffffffffffffffffffffffff1663f851a4406040518163ffffffff1660e01b815260040160206040518083038186803b158015612d3857600080fd5b505afa158015612d4c573d6000803e3d6000fd5b505050506040513d6020811015612d6257600080fd5b810190808051906020019092919050505073ffffffffffffffffffffffffffffffffffffffff163373ffffffffffffffffffffffffffffffffffffffff1614612e13576040517f08c379a00000000000000000000000000000000000000000000000000000000081526004018080602001828103825260158152602001807f756e6974726f6c6c65722061646d696e206f6e6c79000000000000000000000081525060200191505060405180910390fd5b60008173ffffffffffffffffffffffffffffffffffffffff1663c1e803346040518163ffffffff1660e01b8152600401602060405180830381600087803b158015612e5d57600080fd5b505af1158015612e71573d6000803e3d6000fd5b505050506040513d6020811015612e8757600080fd5b810190808051906020019092919050505014612f0b576040517f08c379a000000000000000000000000000000000000000000000000000000000815260040180806020018281038252600c8152602001807f756e617574686f72697a6564000000000000000000000000000000000000000081525060200191505060405180910390fd5b50565b600d6020528060005260406000206000915090505481565b600015612f37576005546005819055505b5050505050565b601360009054906101000a900473ffffffffffffffffffffffffffffffffffffffff1681565b6000612f6f856128d5565b612fe1576040517f08c379a00000000000000000000000000000000000000000000000000000000081526004018080602001828103825260118152602001807f6d61726b6574206e6f74206c697374656400000000000000000000000000000081525060200191505060405180910390fd5b612feb8386613d68565b15613075578373ffffffffffffffffffffffffffffffffffffffff168373ffffffffffffffffffffffffffffffffffffffff1614613074576040517f08c379a0000000000000000000000000000000000000000000000000000000008152600401808060200182810382526028815260200180619b3a6028913960400191505060405180910390fd5b5b6000601181111561308257fe5b9050949350505050565b600160009054906101000a900473ffffffffffffffffffffffffffffffffffffffff1681565b6000600960009054906101000a900473ffffffffffffffffffffffffffffffffffffffff1673ffffffffffffffffffffffffffffffffffffffff163373ffffffffffffffffffffffffffffffffffffffff16148061315c57506000809054906101000a900473ffffffffffffffffffffffffffffffffffffffff1673ffffffffffffffffffffffffffffffffffffffff163373ffffffffffffffffffffffffffffffffffffffff16145b6131ce576040517f08c379a00000000000000000000000000000000000000000000000000000000081526004018080602001828103825260168152602001807f677561726469616e206f722061646d696e206f6e6c790000000000000000000081525060200191505060405180910390fd5b6000809054906101000a900473ffffffffffffffffffffffffffffffffffffffff1673ffffffffffffffffffffffffffffffffffffffff163373ffffffffffffffffffffffffffffffffffffffff16148061322d575060011515821515145b61329f576040517f08c379a000000000000000000000000000000000000000000000000000000000815260040180806020018281038252600a8152602001807f61646d696e206f6e6c790000000000000000000000000000000000000000000081525060200191505060405180910390fd5b81600960176101000a81548160ff0219169083151502179055507fef159d9a32b2472e32b098f954f3ce62d232939f1c207070b584df1814de2de082604051808060200183151515158152602001828103825260058152602001807f5365697a650000000000000000000000000000000000000000000000000000008152506020019250505060405180910390a1819050919050565b60008060009054906101000a900473ffffffffffffffffffffffffffffffffffffffff1673ffffffffffffffffffffffffffffffffffffffff163373ffffffffffffffffffffffffffffffffffffffff161461339e576133976001600461844b565b90506133fe565b60006005549050826005819055507f3b9670cf975d26958e754b57098eaa2ac914d8d2a31b83257997b9f346110fd981600554604051808381526020018281526020019250505060405180910390a1600060118111156133fa57fe5b9150505b919050565b60008060009054906101000a900473ffffffffffffffffffffffffffffffffffffffff1673ffffffffffffffffffffffffffffffffffffffff163373ffffffffffffffffffffffffffffffffffffffff16146134c7576040517f08c379a000000000000000000000000000000000000000000000000000000000815260040180806020018281038252600a8152602001807f61646d696e206f6e6c790000000000000000000000000000000000000000000081525060200191505060405180910390fd5b6134d0836128d5565b15613526576040517f08c379a0000000000000000000000000000000000000000000000000000000008152600401808060200182810382526021815260200180619b196021913960400191505060405180910390fd5b8273ffffffffffffffffffffffffffffffffffffffff1663fbb623376040518163ffffffff1660e01b815260040160206040518083038186803b15801561356c57600080fd5b505afa158015613580573d6000803e3d6000fd5b505050506040513d602081101561359657600080fd5b8101908080519060200190929190505050506040518060600160405280600115158152602001600081526020018360028111156135cf57fe5b815250600860008573ffffffffffffffffffffffffffffffffffffffff1673ffffffffffffffffffffffffffffffffffffffff16815260200190815260200160002060008201518160000160006101000a81548160ff0219169083151502179055506020820151816001015560408201518160030160006101000a81548160ff0219169083600281111561365f57fe5b0217905550905050613670836184bf565b7fcf583bb0c569eb967f806b11601c4cb93c10310485c67add5f8362c2f212321f83604051808273ffffffffffffffffffffffffffffffffffffffff1673ffffffffffffffffffffffffffffffffffffffff16815260200191505060405180910390a1600060118111156136e057fe5b905092915050565b6000809054906101000a900473ffffffffffffffffffffffffffffffffffffffff1673ffffffffffffffffffffffffffffffffffffffff163373ffffffffffffffffffffffffffffffffffffffff16146137aa576040517f08c379a000000000000000000000000000000000000000000000000000000000815260040180806020018281038252600a8152602001807f61646d696e206f6e6c790000000000000000000000000000000000000000000081525060200191505060405180910390fd5b6000600860008473ffffffffffffffffffffffffffffffffffffffff1673ffffffffffffffffffffffffffffffffffffffff1681526020019081526020016000206001015414613862576040517f08c379a00000000000000000000000000000000000000000000000000000000081526004018080602001828103825260158152602001807f6d61726b65742068617320636f6c6c61746572616c000000000000000000000081525060200191505060405180910390fd5b600a60008373ffffffffffffffffffffffffffffffffffffffff1673ffffffffffffffffffffffffffffffffffffffff16815260200190815260200160002060009054906101000a900460ff1680156139045750600b60008373ffffffffffffffffffffffffffffffffffffffff1673ffffffffffffffffffffffffffffffffffffffff16815260200190815260200160002060009054906101000a900460ff165b80156139595750601860008373ffffffffffffffffffffffffffffffffffffffff1673ffffffffffffffffffffffffffffffffffffffff16815260200190815260200160002060009054906101000a900460ff165b6139cb576040517f08c379a00000000000000000000000000000000000000000000000000000000081526004018080602001828103825260118152602001807f6d61726b6574206e6f742070617573656400000000000000000000000000000081525060200191505060405180910390fd5b80613aa8576139d982614174565b613a4b576040517f08c379a00000000000000000000000000000000000000000000000000000000081526004018080602001828103825260118152602001807f6d61726b6574206e6f74206c697374656400000000000000000000000000000081525060200191505060405180910390fd5b6001601b60008473ffffffffffffffffffffffffffffffffffffffff1673ffffffffffffffffffffffffffffffffffffffff16815260200190815260200160002060006101000a81548160ff021916908315150217905550613b07565b613ab1826128d5565b613b06576040517f08c379a0000000000000000000000000000000000000000000000000000000008152600401808060200182810382526022815260200180619ad26022913960400191505060405180910390fd5b5b600860008373ffffffffffffffffffffffffffffffffffffffff1673ffffffffffffffffffffffffffffffffffffffff168152602001908152602001600020600080820160006101000a81549060ff021916905560018201600090556003820160006101000a81549060ff0219169055505060008090505b600c80549050811015613cf4578273ffffffffffffffffffffffffffffffffffffffff16600c8281548110613bb057fe5b9060005260206000200160009054906101000a900473ffffffffffffffffffffffffffffffffffffffff1673ffffffffffffffffffffffffffffffffffffffff161415613ce957600c6001600c805490500381548110613c0c57fe5b9060005260206000200160009054906101000a900473ffffffffffffffffffffffffffffffffffffffff16600c8281548110613c4457fe5b9060005260206000200160006101000a81548173ffffffffffffffffffffffffffffffffffffffff021916908373ffffffffffffffffffffffffffffffffffffffff160217905550600c6001600c805490500381548110613ca157fe5b9060005260206000200160006101000a81549073ffffffffffffffffffffffffffffffffffffffff0219169055600c805480919060019003613ce391906199a0565b50613cf4565b806001019050613b7f565b507f1fc2e72349204abf00cbc7494177aff8e597323c72b7f50dfe56055d0d8f6d9a8282604051808373ffffffffffffffffffffffffffffffffffffffff1673ffffffffffffffffffffffffffffffffffffffff168152602001821515151581526020019250505060405180910390a15050565b600080601a60008573ffffffffffffffffffffffffffffffffffffffff1673ffffffffffffffffffffffffffffffffffffffff16815260200190815260200160002060008473ffffffffffffffffffffffffffffffffffffffff1673ffffffffffffffffffffffffffffffffffffffff1681526020019081526020016000205411905092915050565b6000613dfc83614174565b613e6e576040517f08c379a00000000000000000000000000000000000000000000000000000000081526004018080602001828103825260118152602001807f6d61726b6574206e6f74206c697374656400000000000000000000000000000081525060200191505060405180910390fd5b600960009054906101000a900473ffffffffffffffffffffffffffffffffffffffff1673ffffffffffffffffffffffffffffffffffffffff163373ffffffffffffffffffffffffffffffffffffffff161480613f1657506000809054906101000a900473ffffffffffffffffffffffffffffffffffffffff1673ffffffffffffffffffffffffffffffffffffffff163373ffffffffffffffffffffffffffffffffffffffff16145b613f88576040517f08c379a00000000000000000000000000000000000000000000000000000000081526004018080602001828103825260168152602001807f677561726469616e206f722061646d696e206f6e6c790000000000000000000081525060200191505060405180910390fd5b6000809054906101000a900473ffffffffffffffffffffffffffffffffffffffff1673ffffffffffffffffffffffffffffffffffffffff163373ffffffffffffffffffffffffffffffffffffffff161480613fe7575060011515821515145b614059576040517f08c379a000000000000000000000000000000000000000000000000000000000815260040180806020018281038252600a8152602001807f61646d696e206f6e6c790000000000000000000000000000000000000000000081525060200191505060405180910390fd5b81600a60008573ffffffffffffffffffffffffffffffffffffffff1673ffffffffffffffffffffffffffffffffffffffff16815260200190815260200160002060006101000a81548160ff0219169083151502179055507f71aec636243f9709bb0007ae15e9afb8150ab01716d75fd7573be5cc096e03b08383604051808373ffffffffffffffffffffffffffffffffffffffff1673ffffffffffffffffffffffffffffffffffffffff1681526020018060200183151515158152602001828103825260048152602001807f4d696e7400000000000000000000000000000000000000000000000000000000815250602001935050505060405180910390a181905092915050565b600960149054906101000a900460ff1681565b6000600860008373ffffffffffffffffffffffffffffffffffffffff1673ffffffffffffffffffffffffffffffffffffffff16815260200190815260200160002060000160009054906101000a900460ff169050919050565b6000156141de576005546005819055505b50505050565b600960009054906101000a900473ffffffffffffffffffffffffffffffffffffffff1681565b60001561421b576005546005819055505b505050505050565b60146020528060005260406000206000915090505481565b60065481565b6000806000806000806142568a8a8a8a618620565b92509250925082601181111561426857fe5b82829550955095505050509450945094915050565b6000600a60008573ffffffffffffffffffffffffffffffffffffffff1673ffffffffffffffffffffffffffffffffffffffff16815260200190815260200160002060009054906101000a900460ff161561433f576040517f08c379a000000000000000000000000000000000000000000000000000000000815260040180806020018281038252600e8152602001807f6d696e742069732070617573656400000000000000000000000000000000000081525060200191505060405180910390fd5b6143498385613d68565b156143bc576040517f08c379a000000000000000000000000000000000000000000000000000000000815260040180806020018281038252601a8152602001807f637265646974206163636f756e742063616e6e6f74206d696e7400000000000081525060200191505060405180910390fd5b6143c584614174565b614437576040517f08c379a00000000000000000000000000000000000000000000000000000000081526004018080602001828103825260118152602001807f6d61726b6574206e6f74206c697374656400000000000000000000000000000081525060200191505060405180910390fd5b6000601660008673ffffffffffffffffffffffffffffffffffffffff1673ffffffffffffffffffffffffffffffffffffffff1681526020019081526020016000205490506000811461473a5760008573ffffffffffffffffffffffffffffffffffffffff16633b1d21a26040518163ffffffff1660e01b815260040160206040518083038186803b1580156144cb57600080fd5b505afa1580156144df573d6000803e3d6000fd5b505050506040513d60208110156144f557600080fd5b8101908080519060200190929190505050905060008673ffffffffffffffffffffffffffffffffffffffff166347bd37186040518163ffffffff1660e01b815260040160206040518083038186803b15801561455057600080fd5b505afa158015614564573d6000803e3d6000fd5b505050506040513d602081101561457a57600080fd5b8101908080519060200190929190505050905060008773ffffffffffffffffffffffffffffffffffffffff16638f840ddd6040518163ffffffff1660e01b815260040160206040518083038186803b1580156145d557600080fd5b505afa1580156145e9573d6000803e3d6000fd5b505050506040513d60208110156145ff57600080fd5b81019080805190602001909291905050509050600080614620858585618c21565b915091506000600381111561463157fe5b82600381111561463d57fe5b146146b0576040517f08c379a00000000000000000000000000000000000000000000000000000000081526004018080602001828103825260148152602001807f746f74616c537570706c696573206661696c656400000000000000000000000081525060200191505060405180910390fd5b60006146bc828a618c7d565b9050868110614733576040517f08c379a00000000000000000000000000000000000000000000000000000000081526004018080602001828103825260198152602001807f6d61726b657420737570706c792063617020726561636865640000000000000081525060200191505060405180910390fd5b5050505050505b6000601181111561474757fe5b9150509392505050565b60008060009054906101000a900473ffffffffffffffffffffffffffffffffffffffff1673ffffffffffffffffffffffffffffffffffffffff163373ffffffffffffffffffffffffffffffffffffffff16146147ba576147b36001600b61844b565b9050614818565b60006006549050826006819055507faeba5a6c40a8ac138134bff1aaa65debf25971188a58804bad717f82f0ec13168184604051808381526020018281526020019250505060405180910390a16000601181111561481457fe5b9150505b919050565b600960009054906101000a900473ffffffffffffffffffffffffffffffffffffffff1673ffffffffffffffffffffffffffffffffffffffff163373ffffffffffffffffffffffffffffffffffffffff16146148e0576040517f08c379a000000000000000000000000000000000000000000000000000000000815260040180806020018281038252600d8152602001807f677561726469616e206f6e6c790000000000000000000000000000000000000081525060200191505060405180910390fd5b6148ec82826001618cc7565b5050565b6000809054906101000a900473ffffffffffffffffffffffffffffffffffffffff1673ffffffffffffffffffffffffffffffffffffffff163373ffffffffffffffffffffffffffffffffffffffff1614806149985750600960009054906101000a900473ffffffffffffffffffffffffffffffffffffffff1673ffffffffffffffffffffffffffffffffffffffff163373ffffffffffffffffffffffffffffffffffffffff16145b614a0a576040517f08c379a00000000000000000000000000000000000000000000000000000000081526004018080602001828103825260168152602001807f61646d696e206f7220677561726469616e206f6e6c790000000000000000000081525060200191505060405180910390fd5b6000848490509050600083839050905060008214158015614a2a57508082145b614a9c576040517f08c379a000000000000000000000000000000000000000000000000000000000815260040180806020018281038252600d8152602001807f696e76616c696420696e7075740000000000000000000000000000000000000081525060200191505060405180910390fd5b60008090505b82811015614bbb57848482818110614ab657fe5b9050602002013560166000898985818110614acd57fe5b9050602002013573ffffffffffffffffffffffffffffffffffffffff1673ffffffffffffffffffffffffffffffffffffffff1673ffffffffffffffffffffffffffffffffffffffff16815260200190815260200160002081905550868682818110614b3457fe5b9050602002013573ffffffffffffffffffffffffffffffffffffffff1673ffffffffffffffffffffffffffffffffffffffff167f9e0ad9cee10bdf36b7fbd38910c0bdff0f275ace679b45b922381c2723d676f8868684818110614b9457fe5b905060200201356040518082815260200191505060405180910390a2806001019050614aa2565b50505050505050565b600081148015614bd45750600082115b15614c47576040517f08c379a00000000000000000000000000000000000000000000000000000000081526004018080602001828103825260118152602001807f72656465656d546f6b656e73207a65726f00000000000000000000000000000081525060200191505060405180910390fd5b50505050565b600c8181548110614c5a57fe5b906000526020600020016000915054906101000a900473ffffffffffffffffffffffffffffffffffffffff1681565b60008060009054906101000a900473ffffffffffffffffffffffffffffffffffffffff1673ffffffffffffffffffffffffffffffffffffffff163373ffffffffffffffffffffffffffffffffffffffff1614614cf257614ceb6001601061844b565b9050614e02565b6000600460009054906101000a900473ffffffffffffffffffffffffffffffffffffffff16905082600460006101000a81548173ffffffffffffffffffffffffffffffffffffffff021916908373ffffffffffffffffffffffffffffffffffffffff1602179055507fd52b2b9b7e9ee655fcb95d2e5b9e0c9f69e7ef2b8e9d2d0ea78402d576d22e228184604051808373ffffffffffffffffffffffffffffffffffffffff1673ffffffffffffffffffffffffffffffffffffffff1681526020018273ffffffffffffffffffffffffffffffffffffffff1673ffffffffffffffffffffffffffffffffffffffff1681526020019250505060405180910390a160006011811115614dfe57fe5b9150505b919050565b600015614e18576005546005819055505b505050565b6000809054906101000a900473ffffffffffffffffffffffffffffffffffffffff1673ffffffffffffffffffffffffffffffffffffffff163373ffffffffffffffffffffffffffffffffffffffff1614614edf576040517f08c379a000000000000000000000000000000000000000000000000000000000815260040180806020018281038252600a8152602001807f61646d696e206f6e6c790000000000000000000000000000000000000000000081525060200191505060405180910390fd5b6000601c60009054906101000a900473ffffffffffffffffffffffffffffffffffffffff16905081601c60006101000a81548173ffffffffffffffffffffffffffffffffffffffff021916908373ffffffffffffffffffffffffffffffffffffffff1602179055507fa4c457d40aa1c979a2194279d244db38b26ba51dac56dfa7f01446c0d00f8f6581601c60009054906101000a900473ffffffffffffffffffffffffffffffffffffffff16604051808373ffffffffffffffffffffffffffffffffffffffff1673ffffffffffffffffffffffffffffffffffffffff1681526020018273ffffffffffffffffffffffffffffffffffffffff1673ffffffffffffffffffffffffffffffffffffffff1681526020019250505060405180910390a15050565b60008060008060008061501b876000806000618620565b92509250925082601181111561502d57fe5b82829550955095505050509193909250565b600061504b8387613d68565b156150be576040517f08c379a000000000000000000000000000000000000000000000000000000000815260040180806020018281038252601f8152602001807f63616e6e6f74206c697175696461746520637265646974206163636f756e740081525060200191505060405180910390fd5b6150c7866128d5565b80156150d857506150d7856128d5565b5b61514a576040517f08c379a00000000000000000000000000000000000000000000000000000000081526004018080602001828103825260118152602001807f6d61726b6574206e6f74206c697374656400000000000000000000000000000081525060200191505060405180910390fd5b60008061515685618e67565b92505091506000601181111561516857fe5b82601181111561517457fe5b146151e7576040517f08c379a000000000000000000000000000000000000000000000000000000000815260040180806020018281038252601f8152602001807f6661696c656420746f20676574206163636f756e74206c69717569646974790081525060200191505060405180910390fd5b6000811161525d576040517f08c379a00000000000000000000000000000000000000000000000000000000081526004018080602001828103825260168152602001807f696e73756666696369656e742073686f727466616c6c0000000000000000000081525060200191505060405180910390fd5b60008873ffffffffffffffffffffffffffffffffffffffff166395dd9193876040518263ffffffff1660e01b8152600401808273ffffffffffffffffffffffffffffffffffffffff1673ffffffffffffffffffffffffffffffffffffffff16815260200191505060206040518083038186803b1580156152dc57600080fd5b505afa1580156152f0573d6000803e3d6000fd5b505050506040513d602081101561530657600080fd5b810190808051906020019092919050505090506000615335604051806020016040528060055481525083618e87565b9050808611156153565760118081111561534b57fe5b94505050505061536a565b6000601181111561536357fe5b9450505050505b95945050505050565b6000809054906101000a900473ffffffffffffffffffffffffffffffffffffffff1673ffffffffffffffffffffffffffffffffffffffff163373ffffffffffffffffffffffffffffffffffffffff16148061541b5750600960009054906101000a900473ffffffffffffffffffffffffffffffffffffffff1673ffffffffffffffffffffffffffffffffffffffff163373ffffffffffffffffffffffffffffffffffffffff16145b61548d576040517f08c379a00000000000000000000000000000000000000000000000000000000081526004018080602001828103825260168152602001807f61646d696e206f7220677561726469616e206f6e6c790000000000000000000081525060200191505060405180910390fd5b60008484905090506000838390509050600082141580156154ad57508082145b61551f576040517f08c379a000000000000000000000000000000000000000000000000000000000815260040180806020018281038252600d8152602001807f696e76616c696420696e7075740000000000000000000000000000000000000081525060200191505060405180910390fd5b60008090505b8281101561563e5784848281811061553957fe5b905060200201356014600089898581811061555057fe5b9050602002013573ffffffffffffffffffffffffffffffffffffffff1673ffffffffffffffffffffffffffffffffffffffff1673ffffffffffffffffffffffffffffffffffffffff168152602001908152602001600020819055508686828181106155b757fe5b9050602002013573ffffffffffffffffffffffffffffffffffffffff1673ffffffffffffffffffffffffffffffffffffffff167f6f1951b2aad10f3fc81b86d91105b413a5b3f847a34bbc5ce1904201b14438f686868481811061561757fe5b905060200201356040518082815260200191505060405180910390a2806001019050615525565b50505050505050565b600015615658576005546005819055505b50505050565b600e6020528060005260406000206000915090508060000160009054906101000a90047bffffffffffffffffffffffffffffffffffffffffffffffffffffffff169080600001601c9054906101000a900463ffffffff16905082565b600b6020528060005260406000206000915054906101000a900460ff1681565b6000156156eb576005546005819055505b5050505050565b600a6020528060005260406000206000915054906101000a900460ff1681565b600042905090565b600460009054906101000a900473ffffffffffffffffffffffffffffffffffffffff1681565b601960009054906101000a900473ffffffffffffffffffffffffffffffffffffffff1681565b600960169054906101000a900460ff1681565b600f6020528060005260406000206000915090508060000160009054906101000a90047bffffffffffffffffffffffffffffffffffffffffffffffffffffffff169080600001601c9054906101000a900463ffffffff16905082565b60086020528060005260406000206000915090508060000160009054906101000a900460ff16908060010154908060030160009054906101000a900460ff16905083565b6000600960009054906101000a900473ffffffffffffffffffffffffffffffffffffffff1673ffffffffffffffffffffffffffffffffffffffff163373ffffffffffffffffffffffffffffffffffffffff1614806158c357506000809054906101000a900473ffffffffffffffffffffffffffffffffffffffff1673ffffffffffffffffffffffffffffffffffffffff163373ffffffffffffffffffffffffffffffffffffffff16145b615935576040517f08c379a00000000000000000000000000000000000000000000000000000000081526004018080602001828103825260168152602001807f677561726469616e206f722061646d696e206f6e6c790000000000000000000081525060200191505060405180910390fd5b6000809054906101000a900473ffffffffffffffffffffffffffffffffffffffff1673ffffffffffffffffffffffffffffffffffffffff163373ffffffffffffffffffffffffffffffffffffffff161480615994575060011515821515145b615a06576040517f08c379a000000000000000000000000000000000000000000000000000000000815260040180806020018281038252600a8152602001807f61646d696e206f6e6c790000000000000000000000000000000000000000000081525060200191505060405180910390fd5b81600960166101000a81548160ff0219169083151502179055507fef159d9a32b2472e32b098f954f3ce62d232939f1c207070b584df1814de2de082604051808060200183151515158152602001828103825260088152602001807f5472616e736665720000000000000000000000000000000000000000000000008152506020019250505060405180910390a1819050919050565b6000600860008373ffffffffffffffffffffffffffffffffffffffff1673ffffffffffffffffffffffffffffffffffffffff16815260200190815260200160002060020160008473ffffffffffffffffffffffffffffffffffffffff1673ffffffffffffffffffffffffffffffffffffffff16815260200190815260200160002060009054906101000a900460ff16905092915050565b6000809050919050565b601560009054906101000a900473ffffffffffffffffffffffffffffffffffffffff1681565b606080600760008473ffffffffffffffffffffffffffffffffffffffff1673ffffffffffffffffffffffffffffffffffffffff168152602001908152602001600020805480602002602001604051908101604052809291908181526020018280548015615c2557602002820191906000526020600020905b8160009054906101000a900473ffffffffffffffffffffffffffffffffffffffff1673ffffffffffffffffffffffffffffffffffffffff1681526020019060010190808311615bdb575b5050505050905080915050919050565b600960179054906101000a900460ff1681565b6060600c805480602002602001604051908101604052809291908181526020018280548015615ccc57602002820191906000526020600020905b8160009054906101000a900473ffffffffffffffffffffffffffffffffffffffff1673ffffffffffffffffffffffffffffffffffffffff1681526020019060010190808311615c82575b5050505050905090565b6000601860008773ffffffffffffffffffffffffffffffffffffffff1673ffffffffffffffffffffffffffffffffffffffff16815260200190815260200160002060009054906101000a900460ff1615905095945050505050565b6000615d3c83614174565b615dae576040517f08c379a00000000000000000000000000000000000000000000000000000000081526004018080602001828103825260118152602001807f6d61726b6574206e6f74206c697374656400000000000000000000000000000081525060200191505060405180910390fd5b600960009054906101000a900473ffffffffffffffffffffffffffffffffffffffff1673ffffffffffffffffffffffffffffffffffffffff163373ffffffffffffffffffffffffffffffffffffffff161480615e5657506000809054906101000a900473ffffffffffffffffffffffffffffffffffffffff1673ffffffffffffffffffffffffffffffffffffffff163373ffffffffffffffffffffffffffffffffffffffff16145b615ec8576040517f08c379a00000000000000000000000000000000000000000000000000000000081526004018080602001828103825260168152602001807f677561726469616e206f722061646d696e206f6e6c790000000000000000000081525060200191505060405180910390fd5b6000809054906101000a900473ffffffffffffffffffffffffffffffffffffffff1673ffffffffffffffffffffffffffffffffffffffff163373ffffffffffffffffffffffffffffffffffffffff161480615f27575060011515821515145b615f99576040517f08c379a000000000000000000000000000000000000000000000000000000000815260040180806020018281038252600a8152602001807f61646d696e206f6e6c790000000000000000000000000000000000000000000081525060200191505060405180910390fd5b81601860008573ffffffffffffffffffffffffffffffffffffffff1673ffffffffffffffffffffffffffffffffffffffff16815260200190815260200160002060006101000a81548160ff0219169083151502179055507f71aec636243f9709bb0007ae15e9afb8150ab01716d75fd7573be5cc096e03b08383604051808373ffffffffffffffffffffffffffffffffffffffff1673ffffffffffffffffffffffffffffffffffffffff1681526020018060200183151515158152602001828103825260098152602001807f466c6173686c6f616e0000000000000000000000000000000000000000000000815250602001935050505060405180910390a181905092915050565b6010602052816000526040600020602052806000526040600020600091509150505481565b600260009054906101000a900473ffffffffffffffffffffffffffffffffffffffff1681565b6000600960169054906101000a900460ff1615616171576040517f08c379a00000000000000000000000000000000000000000000000000000000081526004018080602001828103825260128152602001807f7472616e7366657220697320706175736564000000000000000000000000000081525060200191505060405180910390fd5b61617b8386613d68565b156161d1576040517f08c379a0000000000000000000000000000000000000000000000000000000008152600401808060200182810382526023815260200180619aaf6023913960400191505060405180910390fd5b6161dc858584618eaf565b9050949350505050565b606060008251905060608160405190808252806020026020018201604052801561621f5781602001602082028038833980820191505090505b50905060008090505b8281101561628157600085828151811061623e57fe5b60200260200101519050616252813361917e565b601181111561625d57fe5b83838151811061626957fe5b60200260200101818152505050806001019050616228565b508092505050919050565b6000806000600460009054906101000a900473ffffffffffffffffffffffffffffffffffffffff1673ffffffffffffffffffffffffffffffffffffffff1663fc57d4df876040518263ffffffff1660e01b8152600401808273ffffffffffffffffffffffffffffffffffffffff1673ffffffffffffffffffffffffffffffffffffffff16815260200191505060206040518083038186803b15801561633057600080fd5b505afa158015616344573d6000803e3d6000fd5b505050506040513d602081101561635a57600080fd5b810190808051906020019092919050505090506000600460009054906101000a900473ffffffffffffffffffffffffffffffffffffffff1673ffffffffffffffffffffffffffffffffffffffff1663fc57d4df876040518263ffffffff1660e01b8152600401808273ffffffffffffffffffffffffffffffffffffffff1673ffffffffffffffffffffffffffffffffffffffff16815260200191505060206040518083038186803b15801561640e57600080fd5b505afa158015616422573d6000803e3d6000fd5b505050506040513d602081101561643857600080fd5b8101908080519060200190929190505050905060008211801561645b5750600081115b6164cd576040517f08c379a000000000000000000000000000000000000000000000000000000000815260040180806020018281038252600b8152602001807f7072696365206572726f7200000000000000000000000000000000000000000081525060200191505060405180910390fd5b60008673ffffffffffffffffffffffffffffffffffffffff1663182df0f56040518163ffffffff1660e01b815260040160206040518083038186803b15801561651557600080fd5b505afa158015616529573d6000803e3d6000fd5b505050506040513d602081101561653f57600080fd5b8101908080519060200190929190505050905061655a6199cc565b6165826040518060200160405280600654815250604051806020016040528087815250619537565b905061658c6199cc565b6165b2604051806020016040528086815250604051806020016040528086815250619537565b90506165bc6199cc565b6165c68383619578565b905060006165d4828b618e87565b9050600060118111156165e357fe5b819850985050505050505050935093915050565b6011602052816000526040600020602052806000526040600020600091509150505481565b60126020528060005260406000206000915090505481565b6000600960179054906101000a900460ff16156166b9576040517f08c379a000000000000000000000000000000000000000000000000000000000815260040180806020018281038252600f8152602001807f7365697a6520697320706175736564000000000000000000000000000000000081525060200191505060405180910390fd5b6166c38386613d68565b15616736576040517f08c379a00000000000000000000000000000000000000000000000000000000081526004018080602001828103825260208152602001807f63616e6e6f74207365697a652066726f6d20637265646974206163636f756e7481525060200191505060405180910390fd5b61673f856128d5565b8015616750575061674f866128d5565b5b6167c2576040517f08c379a00000000000000000000000000000000000000000000000000000000081526004018080602001828103825260118152602001807f6d61726b6574206e6f74206c697374656400000000000000000000000000000081525060200191505060405180910390fd5b8473ffffffffffffffffffffffffffffffffffffffff16635fe3b5676040518163ffffffff1660e01b815260040160206040518083038186803b15801561680857600080fd5b505afa15801561681c573d6000803e3d6000fd5b505050506040513d602081101561683257600080fd5b810190808051906020019092919050505073ffffffffffffffffffffffffffffffffffffffff168673ffffffffffffffffffffffffffffffffffffffff16635fe3b5676040518163ffffffff1660e01b815260040160206040518083038186803b15801561689f57600080fd5b505afa1580156168b3573d6000803e3d6000fd5b505050506040513d60208110156168c957600080fd5b810190808051906020019092919050505073ffffffffffffffffffffffffffffffffffffffff1614616963576040517f08c379a00000000000000000000000000000000000000000000000000000000081526004018080602001828103825260168152602001807f636f6d7074726f6c6c6572206d69736d6174636865640000000000000000000081525060200191505060405180910390fd5b6000601181111561697057fe5b905095945050505050565b601b6020528060005260406000206000915054906101000a900460ff1681565b60186020528060005260406000206000915054906101000a900460ff1681565b6000809054906101000a900473ffffffffffffffffffffffffffffffffffffffff1673ffffffffffffffffffffffffffffffffffffffff163373ffffffffffffffffffffffffffffffffffffffff161480616a635750601c60009054906101000a900473ffffffffffffffffffffffffffffffffffffffff1673ffffffffffffffffffffffffffffffffffffffff163373ffffffffffffffffffffffffffffffffffffffff16145b616ab8576040517f08c379a0000000000000000000000000000000000000000000000000000000008152600401808060200182810382526022815260200180619b626022913960400191505060405180910390fd5b616ac3838383618cc7565b505050565b600080601a60008573ffffffffffffffffffffffffffffffffffffffff1673ffffffffffffffffffffffffffffffffffffffff16815260200190815260200160002060008673ffffffffffffffffffffffffffffffffffffffff1673ffffffffffffffffffffffffffffffffffffffff16815260200190815260200160002054905060008111616bc0576040517f08c379a00000000000000000000000000000000000000000000000000000000081526004018080602001828103825260148152602001807f6f6e6c792062616e6b2063616e20626f72726f7700000000000000000000000081525060200191505060405180910390fd5b600b60008673ffffffffffffffffffffffffffffffffffffffff1673ffffffffffffffffffffffffffffffffffffffff16815260200190815260200160002060009054906101000a900460ff1615616c80576040517f08c379a00000000000000000000000000000000000000000000000000000000081526004018080602001828103825260108152602001807f626f72726f77206973207061757365640000000000000000000000000000000081525060200191505060405180910390fd5b616c8985614174565b616cfb576040517f08c379a00000000000000000000000000000000000000000000000000000000081526004018080602001828103825260118152602001807f6d61726b6574206e6f74206c697374656400000000000000000000000000000081525060200191505060405180910390fd5b600860008673ffffffffffffffffffffffffffffffffffffffff1673ffffffffffffffffffffffffffffffffffffffff16815260200190815260200160002060020160008573ffffffffffffffffffffffffffffffffffffffff1673ffffffffffffffffffffffffffffffffffffffff16815260200190815260200160002060009054906101000a900460ff16616f56578473ffffffffffffffffffffffffffffffffffffffff163373ffffffffffffffffffffffffffffffffffffffff1614616e2d576040517f08c379a00000000000000000000000000000000000000000000000000000000081526004018080602001828103825260158152602001807f73656e646572206d7573742062652062546f6b656e000000000000000000000081525060200191505060405180910390fd5b60006011811115616e3a57fe5b616e44868661917e565b6011811115616e4f57fe5b14616ec2576040517f08c379a00000000000000000000000000000000000000000000000000000000081526004018080602001828103825260148152602001807f6661696c656420746f20616464206d61726b657400000000000000000000000081525060200191505060405180910390fd5b600860008673ffffffffffffffffffffffffffffffffffffffff1673ffffffffffffffffffffffffffffffffffffffff16815260200190815260200160002060020160008573ffffffffffffffffffffffffffffffffffffffff1673ffffffffffffffffffffffffffffffffffffffff16815260200190815260200160002060009054906101000a900460ff16616f5557fe5b5b6000600460009054906101000a900473ffffffffffffffffffffffffffffffffffffffff1673ffffffffffffffffffffffffffffffffffffffff1663fc57d4df876040518263ffffffff1660e01b8152600401808273ffffffffffffffffffffffffffffffffffffffff1673ffffffffffffffffffffffffffffffffffffffff16815260200191505060206040518083038186803b158015616ff757600080fd5b505afa15801561700b573d6000803e3d6000fd5b505050506040513d602081101561702157600080fd5b810190808051906020019092919050505014156170a6576040517f08c379a000000000000000000000000000000000000000000000000000000000815260040180806020018281038252600b8152602001807f7072696365206572726f7200000000000000000000000000000000000000000081525060200191505060405180910390fd5b6000601460008773ffffffffffffffffffffffffffffffffffffffff1673ffffffffffffffffffffffffffffffffffffffff168152602001908152602001600020549050600081146171fd5760008673ffffffffffffffffffffffffffffffffffffffff166347bd37186040518163ffffffff1660e01b815260040160206040518083038186803b15801561713a57600080fd5b505afa15801561714e573d6000803e3d6000fd5b505050506040513d602081101561716457600080fd5b8101908080519060200190929190505050905060006171838287618c7d565b90508281106171fa576040517f08c379a00000000000000000000000000000000000000000000000000000000081526004018080602001828103825260198152602001807f6d61726b657420626f72726f772063617020726561636865640000000000000081525060200191505060405180910390fd5b50505b60008211156173e1576000808773ffffffffffffffffffffffffffffffffffffffff1663c37f68e2886040518263ffffffff1660e01b8152600401808273ffffffffffffffffffffffffffffffffffffffff1673ffffffffffffffffffffffffffffffffffffffff16815260200191505060806040518083038186803b15801561728657600080fd5b505afa15801561729a573d6000803e3d6000fd5b505050506040513d60808110156172b057600080fd5b81019080805190602001909291908051906020019092919080519060200190929190805190602001909291905050505092505091506000821461735b576040517f08c379a000000000000000000000000000000000000000000000000000000000815260040180806020018281038252600e8152602001807f736e617073686f74206572726f7200000000000000000000000000000000000081525060200191505060405180910390fd5b6173658187618c7d565b8410156173da576040517f08c379a00000000000000000000000000000000000000000000000000000000081526004018080602001828103825260198152602001807f696e73756666696369656e7420637265646974206c696d69740000000000000081525060200191505060405180910390fd5b50506174fb565b6000806173f18789600089618620565b92505091506000601181111561740357fe5b82601181111561740f57fe5b14617482576040517f08c379a000000000000000000000000000000000000000000000000000000000815260040180806020018281038252601f8152602001807f6661696c656420746f20676574206163636f756e74206c69717569646974790081525060200191505060405180910390fd5b600081146174f8576040517f08c379a00000000000000000000000000000000000000000000000000000000081526004018080602001828103825260168152602001807f696e73756666696369656e74206c69717569646974790000000000000000000081525060200191505060405180910390fd5b50505b6000601181111561750857fe5b925050509392505050565b6007602052816000526040600020818154811061752c57fe5b906000526020600020016000915091509054906101000a900473ffffffffffffffffffffffffffffffffffffffff1681565b600360009054906101000a900473ffffffffffffffffffffffffffffffffffffffff1681565b60008060009054906101000a900473ffffffffffffffffffffffffffffffffffffffff1673ffffffffffffffffffffffffffffffffffffffff163373ffffffffffffffffffffffffffffffffffffffff16146175ed576175e66001601361844b565b905061771f565b6000600960009054906101000a900473ffffffffffffffffffffffffffffffffffffffff16905082600960006101000a81548173ffffffffffffffffffffffffffffffffffffffff021916908373ffffffffffffffffffffffffffffffffffffffff1602179055507f08fdaf06427a2010e5958f4329b566993472d14ce81d3f16ce7f2a2660da98e381600960009054906101000a900473ffffffffffffffffffffffffffffffffffffffff16604051808373ffffffffffffffffffffffffffffffffffffffff1673ffffffffffffffffffffffffffffffffffffffff1681526020018273ffffffffffffffffffffffffffffffffffffffff1673ffffffffffffffffffffffffffffffffffffffff1681526020019250505060405180910390a16000601181111561771b57fe5b9150505b919050565b60008060009054906101000a900473ffffffffffffffffffffffffffffffffffffffff1673ffffffffffffffffffffffffffffffffffffffff163373ffffffffffffffffffffffffffffffffffffffff161461778d576177866001600661844b565b90506179f7565b6000600860008573ffffffffffffffffffffffffffffffffffffffff1673ffffffffffffffffffffffffffffffffffffffff16815260200190815260200160002090508060000160009054906101000a900460ff166177fa576177f26009600761844b565b9150506179f7565b6178026199cc565b604051806020016040528085815250905061781b6199cc565b6040518060200160405280670c7d713b49da0000815250905061783e81836195b9565b156178595761784f6006600861844b565b93505050506179f7565b6000851415801561794357506000600460009054906101000a900473ffffffffffffffffffffffffffffffffffffffff1673ffffffffffffffffffffffffffffffffffffffff1663fc57d4df886040518263ffffffff1660e01b8152600401808273ffffffffffffffffffffffffffffffffffffffff1673ffffffffffffffffffffffffffffffffffffffff16815260200191505060206040518083038186803b15801561790657600080fd5b505afa15801561791a573d6000803e3d6000fd5b505050506040513d602081101561793057600080fd5b8101908080519060200190929190505050145b1561795e57617954600d600961844b565b93505050506179f7565b6000836001015490508584600101819055507f70483e6592cd5182d45ac970e05bc62cdcc90e9d8ef2c2dbe686cf383bcd7fc5878288604051808473ffffffffffffffffffffffffffffffffffffffff1673ffffffffffffffffffffffffffffffffffffffff168152602001838152602001828152602001935050505060405180910390a1600060118111156179f057fe5b9450505050505b92915050565b600960159054906101000a900460ff1681565b60055481565b6000809054906101000a900473ffffffffffffffffffffffffffffffffffffffff1673ffffffffffffffffffffffffffffffffffffffff163373ffffffffffffffffffffffffffffffffffffffff1614617ad8576040517f08c379a000000000000000000000000000000000000000000000000000000000815260040180806020018281038252600a8152602001807f61646d696e206f6e6c790000000000000000000000000000000000000000000081525060200191505060405180910390fd5b3073ffffffffffffffffffffffffffffffffffffffff168173ffffffffffffffffffffffffffffffffffffffff16635fe3b5676040518163ffffffff1660e01b815260040160206040518083038186803b158015617b3557600080fd5b505afa158015617b49573d6000803e3d6000fd5b505050506040513d6020811015617b5f57600080fd5b810190808051906020019092919050505073ffffffffffffffffffffffffffffffffffffffff1614617bf9576040517f08c379a00000000000000000000000000000000000000000000000000000000081526004018080602001828103825260148152602001807f6d69736d6174636820636f6d7074726f6c6c657200000000000000000000000081525060200191505060405180910390fd5b6000601960009054906101000a900473ffffffffffffffffffffffffffffffffffffffff16905081601960006101000a81548173ffffffffffffffffffffffffffffffffffffffff021916908373ffffffffffffffffffffffffffffffffffffffff1602179055507f4247a233ab0926daf14619c57e7d333975443a34cc5e1a30478bc4e7e716c8a281601960009054906101000a900473ffffffffffffffffffffffffffffffffffffffff16604051808373ffffffffffffffffffffffffffffffffffffffff1673ffffffffffffffffffffffffffffffffffffffff1681526020018273ffffffffffffffffffffffffffffffffffffffff1673ffffffffffffffffffffffffffffffffffffffff1681526020019250505060405180910390a15050565b6000617d2b848484618eaf565b90509392505050565b60008082905060008060008373ffffffffffffffffffffffffffffffffffffffff1663c37f68e2336040518263ffffffff1660e01b8152600401808273ffffffffffffffffffffffffffffffffffffffff1673ffffffffffffffffffffffffffffffffffffffff16815260200191505060806040518083038186803b158015617dbc57600080fd5b505afa158015617dd0573d6000803e3d6000fd5b505050506040513d6080811015617de657600080fd5b81019080805190602001909291908051906020019092919080519060200190929190805190602001909291905050505092509250925060008314617e75576040517f08c379a0000000000000000000000000000000000000000000000000000000008152600401808060200182810382526025815260200180619af46025913960400191505060405180910390fd5b60008114617eeb576040517f08c379a00000000000000000000000000000000000000000000000000000000081526004018080602001828103825260168152602001807f6e6f6e7a65726f20626f72726f772062616c616e63650000000000000000000081525060200191505060405180910390fd5b6000617ef8873385618eaf565b14617f6b576040517f08c379a00000000000000000000000000000000000000000000000000000000081526004018080602001828103825260158152602001807f6661696c656420746f2065786974206d61726b6574000000000000000000000081525060200191505060405180910390fd5b6000600860008873ffffffffffffffffffffffffffffffffffffffff1673ffffffffffffffffffffffffffffffffffffffff168152602001908152602001600020905060016002811115617fbb57fe5b8160030160009054906101000a900460ff166002811115617fd857fe5b1415618076578673ffffffffffffffffffffffffffffffffffffffff16638b35776b336040518263ffffffff1660e01b8152600401808273ffffffffffffffffffffffffffffffffffffffff1673ffffffffffffffffffffffffffffffffffffffff168152602001915050600060405180830381600087803b15801561805d57600080fd5b505af1158015618071573d6000803e3d6000fd5b505050505b8060020160003373ffffffffffffffffffffffffffffffffffffffff1673ffffffffffffffffffffffffffffffffffffffff16815260200190815260200160002060009054906101000a900460ff166180e257600060118111156180d657fe5b95505050505050618421565b8060020160003373ffffffffffffffffffffffffffffffffffffffff1673ffffffffffffffffffffffffffffffffffffffff16815260200190815260200160002060006101000a81549060ff02191690556060600760003373ffffffffffffffffffffffffffffffffffffffff1673ffffffffffffffffffffffffffffffffffffffff1681526020019081526020016000208054806020026020016040519081016040528092919081815260200182805480156181f457602002820191906000526020600020905b8160009054906101000a900473ffffffffffffffffffffffffffffffffffffffff1673ffffffffffffffffffffffffffffffffffffffff16815260200190600101908083116181aa575b50505050509050600081519050600081905060008090505b8281101561826e578873ffffffffffffffffffffffffffffffffffffffff1684828151811061823757fe5b602002602001015173ffffffffffffffffffffffffffffffffffffffff1614156182635780915061826e565b80600101905061820c565b5081811061827857fe5b6000600760003373ffffffffffffffffffffffffffffffffffffffff1673ffffffffffffffffffffffffffffffffffffffff16815260200190815260200160002090506001818054905003821461835c57806001828054905003815481106182dc57fe5b9060005260206000200160009054906101000a900473ffffffffffffffffffffffffffffffffffffffff1681838154811061831357fe5b9060005260206000200160006101000a81548173ffffffffffffffffffffffffffffffffffffffff021916908373ffffffffffffffffffffffffffffffffffffffff1602179055505b8080548091906001900361837091906199df565b507fe699a64c18b07ac5b7301aa273f36a2287239eb9501d81950672794afba29a0d8933604051808373ffffffffffffffffffffffffffffffffffffffff1673ffffffffffffffffffffffffffffffffffffffff1681526020018273ffffffffffffffffffffffffffffffffffffffff1673ffffffffffffffffffffffffffffffffffffffff1681526020019250505060405180910390a16000601181111561841557fe5b99505050505050505050505b919050565b6000809054906101000a900473ffffffffffffffffffffffffffffffffffffffff1681565b60007f45b96fe442630264581b197e84bbada861235052c5a1aadfff9ea4e40a969aa083601181111561847a57fe5b83601381111561848657fe5b600060405180848152602001838152602001828152602001935050505060405180910390a18260118111156184b757fe5b905092915050565b60008090505b600c805490508110156185b6578173ffffffffffffffffffffffffffffffffffffffff16600c82815481106184f657fe5b9060005260206000200160009054906101000a900473ffffffffffffffffffffffffffffffffffffffff1673ffffffffffffffffffffffffffffffffffffffff1614156185ab576040517f08c379a00000000000000000000000000000000000000000000000000000000081526004018080602001828103825260148152602001807f6d61726b657420616c726561647920616464656400000000000000000000000081525060200191505060405180910390fd5b8060010190506184c5565b50600c8190806001815401808255809150509060018203906000526020600020016000909192909190916101000a81548173ffffffffffffffffffffffffffffffffffffffff021916908373ffffffffffffffffffffffffffffffffffffffff1602179055505050565b600080600061862d619a0b565b60006060600760008b73ffffffffffffffffffffffffffffffffffffffff1673ffffffffffffffffffffffffffffffffffffffff1681526020019081526020016000208054806020026020016040519081016040528092919081815260200182805480156186f057602002820191906000526020600020905b8160009054906101000a900473ffffffffffffffffffffffffffffffffffffffff1673ffffffffffffffffffffffffffffffffffffffff16815260200190600101908083116186a6575b5050505050905060008090505b8151811015618bcb57600082828151811061871457fe5b60200260200101519050618727816128d5565b6187315750618bc0565b8073ffffffffffffffffffffffffffffffffffffffff1663c37f68e28d6040518263ffffffff1660e01b8152600401808273ffffffffffffffffffffffffffffffffffffffff1673ffffffffffffffffffffffffffffffffffffffff16815260200191505060806040518083038186803b1580156187ae57600080fd5b505afa1580156187c2573d6000803e3d6000fd5b505050506040513d60808110156187d857600080fd5b810190808051906020019092919080519060200190929190805190602001909291908051906020019092919050505088604001896060018a608001838152508381525083815250839750505050506000841461889c576040517f08c379a000000000000000000000000000000000000000000000000000000000815260040180806020018281038252600e8152602001807f736e617073686f74206572726f7200000000000000000000000000000000000081525060200191505060405180910390fd5b600085604001511480156188b4575060008560600151145b80156188ec57508a73ffffffffffffffffffffffffffffffffffffffff168173ffffffffffffffffffffffffffffffffffffffff1614155b156188f75750618bc0565b6040518060200160405280600860008473ffffffffffffffffffffffffffffffffffffffff1673ffffffffffffffffffffffffffffffffffffffff168152602001908152602001600020600101548152508560c00181905250604051806020016040528086608001518152508560e00181905250600460009054906101000a900473ffffffffffffffffffffffffffffffffffffffff1673ffffffffffffffffffffffffffffffffffffffff1663fc57d4df826040518263ffffffff1660e01b8152600401808273ffffffffffffffffffffffffffffffffffffffff1673ffffffffffffffffffffffffffffffffffffffff16815260200191505060206040518083038186803b158015618a0a57600080fd5b505afa158015618a1e573d6000803e3d6000fd5b505050506040513d6020811015618a3457600080fd5b81019080805190602001909291905050508560a001818152505060008560a0015111618ac8576040517f08c379a000000000000000000000000000000000000000000000000000000000815260040180806020018281038252600b8152602001807f7072696365206572726f7200000000000000000000000000000000000000000081525060200191505060405180910390fd5b60405180602001604052808660a00151815250856101000181905250618b04618af98660c001518760e00151619537565b866101000151619537565b856101200181905250618b25856101200151866040015187600001516195ce565b856000018181525050618b46856101000151866060015187602001516195ce565b8560200181815250508a73ffffffffffffffffffffffffffffffffffffffff168173ffffffffffffffffffffffffffffffffffffffff161415618bbe57618b978561012001518b87602001516195ce565b856020018181525050618bb48561010001518a87602001516195ce565b8560200181815250505b505b8060010190506186fd565b50826020015183600001511115618bfc57600083602001518460000151036000809050955095509550505050618c17565b60008084600001518560200151038191509550955095505050505b9450945094915050565b600080600080618c318787619600565b9150915060006003811115618c4257fe5b826003811115618c4e57fe5b14618c6457816000809050935093505050618c75565b618c6e8186619632565b9350935050505b935093915050565b6000618cbf83836040518060400160405280601181526020017f6164646974696f6e206f766572666c6f7700000000000000000000000000000081525061965d565b905092915050565b618cd082614174565b618d42576040517f08c379a00000000000000000000000000000000000000000000000000000000081526004018080602001828103825260118152602001807f6d61726b6574206e6f74206c697374656400000000000000000000000000000081525060200191505060405180910390fd5b80601a60008573ffffffffffffffffffffffffffffffffffffffff1673ffffffffffffffffffffffffffffffffffffffff16815260200190815260200160002060008473ffffffffffffffffffffffffffffffffffffffff1673ffffffffffffffffffffffffffffffffffffffff168152602001908152602001600020819055507fd2430896b2083037d8bf873ee97e05de0442c7137b4c9413b9e928f7212869e9838383604051808473ffffffffffffffffffffffffffffffffffffffff1673ffffffffffffffffffffffffffffffffffffffff1681526020018373ffffffffffffffffffffffffffffffffffffffff1673ffffffffffffffffffffffffffffffffffffffff168152602001828152602001935050505060405180910390a1505050565b6000806000618e7a846000806000618620565b9250925092509193909250565b6000618e916199cc565b618e9b848461971c565b9050618ea681619748565b91505092915050565b6000618eba846128d5565b618f2c576040517f08c379a00000000000000000000000000000000000000000000000000000000081526004018080602001828103825260118152602001807f6d61726b6574206e6f74206c697374656400000000000000000000000000000081525060200191505060405180910390fd5b618f368385613d68565b15618fa9576040517f08c379a000000000000000000000000000000000000000000000000000000000815260040180806020018281038252601c8152602001807f637265646974206163636f756e742063616e6e6f742072656465656d0000000081525060200191505060405180910390fd5b600860008573ffffffffffffffffffffffffffffffffffffffff1673ffffffffffffffffffffffffffffffffffffffff16815260200190815260200160002060020160008473ffffffffffffffffffffffffffffffffffffffff1673ffffffffffffffffffffffffffffffffffffffff16815260200190815260200160002060009054906101000a900460ff1661904e576000601181111561904757fe5b9050619177565b60008061905e8587866000618620565b92505091506000601181111561907057fe5b82601181111561907c57fe5b146190ef576040517f08c379a000000000000000000000000000000000000000000000000000000000815260040180806020018281038252601f8152602001807f6661696c656420746f20676574206163636f756e74206c69717569646974790081525060200191505060405180910390fd5b60008114619165576040517f08c379a00000000000000000000000000000000000000000000000000000000081526004018080602001828103825260168152602001807f696e73756666696369656e74206c69717569646974790000000000000000000081525060200191505060405180910390fd5b6000601181111561917257fe5b925050505b9392505050565b600080600860008573ffffffffffffffffffffffffffffffffffffffff1673ffffffffffffffffffffffffffffffffffffffff16815260200190815260200160002090508060000160009054906101000a900460ff16619246576040517f08c379a00000000000000000000000000000000000000000000000000000000081526004018080602001828103825260118152602001807f6d61726b6574206e6f74206c697374656400000000000000000000000000000081525060200191505060405180910390fd5b6001600281111561925357fe5b8160030160009054906101000a900460ff16600281111561927057fe5b1415619332578373ffffffffffffffffffffffffffffffffffffffff16638897bd85846040518263ffffffff1660e01b8152600401808273ffffffffffffffffffffffffffffffffffffffff1673ffffffffffffffffffffffffffffffffffffffff168152602001915050602060405180830381600087803b1580156192f557600080fd5b505af1158015619309573d6000803e3d6000fd5b505050506040513d602081101561931f57600080fd5b8101908080519060200190929190505050505b600115158160020160008573ffffffffffffffffffffffffffffffffffffffff1673ffffffffffffffffffffffffffffffffffffffff16815260200190815260200160002060009054906101000a900460ff1615151415619397576000915050619531565b60018160020160008573ffffffffffffffffffffffffffffffffffffffff1673ffffffffffffffffffffffffffffffffffffffff16815260200190815260200160002060006101000a81548160ff021916908315150217905550600760008473ffffffffffffffffffffffffffffffffffffffff1673ffffffffffffffffffffffffffffffffffffffff1681526020019081526020016000208490806001815401808255809150509060018203906000526020600020016000909192909190916101000a81548173ffffffffffffffffffffffffffffffffffffffff021916908373ffffffffffffffffffffffffffffffffffffffff160217905550507f3ab23ab0d51cccc0c3085aec51f99228625aa1a922b3a8ca89a26b0f2027a1a58484604051808373ffffffffffffffffffffffffffffffffffffffff1673ffffffffffffffffffffffffffffffffffffffff1681526020018273ffffffffffffffffffffffffffffffffffffffff1673ffffffffffffffffffffffffffffffffffffffff1681526020019250505060405180910390a160009150505b92915050565b61953f6199cc565b6040518060200160405280670de0b6b3a764000061956586600001518660000151619767565b8161956c57fe5b04815250905092915050565b6195806199cc565b60405180602001604052806195ae6195a48660000151670de0b6b3a7640000619767565b85600001516197b1565b815250905092915050565b60008160000151836000015110905092915050565b60006195d86199cc565b6195e2858561971c565b90506195f66195f082619748565b84618c7d565b9150509392505050565b6000806000838501905084811061961e57600081925092505061962b565b6002600080905092509250505b9250929050565b60008083831161964a57600083850391509150619656565b60036000809050915091505b9250929050565b6000808385019050848110158390619710576040517f08c379a00000000000000000000000000000000000000000000000000000000081526004018080602001828103825283818151815260200191508051906020019080838360005b838110156196d55780820151818401526020810190506196ba565b50505050905090810190601f1680156197025780820380516001836020036101000a031916815260200191505b509250505060405180910390fd5b50809150509392505050565b6197246199cc565b604051806020016040528061973d856000015185619767565b815250905092915050565b6000670de0b6b3a764000082600001518161975f57fe5b049050919050565b60006197a983836040518060400160405280601781526020017f6d756c7469706c69636174696f6e206f766572666c6f770000000000000000008152506197fb565b905092915050565b60006197f383836040518060400160405280600e81526020017f646976696465206279207a65726f0000000000000000000000000000000000008152506198e0565b905092915050565b60008084148061980b5750600083145b1561981957600090506198d9565b600083850290508385828161982a57fe5b041483906198d3576040517f08c379a00000000000000000000000000000000000000000000000000000000081526004018080602001828103825283818151815260200191508051906020019080838360005b8381101561989857808201518184015260208101905061987d565b50505050905090810190601f1680156198c55780820380516001836020036101000a031916815260200191505b509250505060405180910390fd5b50809150505b9392505050565b6000808311829061998c576040517f08c379a00000000000000000000000000000000000000000000000000000000081526004018080602001828103825283818151815260200191508051906020019080838360005b83811015619951578082015181840152602081019050619936565b50505050905090810190601f16801561997e5780820380516001836020036101000a031916815260200191505b509250505060405180910390fd5b5082848161999657fe5b0490509392505050565b8154818355818111156199c7578183600052602060002091820191016199c69190619a76565b5b505050565b6040518060200160405280600081525090565b815481835581811115619a0657818360005260206000209182019101619a059190619a76565b5b505050565b604051806101400160405280600081526020016000815260200160008152602001600081526020016000815260200160008152602001619a49619a9b565b8152602001619a56619a9b565b8152602001619a63619a9b565b8152602001619a70619a9b565b81525090565b619a9891905b80821115619a94576000816000905550600101619a7c565b5090565b90565b604051806020016040528060008152509056fe63616e6e6f74207472616e7366657220746f206120637265646974206163636f756e746d61726b6574206e6f74206c6973746564206f7220736f66742064656c6973746564657869744d61726b65743a206765744163636f756e74536e617073686f74206661696c65646d61726b657420616c7265616479206c6973746564206f722064656c697374656463616e6e6f74207265706179206f6e20626568616c66206f6620637265646974206163636f756e7461646d696e206f7220637265646974206c696d6974206d616e61676572206f6e6c79a265627a7a723158207377cf69fbb1b488e0d5ba55d2047401a6fd5650ae223d2ec3420d4dd4c629a964736f6c63430005100032","linkReferences":{}},"methodIdentifiers":{"_become(address)":"1d504dc6","_borrowGuardianPaused()":"e6653f3d","_delistMarket(address,bool)":"39e47ad2","_mintGuardianPaused()":"3c94786f","_pauseCreditLimit(address,address)":"50f6c85a","_setBorrowPaused(address,bool)":"18c882a5","_setCloseFactor(uint256)":"317b0b77","_setCollateralFactor(address,uint256)":"e4028eee","_setCreditLimit(address,address,uint256)":"d84f6aeb","_setCreditLimitManager(address)":"5e2e9a44","_setFlashloanPaused(address,bool)":"b1e1af24","_setGuardian(address)":"e38e8c0f","_setLiquidationIncentive(uint256)":"4fd42e17","_setLiquidityMining(address)":"ea5d0104","_setMarketBorrowCaps(address[],uint256[])":"607ef6c1","_setMarketSupplyCaps(address[],uint256[])":"51a485e4","_setMintPaused(address,bool)":"3bcf7ec1","_setPriceOracle(address)":"55ee1fe1","_setSeizePaused(bool)":"2d70db78","_setTransferPaused(bool)":"8ebf6364","_supportMarket(address,uint8)":"36bdd087","accountAssets(address,uint256)":"dce15449","admin()":"f851a440","allMarkets(uint256)":"52d84d1e","borrowAllowed(address,address,uint256)":"da3d454c","borrowCapGuardian()":"21af4569","borrowCaps(address)":"4a584432","borrowGuardianPaused(address)":"6d154ea5","borrowVerify(address,address,uint256)":"5c778605","checkMembership(address,address)":"929fe9a1","closeFactorMantissa()":"e8755446","compAccrued(address)":"cc7ebdc4","compBorrowState(address)":"8c57804e","compBorrowerIndex(address,address)":"ca0af043","compSpeeds(address)":"1d7b33d7","compSupplierIndex(address,address)":"b21be7fd","compSupplyState(address)":"6b79c38d","comptrollerImplementation()":"bb82aa5e","creditLimitManager()":"178de7eb","creditLimits(address)":"99bc1873","creditLimits(address,address)":"0445254d","enterMarkets(address[])":"c2998238","exitMarket(address)":"ede4edd0","flashloanAllowed(address,address,uint256,bytes)":"b1ab78e6","flashloanGuardianPaused(address)":"d672d3e2","getAccountLiquidity(address)":"5ec88c79","getAllMarkets()":"b0772d0b","getAssetsIn(address)":"abfceffc","getBlockTimestamp()":"796b89b9","getHypotheticalAccountLiquidity(address,address,uint256,uint256)":"4e79238f","guardian()":"452a9320","isComptroller()":"007e3dd2","isCreditAccount(address,address)":"3b3af257","isMarketDelisted(address)":"d1391149","isMarketListed(address)":"3d98a1e5","isMarketListedOrDelisted(address)":"188f8483","liquidateBorrowAllowed(address,address,address,address,uint256)":"5fc7e71e","liquidateBorrowVerify(address,address,address,address,uint256,uint256)":"47ef3b3b","liquidateCalculateSeizeTokens(address,address,uint256)":"c488847b","liquidationIncentiveMantissa()":"4ada90af","liquidityMining()":"85b2d535","markets(address)":"8e8f294b","mintAllowed(address,address,uint256)":"4ef4c3e1","mintGuardianPaused(address)":"731f0c2b","mintVerify(address,address,uint256,uint256)":"41c728b9","oracle()":"7dc0d1d0","pendingAdmin()":"26782247","pendingComptrollerImplementation()":"dcfbc0c7","redeemAllowed(address,address,uint256)":"eabe7d91","redeemVerify(address,address,uint256,uint256)":"51dff989","repayBorrowAllowed(address,address,address,uint256)":"24008a62","repayBorrowVerify(address,address,address,uint256,uint256)":"1ededc91","seizeAllowed(address,address,address,address,uint256)":"d02f7351","seizeGuardianPaused()":"ac0b0bb7","seizeVerify(address,address,address,address,uint256)":"6d35bf91","supplyCapGuardian()":"a979f0c5","supplyCaps(address)":"02c3bcbb","transferAllowed(address,address,address,uint256)":"bdcdc258","transferGuardianPaused()":"87f76303","transferVerify(address,address,address,uint256)":"6a56947e","updateBTokenVersion(address,uint8)":"0aa57477"},"id":4}